:020000040800F2
:10000000780700207902000839450008553F0008AC
:1000100035450008650500086D5200080000000025
:100020000000000000000000000000006147000820
:100030006905000800000000C1460008B947000833
:10004000930200089302000893020008930200083C
:10005000930200089302000893020008930200082C
:10006000930200089302000893020008930200081C
:10007000930200089302000893020008930200080C
:1000800093020008000000008103000893020008AA
:1000900093020008930200089302000893020008EC
:1000A00093020008930200089302000893020008DC
:1000B00093020008930200089302000893020008CC
:1000C00093020008930200089302000893020008BC
:1000D00093020008930200089302000893020008AC
:1000E000930200089302000893020008930200089C
:1000F0009302000893020008930200080000000029
:1001000000000000930200080000000093020008B5
:100110009302000800000000930200089302000808
:10012000930200089302000893020008930200085B
:100130009302000800000000000000009302000885
:100140009302000893020008000000000000000075
:10015000000000000000000000000000000000009F
:1001600000000000000000000000000093020008F2
:1001700093020008000000000000000000000000E2
:1001800000000000930200080000000000000000D2
:10019000000000000000000000000000000000005F
:1001A0000000000000000000930200089302000815
:1001B0009302000893020008930200080000000068
:1001C0000000000093020008000000000000000092
:1001D000930200089302000800F002F800F03CF8D7
:1001E0000AA090E8000C82448344AAF10107DA4592
:1001F00001D100F031F8AFF2090EBAE80F0013F0A8
:10020000010F18BFFB1A43F0010318475C520000AE
:100210007C520000103A24BF78C878C1FAD852073F
:1002200024BF30C830C144BF04680C607047000070
:100230000023002400250026103A28BF78C1FBD8EF
:10024000520728BF30C148BF0B6070471FB505F08B
:10025000F6F81FBD10B510BD00F058F81146FFF7B5
:10026000F5FF05F0D5F800F076F803B4FFF7F2FFDC
:1002700003BC00F07DF800000948804709480047AA
:10028000FEE7FEE7FEE7FEE7FEE7FEE7FEE7FEE746
:10029000FEE7FEE704480549054A064B70470000A3
:1002A00035480008D90100087801002078070020AF
:1002B00078030020780300204FF0000200B51346B9
:1002C00094469646203922BFA0E80C50A0E80C5076
:1002D000B1F12001BFF4F7AF090728BFA0E80C5027
:1002E00048BF0CC05DF804EB890028BF40F8042B20
:1002F00008BF704748BF20F8022B11F0804F18BF8D
:1003000000F8012B7047704770477047754600F042
:100310002BF8AE4605006946534620F00700854697
:1003200018B020B5FFF7B6FFBDE820404FF000063B
:100330004FF000074FF000084FF0000BAC46ACE860
:10034000C009ACE8C009ACE8C009ACE8C00921F0BC
:1003500007018D46704710B50446AFF30080204674
:10036000BDE81040FFF781BF004870471000002033
:1003700001491820ABBEFEE72600020070470000CE
:1003800080B540F28000C2F2000001F097F880BD15
:1003900080B584B002900298006803F08FFE009050
:1003A0000298006803F092FE00284BD0FFE7009807
:1003B000002847D1FFE702980068806800F00D0030
:1003C000012809D1FFE70298006803F0C5FD0298F3
:1003D0000168032008600DE00299C86D40F010002C
:1003E000C8650299086E40F00100086601208DF88A
:1003F0000F002BE001F054FE0190FFE70298006827
:100400008068C007E8B1FFE701F04AFE0199401A91
:10041000032815D3FFE7029800688068C00770B111
:10042000FFE70299C86D40F01000C8650299086E98
:1004300040F00100086601208DF80F0006E0FFE79C
:10044000DCE7FFE700208DF80F00FFE79DF80F00C5
:1004500004B080BD80B584B0029000200090029866
:10046000006803F033FE002874D1FFE702980068AB
:1004700080683F21C8F2000108420ED0FFE70299D0
:10048000C86D40F01000C8650299086E40F0010088
:10049000086601208DF80F0060E00298006803F004
:1004A00075FD40F20030C5F2000003F08DFD000242
:1004B00000281CD5FFE740F20000C2F200000068EF
:1004C000800942F66351C0F23E51A0FB0110800941
:1004D00000EB40010C2000EB81000090FFE700984A
:1004E00020B1FFE7009801380090F8E7FFE701F03E
:1004F000D7FD0190FFE7029800680068C00740BB85
:10050000FFE70298006803F0E1FD28B9FFE70298D1
:10051000006803F03BFDFFE701F0C2FD0199401ABE
:10052000032815D3FFE7029800680068C00770B978
:10053000FFE70299C86D40F01000C8650299086E87
:1005400040F00100086601208DF80F0006E0FFE78B
:10055000D1E7FFE700208DF80F00FFE79DF80F00BF
:1005600004B080BDFFE7FEE77047000081B0EFF305
:10057000108072B60090FFE7FEE7000080B586B0FD
:100580000490039100200190FFE7049890F8580030
:10059000012804D1FFE702208DF817005AE00499E2
:1005A000012081F85800FFE7FFE70498FFF7F0FE0D
:1005B0008DF80B009DF80B00D8BBFFE70498C06DC9
:1005C00040F0020020F488500499C865049800683F
:1005D000039903F069FEFFE70498006803F05EFDED
:1005E000F0B1FFE701980130019001984DF60261EA
:1005F000C0F20401884212D3FFE70498C06D40F0B6
:10060000100020F002000499C865FFE7049900205B
:1006100081F85800FFE701208DF817001AE0DBE7AA
:100620000498C06D40F0010020F002000499C865F4
:1006300005E00499C86D40F01000C865FFE7FFE7CA
:100640000499002081F85800FFE79DF80B008DF811
:100650001700FFE79DF8170006B080BD81B000903D
:1006600001B0704780B5C2B02290219100208DF872
:1006700083001B901A902298406908B1FFE7FFE7BA
:100680002198C0680021C4F27F01884201D0FFE7B1
:1006900000E0FFE7FFE7229890F85800012805D115
:1006A000FFE702208DF88F0000F0B7BC22990120EF
:1006B00081F85800FFE7FFE72298406928B1FFE77B
:1006C0002198006A01282FD1FFE721984068092866
:1006D00029D1FFE72198806A68B1FFE721990A686C
:1006E000886AC96A02F0F84200F07C0040EA524091
:1006F00008431A9006E02198006800F0F840400C8A
:100700001A90FFE722980068C06C44F20001C0F222
:10071000104108401A99084322990968C8641A9838
:1007200022994866FFE747E02298806EE0B9FFE72C
:100730002198006A229988662299002048662198AB
:10074000806A58B1FFE72199086A8A6AC96A013844
:1007500002F07C02104308431A9004E02198006ADA
:1007600001381A90FFE7FFE7219908684968C0F34C
:10077000846001F01F0100FA01F11A9808431A90F1
:100780002299886E013888661A9A2299486E104319
:1007900048662298806E70B9FFE722980068C06CA6
:1007A00044F20001C0F210410840229A1168526ED2
:1007B0001043C864FFE7FFE72298006803F04CFC91
:1007C00030BBFFE7219890F8250090B9FFE7229809
:1007D0000068C06820F44010219991F8242091F815
:1007E0002610490541EA0251084322990968C86068
:1007F0000DE022980068C06820F44010219991F81B
:10080000261040EA415022990968C860FFE7FFE7D7
:100810002298006803F07AFC1D902298006803F08B
:100820001BFC1C901D98002840F00982FFE71C98D3
:10083000002840F00482FFE72198806A20B1FFE79A
:100840002198C06AA8B9FFE7219890F825000128EF
:1008500007D1FFE722980168C86840F00070C860BF
:1008600006E022980168C86820F00070C860FFE7C1
:1008700016E0219890F82500012809D1FFE7229978
:10088000C86D40F02000C86501208DF8830006E0A7
:1008900022980168C86820F00070C860FFE7FFE791
:1008A000219890F83000012810D1FFE722980068C5
:1008B000006920F4FF71219A506B926B104308433A
:1008C00040F0020022990968086106E02298016858
:1008D000086920F002000861FFE721988068B0F104
:1008E000004F0ED1FFE72298006821990968002285
:1008F00003F020FC229800684FF0004103F0C6FC92
:100900000CE022980068219A1168926803F012FCAA
:1009100022980068002103F0B9FCFFE721984069A4
:1009200022990968C96801F01801890888401F9058
:100930002198006904281CD0FFE7229800682199BB
:100940000A6809691F9B03F047FC22980068219AF6
:100950001169926903F072FC22980068219A11696A
:10096000127F013AB2FA82F25209520603F052FCA7
:1009700064E122980068002103F04EFB400348B96F
:10098000FFE722980068002103F046FBC0F3846073
:10099000199018E022980068002103F03DFB90FABE
:1009A000A0F02490249820B9FFE720208DF897002C
:1009B00005E02498B0FA80F08DF89700FFE79DF8E5
:1009C00097001990FFE71998189021980068400344
:1009D00030B9FFE721980068C0F38460179015E0F4
:1009E0002198006890FAA0F02690269820B9FFE799
:1009F00020208DF89F0005E02698B0FA80F08DF851
:100A00009F00FFE79DF89F001790FFE71898179940
:100A1000884207D1FFE7229800680022114603F0C0
:100A200021FCFFE722980068012103F0F5FA40035A
:100A300048B9FFE722980068012103F0EDFAC0F3FE
:100A40008460169018E022980068012103F0E4FA0F
:100A500090FAA0F02890289820B9FFE720208DF880
:100A6000A70005E02898B0FA80F08DF8A700FFE70E
:100A70009DF8A7001690FFE716981590219800683A
:100A8000400330B9FFE721980068C0F384601490F8
:100A900015E02198006890FAA0F02A902A9820B9D1
:100AA000FFE720208DF8AF0005E02A98B0FA80F02B
:100AB0008DF8AF00FFE79DF8AF001490FFE71598A1
:100AC0001499884207D1FFE722980068012100228B
:100AD00003F0C8FBFFE722980068022103F09CFAAC
:100AE000400348B9FFE722980068022103F094FA16
:100AF000C0F38460139018E022980068022103F08C
:100B00008BFA90FAA0F02C902C9820B9FFE72020C7
:100B10008DF8B70005E02C98B0FA80F08DF8B7009A
:100B2000FFE79DF8B7001390FFE713981290219804
:100B30000068400330B9FFE721980068C0F3846083
:100B4000119015E02198006890FAA0F02E902E9850
:100B500020B9FFE720208DF8BF0005E02E98B0FAFD
:100B600080F08DF8BF00FFE79DF8BF001190FFE710
:100B700012981199884207D1FFE722980068022154
:100B8000002203F06FFBFFE722980068032103F0C7
:100B900043FA400348B9FFE722980068032103F0B5
:100BA0003BFAC0F38460109018E02298006803219B
:100BB00003F032FA90FAA0F03E903E9820B9FFE799
:100BC00020208DF8FF0005E03E98B0FA80F08DF807
:100BD000FF00FFE79DF8FF001090FFE710980F90CF
:100BE00021980068400330B9FFE721980068C0F3FE
:100BF00084600E9015E02198006890FAA0F0409073
:100C0000409820B9FFE720208DF8070105E04098C3
:100C1000B0FA80F08DF80701FFE79DF807010E900C
:100C2000FFE70F980E99884207D1FFE722980068E6
:100C30000321002203F016FBFFE7FFE7FFE72298FE
:100C4000006803F04BFA002840F04481FFE7229847
:100C50000068219A1168D26803F088FA2198C06868
:100C60000021C4F27F01884240F03381FFE72298DF
:100C700000680D9021980068400330B9FFE7219883
:100C80000068C0F384600C9015E02198006890FA29
:100C9000A0F03C903C9820B9FFE720208DF8F700A9
:100CA00005E03C98B0FA80F08DF8F700FFE79DF87A
:100CB000F7000C90FFE70C98013000F01F000928A6
:100CC0007DD8FFE721980068400330B9FFE72198FD
:100CD0000068C0F384600B9015E02198006890FADA
:100CE000A0F03A903A9820B9FFE720208DF8EF0065
:100CF00005E03A98B0FA80F08DF8EF00FFE79DF834
:100D0000EF000B90FFE70B98013000F01F0080060A
:100D10000A9021980068400330B9FFE721980068E5
:100D2000C0F38460099015E02198006890FAA0F063
:100D30003890389820B9FFE720208DF8E70005E0CB
:100D40003898B0FA80F08DF8E700FFE79DF8E700EB
:100D50000990FFE70A980999013101F01F0201216A
:100D600091400843089021980068400330B9FFE79C
:100D700021980068C0F38460079015E0219800680E
:100D800090FAA0F03690369820B9FFE720208DF831
:100D9000DF0005E03698B0FA80F08DF8DF00FFE75D
:100DA0009DF8DF000790FFE708980799013101F0EF
:100DB0001F0101EB410140EA0150069082E02198B9
:100DC0000068400330B9FFE721980068C0F38460F1
:100DD000059015E02198006890FAA0F034903498BE
:100DE00020B9FFE720208DF8D70005E03498B0FA4D
:100DF00080F08DF8D700FFE79DF8D7000590FFE75A
:100E00000598013000F01F008006049021980068CA
:100E1000400330B9FFE721980068C0F38460039075
:100E200015E02198006890FAA0F03290329820B92D
:100E3000FFE720208DF8CF0005E03298B0FA80F06F
:100E40008DF8CF00FFE79DF8CF000390FFE70498EF
:100E50000399013101F01F020121914008430290E2
:100E600021980068400330B9FFE721980068C0F37B
:100E70008460019015E02198006890FAA0F030900D
:100E8000309820B9FFE720208DF8C70005E03098A2
:100E9000B0FA80F08DF8C700FFE79DF8C700019019
:100EA000FFE702990198013000F01F0000EB4002BB
:100EB0000020CFF6206000EB0250084340F00070A5
:100EC0000690FFE70D980699219A926803F032F98F
:100ED000FFE7FFE72198408848F20801084200F048
:100EE0009180FFE740F20030C5F2000003F074F893
:100EF0001E90219800680021CCF22131884208D050
:100F0000FFE7219800681021C9F2C001884232D160
:100F1000FFE79DF87A00000600282CD4FFE722980E
:100F20000068B0F1A04F25D1FFE71E9840F4000102
:100F300040F20030C5F2000003F040F940F200003A
:100F4000C2F200000068800942F66351C0F23E51CF
:100F5000A0FB0110800900EB4001182000EB81008C
:100F60001B90FFE71B9820B1FFE71B9801381B90EF
:100F7000F8E7FFE745E0219800680021CCF25271C4
:100F8000884219D1FFE79DF87B00C007A0B9FFE7B1
:100F90002298006840F20011C5F2000188420AD090
:100FA000FFE71E9840F0807140F20030C5F200006B
:100FB00003F004F9FFE723E0219800680021CCF654
:100FC000843188421AD1FFE79DF87A004006002854
:100FD00014D4FFE72298006840F20011C5F2000126
:100FE00088420AD0FFE71E9840F4800140F20030AA
:100FF000C5F2000003F0E2F8FFE700E0FFE7FFE7DB
:10100000FFE7FFE7FFE72299002081F85800FFE79C
:101010009DF883008DF88F00FFE79DF88F0042B0A8
:1010200080BD000080B582B00190019840F280013F
:10103000C2F20001884269D1FFE740F23910C2F2E2
:1010400000000078D0BBFFE740F28000C2F2000051
:101050000068D0F8802040F27801C2F200010868F0
:101060001044086040F27000C2F2000001680131D3
:1010700001600068282820D1FFE740F27001C2F229
:1010800000010020086040F27801C2F2000191EDF9
:10109000000AB8EE400A9FED211A80EE010A40F2E4
:1010A0007C02C2F2000282ED000A40F23913C2F261
:1010B000000301221A700860FFE726E040F280007A
:1010C000C2F200000068D0F8801040F27400C2F252
:1010D0000000016090ED000AB8EE400A40F27C008A
:1010E000C2F2000090ED001A30EE410A9FED091A9D
:1010F00080EE010A9FED081A30EE010A40F23C1022
:10110000C2F2000080ED000AFFE7FFE704F010F9EB
:1011100002B080BD0AD72342295C8F3D00002042E7
:1011200081B0009001B0704780B588B0069040F261
:101130000030C5F2000002F067FF039006980068D7
:1011400002F08AFF20B1FFE702208DF81F00E5E0E2
:1011500006980068C06800F0004004900698006897
:10116000C06C10F4C07F0CD1FFE7049848B9FFE7CA
:101170000699C86D40F02000C86501208DF81F0059
:10118000CCE0FFE7069890F85800012804D1FFE76B
:1011900002208DF81F00C1E00699012081F8580057
:1011A000FFE7FFE70698FFF755F98DF817009DF860
:1011B0001700002840F0A680FFE70698C06DC00524
:1011C000002806D5FFE70699086E20F0080008669B
:1011D00003E0069900200866FFE70698C06D40F41A
:1011E000805042F2010188430699C865069800685C
:1011F00040F20011C5F20001884204D1FFE74FF030
:10120000A040029003E0069800680290FFE7029871
:1012100006990968884203D0FFE7039830B9FFE7D1
:101220000699C86D20F48010C865FFE7069801682C
:1012300060200860FFE70699002081F85800FFE76A
:1012400006980068C0688002002807D5FFE7069866
:101250000168486840F480604860FFE7069880694C
:1012600008280DD1FFE706980168486820F02000A3
:10127000486006980168486840F0400048600CE00B
:1012800006980168486820F04000486006980168A8
:10129000486840F020004860FFE70698006840F288
:1012A0000011C5F20001884204D1FFE74FF0A040D1
:1012B000019003E0069800680190FFE70198069905
:1012C000096888420BD0FFE7039840B1FFE7039815
:1012D000062804D0FFE7039807280CD1FFE70698FB
:1012E000006802F0A9FE28B9FFE70698006802F03E
:1012F000C7FEFFE705E00699C86D40F48010C86599
:10130000FFE706E0FFE70699002081F85800FFE7B5
:10131000FFE79DF817008DF81F00FFE79DF81F00FD
:1013200008B080BD81B0009001B0704781B00090DE
:1013300001B0704780B5A4B02290219100208DF8B3
:1013400083002198006808B1FFE7FFE7FFE72298D4
:1013500090F85800012804D1FFE702208DF88F0093
:101360009FE02299012081F85800FFE7FFE7002065
:101370001B901C9022980068B0F1A04F06D1FFE7A7
:1013800040F20010C5F20000049002E0002004903A
:10139000FFE7049878B9FFE72299C86D40F0200074
:1013A000C865FFE72299002081F85800FFE7012077
:1013B0008DF88F0075E0049802F0A8FE0390229843
:1013C000006802F0A3FE002857D1FFE70398002829
:1013D00053D1FFE740F20030C5F200001F90219882
:1013E000006860B3FFE71F98806820F4604021998F
:1013F0004968229A92F8382041EA423108431F99FD
:1014000088604FF0A04002F069FE029040F20010A8
:10141000C5F2000002F062FE01460298084368B976
:10142000FFE71F98806840F61F718843219A116872
:101430009268114308431F998860FFE71CE01F99D9
:10144000886820F4604088604FF0A04002F046FEBB
:10145000019040F20010C5F2000002F03FFE01468C
:101460000198084338B9FFE71F99886840F61F7252
:1014700090438860FFE7FFE708E02299C86D40F0DD
:101480002000C86501208DF88300FFE7FFE722995F
:10149000002081F85800FFE79DF883008DF88F0049
:1014A000FFE79DF88F0024B080BD000081B0009060
:1014B00001B0704781B0009001B0704780B58EB028
:1014C0000D9000200C900D98006800680B900D980E
:1014D000006840680A9040F20030C5F2000002F057
:1014E0008BFD05909DF82C00800700281AD5FFE79A
:1014F0009DF828008007002814D5FFE70D98C06DDF
:10150000C006002806D4FFE70D99C86D40F40060BE
:10151000C865FFE70D98FFF7A1F80D980168022054
:101520000860FFE79DF82C004007002806D5FFE77C
:101530000A9800F0040004280ED0FFE79DF82C0064
:101540000007002840F19B80FFE79DF82800000776
:10155000002840F19480FFE70D98C06DC006002878
:1015600006D4FFE70D99C86D40F40070C865FFE729
:101570000D98006802F0D2FD002878D0FFE70D98A2
:10158000006840F20011C5F20001884204D1FFE773
:101590004FF0A040049003E00D9800680490FFE72E
:1015A00004980D99096888420BD0FFE7059840B16F
:1015B000FFE70598052804D0FFE70598092805D11D
:1015C000FFE70D980068C068079016E00D98006866
:1015D00040F20011C5F20001884204D1FFE74FF04C
:1015E000A040039003E00D9800680390FFE7039884
:1015F00006900698C0680790FFE7079800F400502F
:10160000B0F5005F32D0FFE70D9800680068000772
:1016100000282AD5FFE70D98006802F06FFDC0B9D9
:10162000FFE70D980168486820F00C0048600D99AC
:10163000C86D20F48070C8650D98C06DC004002886
:1016400006D4FFE70D99C86D40F00100C865FFE7BB
:101650000AE00D99C86D40F01000C8650D99086E3C
:1016600040F001000866FFE7FFE7FFE7FFE70D989E
:10167000FFF71CFF0D9801680C200860FFE79DF83C
:101680002C008006002806D5FFE70A9800F020000D
:1016900020280ED0FFE79DF82C004006002840F1DE
:1016A000B280FFE79DF828004006002840F1AB809B
:1016B000FFE70D98C06DC006002806D4FFE70D991E
:1016C000C86D40F40050C865FFE70D98006802F04F
:1016D000CBFC09900D98006802F020FD08900D9851
:1016E000006840F20011C5F20001884204D1FFE712
:1016F0004FF0A040029003E00D9800680290FFE7D1
:1017000002980D99096888420BD0FFE7059840B10F
:10171000FFE70598062804D0FFE70598072805D1BC
:10172000FFE70D980068C068079016E00D98006804
:1017300040F20011C5F20001884204D1FFE74FF0EA
:10174000A040019003E00D9800680190FFE7019828
:1017500006900698C0680790FFE7099800284AD0CD
:10176000FFE79DF81F00800700280AD5FFE70898CB
:1017700000283FD0FFE79DF81D008006002839D4DF
:10178000FFE70D98006800684006002831D5FFE7A4
:101790009DF81E00800600282AD4FFE70D980068F7
:1017A00002F052FCC0B9FFE70D980168486820F0CC
:1017B000600048600D99C86D20F48050C8650D9890
:1017C000C06DC005002806D4FFE70D99C86D40F034
:1017D0000100C865FFE70AE00D99C86D40F01000F0
:1017E000C8650D99086E40F001000866FFE7FFE745
:1017F000FFE7FFE7FFE70D98FFF714FC0D9801687E
:1018000060200860FFE79DF82C000006002813D533
:10181000FFE79DF82800000600280DD5FFE70D9989
:10182000C86D40F48030C8650D9800F029FA0D9815
:10183000016880200860FFE79DF82D00C00798B17F
:10184000FFE79DF82900C00770B1FFE70D99C86D4B
:1018500040F40030C8650D98FFF764FD0D980168ED
:101860004FF480700860FFE79DF82D008007002886
:1018700014D5FFE79DF82900800700280ED5FFE763
:101880000D99C86D40F48020C8650D98FFF74EFD96
:101890000D9801684FF400700860FFE79DF82C0078
:1018A000C00600283ED5FFE79DF82800C0060028A6
:1018B00038D5FFE70D98C06B18B9FFE701200C90F1
:1018C00019E0059860B1FFE740F20030C5F2000072
:1018D00002F08AFB18B1FFE701200C90FFE709E056
:1018E0000D980068C068C00718B1FFE701200C9090
:1018F000FFE7FFE7FFE70C9801280ED1FFE70D99FE
:10190000C86D40F48060C8650D99086E40F0020013
:1019100008660D98FFF7CEFDFFE70D9801681020CF
:101920000860FFE79DF82D004007002819D5FFE764
:101930009DF829004007002813D5FFE70D99C86DD1
:1019400040F48040C8650D99086E40F008000866B4
:101950000D9801684FF4806008600D98FFF7E0FB78
:10196000FFE70EB080BD000080B588B00690002073
:101970008DF817000190069820B9FFE701208DF837
:101980001F0079E10698406940B1FFE7069890F89A
:101990002400012801D1FFE7FFE7FFE70698C06DAB
:1019A00050B9FFE7069800F06FF906990020086625
:1019B000069981F85800FFE70698006802F076FB68
:1019C00028B1FFE70698006802F0D4FAFFE706980E
:1019D000006802F08BFBF0B9FFE70698006802F0A0
:1019E000E3FA40F20000C2F200000068800942F60B
:1019F0006351C0F23E51A0FB01108109022000EBAF
:101A000041000190FFE7019820B1FFE701980138FC
:101A10000190F8E7FFE70698006802F067FB70B9ED
:101A2000FFE70699C86D40F01000C8650699086E7A
:101A300040F00100086601208DF81700FFE70698C6
:101A4000006802F05BFB03900698C06DC00600289A
:101A500000F10481FFE70398002840F0FF80FFE7D2
:101A60000698C06D40F0020020F480700699C865A9
:101A70000698006802F02AFBD0B9FFE74FF0A040BB
:101A800002F024FB009040F20010C5F2000002F0CA
:101A90001DFB01460098084348B9FFE706984168D6
:101AA00040F20030C5F2000002F07AFBFFE7FFE7EA
:101AB00006994A7FC86B40EA42308A68CB6818436F
:101AC000104391F8241040EA01400490069890F8E1
:101AD000240001280BD1FFE70698816A0020CFF689
:101AE000FE7000EB4141049808430490FFE706981C
:101AF000C06A50B1FFE70699C86A096B00F47870B4
:101B00000143049808430490FFE706980068C06802
:101B100044F20701CFF6F071084004990843069992
:101B20000968C86006980068006920F04060069A5D
:101B30001168526B104308610698006802F084FA3D
:101B400002900398002868D1FFE70298002864D12A
:101B5000FFE70699087F91F83810800340EA4100BA
:101B6000049006980068C06844F202018843049912
:101B7000084306990968C86006980069A0B1FFE7A4
:101B800006980168086940F480300861069800688A
:101B9000D0F8C00043F6FF718843069A11681269B5
:101BA0001043C1F8C00011E006980168086920F4EC
:101BB0008030086106980068D0F8C00043F6FF71D5
:101BC000884306990968C1F8C000FFE7069890F8B5
:101BD0004000012819D1FFE706980068006940F22B
:101BE000FD7120EA0102069B1968586CD3F848E0A1
:101BF000D3F84CC040EA0E0040EA0C001B6D1843BD
:101C0000104340F00100086106E006980168086989
:101C100020F001000861FFE7FFE70698406901280E
:101C20000CD1FFE706980068006B20F00F00069AC1
:101C30001168126A013A1043086306E006980168C9
:101C4000086B20F00F000863FFE70698C06D40F0B6
:101C5000010020F002000699C86508E00699C86DE9
:101C600040F01000C86501208DF81700FFE79DF8CF
:101C700017008DF81F00FFE79DF81F0008B080BD1A
:101C800081B0009001B0704780B59CB01B900020DF
:101C90001A90199018901790169005A84421FEF7F5
:101CA0000BFB1B980068B0F1A04F42D1FFE74FF447
:101CB000004005904FF00050149005A800F092FBF2
:101CC00018B1FFE7FEF752FCFFE7FFE741F24C00D7
:101CD000C4F20200016841F400510160006800F4A0
:101CE000005004900498FFE7FFE741F24C00C4F273
:101CF0000200016841F001010160006800F001008C
:101D000003900398FFE7012016900320179000200E
:101D1000019018904FF0904016A900F00DF8019A2C
:101D200012200290114600F059FA029800F04CFA85
:101D3000FFE71CB080BD00008BB00A900991002025
:101D40000890FFE7099800680899C840002800F04B
:101D5000A581FFE709980068089A01219140084091
:101D600007900798002800F09581FFE709984068E0
:101D700000F00300012807D0FFE70998406800F051
:101D8000030002282FD1FFE70A9880680690089880
:101D90004100032000FA01F1069888430690099853
:101DA000C0680899490000FA01F1069808430690B6
:101DB00006980A9988600A98406806900899012058
:101DC00000FA01F106988843069009984068C0F32C
:101DD0000010089900FA01F1069808430690069849
:101DE0000A994860FFE70998406800F0030003285B
:101DF00018D0FFE70A98C0680690089841000320B1
:101E000000FA01F1069888430690099880680899BD
:101E1000490000FA01F106980843069006980A99CD
:101E2000C860FFE70998406800F00300022826D147
:101E3000FFE70A9808996FF0030202EA510108448B
:101E4000006A0690089800F0070081000F2000FA51
:101E500001F106988843069009980069089901F0F5
:101E60000701890000FA01F10698084306900698D8
:101E70000A99089B02EA530211440862FFE70A9894
:101E80000068069008984100032000FA01F10698C6
:101E9000884306900998406800F0030008994900BB
:101EA00000FA01F106980843069006980A9908601E
:101EB000099880798007002800F0EB80FFE7FFE7B2
:101EC00041F26000C4F20200016841F001010160CA
:101ED000006800F0010005900598FFE7089820F0E1
:101EE00003000821C4F2010140580690089800F050
:101EF000030081000F2000FA01F106988843069044
:101F00000A98B0F1904F03D1FFE70020049042E01F
:101F10000A9840F20041C4F60001884203D1FFE76D
:101F20000120039034E00A9840F60001C4F6000155
:101F3000884203D1FFE70220029026E00A9840F68B
:101F40000041C4F60001884203D1FFE7032001905D
:101F500018E00A9841F20001C4F60001884203D15A
:101F6000FFE7042000900AE00A9941F20042C4F61B
:101F700000020620914208BF05200090FFE700986C
:101F80000190FFE701980290FFE702980390FFE7B6
:101F900003980490FFE70498089901F00301890071
:101FA00000FA01F10698084306900698089921F076
:101FB00003010822C4F20102885040F20840C4F232
:101FC00001000068069007990698884306900998D2
:101FD0008079C006002805D5FFE7079906980843D1
:101FE0000690FFE7069840F20841C4F2010108603C
:101FF00040F20C40C4F20100006806900799069870
:1020000088430690099880798006002805D5FFE767
:102010000799069808430690FFE7069840F20C419E
:10202000C4F20101086040F20440C4F201000068FB
:10203000069007990698884306900998807980074A
:10204000002805D5FFE70799069808430690FFE7A3
:10205000069840F20441C4F20101086040F20040D9
:10206000C4F201000068069007990698884306901C
:1020700009988079C00728B1FFE7079906980843B7
:102080000690FFE7069840F20041C4F201010860A3
:10209000FFE7FFE708980130089053E60BB0704760
:1020A00040F27010C2F200000068704740F2080071
:1020B000C2F20000026840F27011C2F2000108682A
:1020C000104408607047000080B582B000208DF891
:1020D0000700032000F09AF80F2000F00DF820B15F
:1020E000FFE701208DF8070002E000F049F8FFE764
:1020F0009DF8070002B080BD80B582B0019000203D
:102100008DF8030040F20800C2F20000006878B3C6
:10211000FFE740F20000C2F20000006840F2080150
:10212000C2F200010A684FF47A71B1FBF2F1B0FB20
:10213000F1F001F073F9B0B9FFE701980F280DD85D
:10214000FFE701994FF0FF30002200F047F80198B7
:1021500040F20C01C2F20001086003E001208DF89A
:102160000300FFE703E001208DF80300FFE703E031
:1021700001208DF80300FFE79DF8030002B080BD49
:1021800080B582B0FFE741F26000C4F2020001684E
:1021900041F001010160006800F001000190019828
:1021A000FFE7FFE741F25800C4F20200016841F086
:1021B00080510160006800F0805000900098FFE7B7
:1021C00000F006F902B080BD80B582B08DF807003E
:1021D0009DF9070003F04CF802B080BD80B586B0D1
:1021E0008DF817000491039203F05AF802909DF9BC
:1021F0001700019002980499039A02F09FF9014692
:10220000019803F055F806B080BD000080B582B09B
:102210000190019803F06EF802B080BD85B0039084
:10222000039800285ED1FFE747F20000C4F20000E7
:10223000006800F4C060B0F5806F49D1FFE747F255
:102240008001C4F20001086820F48070086047F241
:102250000002C4F200021168012060F34A211160FB
:1022600040F20001C2F200010968322251434DF6EA
:102270008362C4F21B32A1FB022100EB9140029069
:10228000FFE747F21400C4F200000168002049058E
:102290000029019006D5FFE70298002818BF012009
:1022A0000190FFE70198C00720B1FFE702980138CD
:1022B0000290E6E747F21400C4F20000006840050F
:1022C000002804D5FFE703208DF813007CE008E028
:1022D00047F28001C4F20001086820F480700860B1
:1022E000FFE76DE00398B0F5007F5ED1FFE747F2AE
:1022F0000000C4F20000006800F4C060B0F5806F18
:1023000049D1FFE747F28001C4F20001086840F4B8
:102310008070086047F20002C4F2000211680120D8
:1023200060F34A21116040F20001C2F20001096825
:10233000322251434DF68362C4F21B32A1FB0221CB
:1023400000EB91400290FFE747F21400C4F2000056
:102350000168002049050029009006D5FFE7029892
:10236000002818BF01200090FFE70098C00720B1A7
:10237000FFE7029801380290E6E747F21400C4F242
:10238000000000684005002804D5FFE703208DF811
:10239000130019E008E047F28001C4F20001086868
:1023A00040F480700860FFE709E047F20001C4F2E2
:1023B00000010868022262F34A200860FFE7FFE795
:1023C00000208DF81300FFE79DF8130005B070475B
:1023D00047F20801C4F20001086840F48040086038
:1023E0007047000080B586B0059000208DF80B0086
:1023F0008DF80A00059880780007002840F1B58024
:10240000FFE700208DF8090041F25800C4F20200F5
:102410000068C000002813D4FFE7FFE741F258002E
:10242000C4F20200016841F080510160006800F0D0
:10243000805001900198FFE701208DF80900FFE727
:1024400047F20001C4F20001086840F4807008609F
:10245000FFF726FE0390FFE747F20000C4F20000FA
:102460000068C00500280CD4FFE7FFF719FE0399A8
:10247000401A032804D3FFE703208DF80B0000E087
:10248000EAE79DF80B0000285BD1FFE741F29000DE
:10249000C4F20200006800F4407004900498C8B1CF
:1024A000FFE704980599096C884213D0FFE741F2D1
:1024B0009001C4F20201086820F44070049008689A
:1024C00040F480300860086820F480300860049888
:1024D0000860FFE79DF81000C007E0B1FFE7FFF7D5
:1024E000DFFD0390FFE741F29000C4F202000068B4
:1024F000800700280ED4FFE7FFF7D2FD0399401AAA
:1025000041F28931884204D3FFE703208DF80B00A4
:1025100000E0E8E7FFE79DF80B0060B9FFE741F254
:102520009001C4F20201086820F44070059A126C10
:102530001043086004E09DF80B008DF80A00FFE7E7
:1025400004E09DF80B008DF80A00FFE79DF80900F4
:10255000012809D1FFE741F25801C4F202010868DD
:1025600020F080500860FFE7FFE705980078C0077B
:1025700060B1FFE741F28801C4F20201086820F06F
:102580000300059A526810430860FFE70598007839
:10259000800700280CD5FFE741F28801C4F2020150
:1025A000086820F00C00059A926810430860FFE765
:1025B00005980078400700280CD5FFE741F2880114
:1025C000C4F20201086820F03000059AD268104376
:1025D0000860FFE705980078000700280CD5FFE7A2
:1025E00041F28801C4F20201086820F0C000059A97
:1025F000126910430860FFE70598007880060028FC
:102600000CD5FFE741F28801C4F20201086820F40A
:102610004060059A526910430860FFE7059800780A
:10262000400600280CD5FFE741F28801C4F2020100
:10263000086820F44050059A926910430860FFE74B
:1026400005980078000600280CD5FFE741F28801C4
:10265000C4F20201086820F44040059AD269104390
:102660000860FFE705984078C00760B1FFE741F2D6
:102670008801C4F20201086820F44030059A126A09
:1026800010430860FFE705984078800700280CD5C4
:10269000FFE741F28801C4F20201086820F44020FB
:1026A000059A526A10430860FFE705984078400792
:1026B00000281BD5FFE741F28801C4F20201086837
:1026C00020F44010059A926A104308600598806AC9
:1026D000B0F5801F09D1FFE741F20C01C4F20201FD
:1026E000086840F480100860FFE7FFE7059840782D
:1026F000000700281BD5FFE741F28801C4F2020160
:10270000086820F44000059AD26A104308600598D2
:10271000C06AB0F5800F09D1FFE741F20C01C4F2A5
:102720000201086840F480100860FFE7FFE70598A1
:102730004078C00600281BD5FFE741F28801C4F2AB
:102740000201086820F04070059A126B104308607F
:102750000598006BB0F1807F09D1FFE741F20C01D1
:10276000C4F20201086840F480100860FFE7FFE748
:1027700005984078800600281BD5FFE741F28801C4
:10278000C4F20201086820F04060059A526B1043C1
:1027900008600598406BB0F1006F09D1FFE741F286
:1027A0000C01C4F20201086840F480100860FFE7E1
:1027B000FFE705984078400600281BD5FFE741F267
:1027C0008801C4F20201086820F04060059A926B0B
:1027D000104308600598806BB0F1006F09D1FFE7E6
:1027E00041F20C01C4F20201086840F48010086054
:1027F000FFE7FFE705984078000600281BD5FFE7B4
:1028000041F28801C4F20201086820F04050059AA4
:10281000D26B104308600598C06BB0F1805F09D19E
:10282000FFE741F20C01C4F20201086840F4803075
:102830000860FFE7FFE79DF80A0006B080BD0000D2
:1028400080B586B00490039100200090049820B9D0
:10285000FFE701208DF8170081E1039842F20001A3
:10286000C4F20201096801F00F01884216D9FFE79E
:1028700042F20000C4F20200016821F00F01039A45
:1028800011430160006800F00F000399884204D0F2
:10289000FFE701208DF8170061E1FFE70498007859
:1028A000C007002800F0A380FFE7049840680328D1
:1028B00039D1FFE741F20000C4F202000068800154
:1028C000002804D4FFE701208DF8170047E101F04C
:1028D000F9FE019001984BF20141C0F2C4418842D7
:1028E00020D3FFE741F20800C4F20200006810F0B4
:1028F000F00F0AD0FFE7049800788007002810D571
:10290000FFE70498806860B9FFE741F20801C4F26C
:1029100002010868082262F3071008608020009016
:10292000FFE7FFE738E00498406802280ED1FFE790
:1029300041F20000C4F2020000688003002804D4C1
:10294000FFE701208DF8170009E10DE041F20000DA
:10295000C4F2020000684005002804D4FFE701200B
:102960008DF81700FBE0FFE700F0FEF801900198FA
:102970004BF20141C0F2C44188420CD3FFE741F25F
:102980000801C4F202010868082262F30710086017
:1029900080200090FFE7FFE741F20801C4F2020146
:1029A000086820F00300049A526810430860FFF79B
:1029B00077FB0290FFE741F20800C4F202000068D2
:1029C00000F00C0004994968B0EB810F0ED0FFE7CE
:1029D000FFF766FB0299401A41F28931884204D31D
:1029E000FFE703208DF81700B9E0E4E7FFE704985C
:1029F0000078800700282CD5FFE70498007840076E
:102A0000002809D5FFE741F20801C4F20201086875
:102A100040F4E0600860FFE70498007800070028B1
:102A20000BD5FFE741F20801C4F20201086840F447
:102A3000E06020F460500860FFE741F20801C4F252
:102A40000201086820F0F000049A926810430860C0
:102A50000DE00098802809D1FFE741F20801C4F297
:102A60000201086820F0F0000860FFE7FFE7039824
:102A700042F20001C4F20201096801F00F0188422C
:102A800028D2FFE742F20001C4F20201086820F0F8
:102A90000F00039A10430860FFF702FB0290FFE764
:102AA00042F20000C4F20200006800F00F00039937
:102AB00088420ED0FFE7FFF7F3FA0299401A41F27D
:102AC0008931884204D3FFE703208DF8170046E0E0
:102AD000E6E7FFE704980078400700280CD5FFE7F9
:102AE00041F20801C4F20201086820F4E060049A8F
:102AF000D26810430860FFE70498007800070028B8
:102B00000DD5FFE741F20801C4F20201086820F484
:102B10006050049A126940EAC2000860FFE700F0C2
:102B200023F841F20801C4F202010968C9B20A0996
:102B300045F25841C0F60001895C01F01F01C84010
:102B400040F20001C2F20001086040F20C00C2F243
:102B500000000068FFF7D0FA8DF81700FFE79DF836
:102B6000170006B080BD000086B041F20800C4F234
:102B70000200006800F00C00042806D1FFE742F2D2
:102B80000040C0F2F400019069E041F20800C4F294
:102B90000200006800F00C00082806D1FFE741F6AB
:102BA0000030C0F2B700019058E041F20800C4F2D2
:102BB0000200006800F00C000C284BD1FFE741F246
:102BC0000C00C4F20200016801F0030104910068E6
:102BD000C1B2012000EB111002900498009002286D
:102BE00015D0FFE70098032812D1FFE7029941F6BC
:102BF0000030C0F2B700B0FBF1F041F20C01C4F2BA
:102C000002010968C1F306214843059011E0FFE77E
:102C1000029942F20040C0F2F400B0FBF1F041F240
:102C20000C01C4F202010968C1F306214843059072
:102C3000FFE741F20C00C4F20200006800F0C0613E
:102C4000022000EB1160039005980399B0FBF1F0AE
:102C5000019002E000200190FFE7FFE7FFE7019805
:102C600006B07047B0B588B00690069820B9FFE767
:102C700001208DF81F00CCE306980078C0070028DB
:102C800000F09B80FFE741F20800C4F202000068F8
:102C900000F00C00049041F20C00C4F20200006845
:102CA00000F00300039004980C2804D1FFE7039878
:102CB000032804D0FFE70498082812D1FFE741F267
:102CC0000000C4F2020000688003002808D5FFE776
:102CD0000698406820B9FFE701208DF81F0098E3AF
:102CE0006AE0FFE706984068B0F5803F09D1FFE74A
:102CF00041F20001C4F20201086840F4803008602B
:102D000020E006984068B0F5A02F0DD1FFE741F212
:102D10000001C4F20201086840F4802008600868DD
:102D200040F4803008600CE041F20001C4F202017E
:102D3000086820F480300860086820F4802008606B
:102D4000FFE7FFE7FFE706984068D0B1FFE7FFF72E
:102D5000A7F90590FFE741F20000C4F20200006805
:102D6000800300280CD4FFE7FFF79AF90599401A71
:102D7000652804D3FFE703208DF81F0049E3EAE745
:102D800019E0FFF78DF90590FFE741F20000C4F26A
:102D900002000068800300280CD5FFE7FFF780F9E8
:102DA0000599401A652804D3FFE703208DF81F001A
:102DB0002FE3EAE7FFE7FFE7FFE7069800788007E1
:102DC000002840F19F80FFE741F20800C4F20200B2
:102DD000006800F00C00049041F20C00C4F2020004
:102DE000006800F00300039004980C2804D1FFE76A
:102DF0000398022804D0FFE7049804282CD1FFE7A9
:102E000041F20000C4F2020000684005002808D525
:102E1000FFE70698C06820B9FFE701208DF81F0082
:102E2000F7E241F20401C4F20201086820F0FE401A
:102E3000069A126940EA0260086040F20C00C2F291
:102E400000000068FFF758F920B1FFE701208DF876
:102E50001F00DEE2FFE754E00698C06870B3FFE7AA
:102E600041F20001C4F20201086840F48070086079
:102E7000FFF716F90590FFE741F20000C4F20200E7
:102E80000068400500280CD4FFE7FFF709F9059911
:102E9000401A032804D3FFE703208DF81F00B8E28F
:102EA000EAE741F20401C4F20201086820F0FE40A2
:102EB000069A126940EA0260086021E041F20001CE
:102EC000C4F20201086820F480700860FFF7E8F897
:102ED0000590FFE741F20000C4F2020000684005DF
:102EE00000280CD5FFE7FFF7DBF80599401A032807
:102EF00004D3FFE703208DF81F008AE2EAE7FFE72B
:102F0000FFE7FFE7069800780007002849D5FFE7AC
:102F10000698406910B3FFE741F29401C4F2020140
:102F2000086840F001000860FFF7BAF80590FFE775
:102F300041F29400C4F202000068800700280CD41B
:102F4000FFE7FFF7ADF80599401A032804D3FFE720
:102F500003208DF81F005CE2EAE721E041F29401D2
:102F6000C4F20201086820F001000860FFF798F839
:102F70000590FFE741F29400C4F202000068800768
:102F800000280CD5FFE7FFF78BF80599401A0328B6
:102F900004D3FFE703208DF81F003AE2EAE7FFE7DA
:102FA000FFE7069800784007002840F1C680FFE759
:102FB00000208DF80B0041F25800C4F202000068B6
:102FC000C000002813D4FFE7FFE741F25800C4F225
:102FD0000200016841F080510160006800F08050FB
:102FE00001900198FFE701208DF80B00FFE747F201
:102FF0000000C4F200000068C005002822D4FFE7EA
:1030000047F20001C4F20001086840F480700860D3
:10301000FFF746F80590FFE747F20000C4F2000012
:103020000068C00500280CD4FFE7FFF739F80599C0
:10303000401A032804D3FFE703208DF81F00E8E1BE
:10304000EAE7FFE7FFE706988068012809D1FFE774
:1030500041F29001C4F20201086840F001000860EA
:103060001FE00698806805280DD1FFE741F2900126
:10307000C4F20201086840F004000860086840F0EB
:10308000010008600CE041F29001C4F202010868FE
:1030900020F001000860086820F004000860FFE7E5
:1030A000FFE7FFE706988068E0B1FFE7FEF7F8FF6B
:1030B0000590FFE741F29000C4F20200006880072B
:1030C00000280ED4FFE7FEF7EBFF0599401A41F206
:1030D0008931884204D3FFE703208DF81F0098E16F
:1030E000E8E71BE0FEF7DCFF0590FFE741F2900008
:1030F000C4F202000068800700280ED5FFE7FEF743
:10310000CFFF0599401A41F28931884204D3FFE785
:1031100003208DF81F007CE1E8E7FFE79DF80B0036
:10312000012809D1FFE741F25801C4F20201086801
:1031300020F080500860FFE7FFE7069800788006DF
:10314000002849D5FFE70698806910B3FFE741F2F0
:103150009801C4F20201086840F001000860FEF71F
:103160009FFF0590FFE741F29800C4F2020000685B
:10317000800700280CD4FFE7FEF792FF0599401A5C
:10318000032804D3FFE703208DF81F0041E1EAE79D
:1031900021E041F29801C4F20201086820F0010028
:1031A0000860FEF77DFF0590FFE741F29800C4F24A
:1031B00002000068800700280CD5FFE7FEF770FFCB
:1031C0000599401A032804D3FFE703208DF81F0058
:1031D0001FE1EAE7FFE7FFE70698C069002800F073
:1031E0001481FFE741F20800C4F20200006800F019
:1031F0000C000C2800F0B080FFE70698C069022898
:103200007CD1FFE741F20001C4F20201086820F01E
:1032100080700860FEF744FF0590FFE741F2000070
:10322000C4F202000068800100280CD5FFE7FEF719
:1032300037FF0599401A032804D3FFE703208DF8D0
:103240001F00E6E0EAE741F20C01C4F2020108685F
:1032500048F20C02C0F29F121040DDF818C0DCF8F2
:103260002020DCF82450DCF828E0DCF82C306FF06B
:103270000F0404EB0514224342EA0E22DCF830402E
:1032800040F2000ECFF6E07E0EEA045EAEF5001EC0
:1032900042EA0E02DCF834E04FF07E4C0CEA0E6C91
:1032A0000CF17E4C42EA0C0242EAC3621043086011
:1032B00041F20002C4F20202106840F08070106017
:1032C000086840F080700860FEF7EAFE0590FFE7AE
:1032D00041F20000C4F202000068800100280CD412
:1032E000FFE7FEF7DDFE0599401A032804D3FFE748
:1032F00003208DF81F008CE0EAE72CE041F200018A
:10330000C4F20201086820F080700860FEF7C8FE71
:103310000590FFE741F20000C4F20200006880015E
:1033200000280CD5FFE7FEF7BBFE0599401A0328DD
:1033300004D3FFE703208DF81F006AE0EAE741F2BB
:103340000C01C4F2020108684FF6FC72CFF6EE627F
:1033500010400860FFE757E00698C069012804D1D3
:10336000FFE701208DF81F0053E041F20C00C4F28A
:10337000020000680390039800F003000699096AB0
:1033800088423BD1FFE7039800F0F00006994A6AB3
:103390006FF00F0101EB021188422FD1FFE7039874
:1033A00000F4FE400699896AB0EB012F26D1FFE7B1
:1033B000039800F078400699C96AB0EBC16F1DD13F
:1033C000FFE7039800F4C00006990A6B0021CFF6CE
:1033D000E07101EA0251A1F5001188420ED1FFE728
:1033E000039800F0C06006994A6B4FF07E4101EAF5
:1033F000026101F17E41884204D0FFE701208DF88F
:103400001F0006E0FFE7FFE7FFE700208DF81F0041
:10341000FFE79DF81F0008B0B0BD000080B582B086
:103420000190019801F09EF902B080BD84B0029035
:10343000019100200090FFE7029890F83C000128DD
:1034400004D1FFE702208DF80F0083E002990120EC
:1034500081F83C00FFE7FFE7009820F0FF000199AA
:10346000C96808430090009820F440700199896869
:1034700008430090009820F480600199496808434F
:103480000090009820F400600199096808430090BA
:10349000009820F480500199096908430090009831
:1034A00020F400500199496908430090009820F4E5
:1034B00080400199096B08430090009820F4702027
:1034C0000199896940EA01400090009820F08050FD
:1034D0000199C969084300900298006842F60041CA
:1034E000C4F20101884209D0FFE70298006843F264
:1034F0000041C4F2010188421ED1FFE7009820F488
:1035000070000199896A40EA01500090009820F00B
:1035100080700199096A08430090009820F00070BB
:103520000199496A08430090009820F000500199E1
:10353000C96A08430090FFE7009802990968486447
:10354000FFE70299002081F83C00FFE700208DF89A
:103550000F00FFE79DF80F0004B0704785B003909F
:103560000291FFE7039890F83C00012804D1FFE79F
:1035700002208DF813008CE00399012081F83C00B3
:10358000FFE7FFE70399022081F83D0003980068F8
:103590004068019003980068806800900398006874
:1035A00042F60041C4F20101884209D0FFE70398C6
:1035B000006843F20041C4F2010188420AD1FFE7EA
:1035C000019820F470000190029841680198084326
:1035D0000190FFE701984FF68F71CFF6FF51084039
:1035E000019002980168019808430190019803999D
:1035F000096848600398006842F60041C4F201017E
:1036000088422AD0FFE703980068B0F1804F24D0A9
:10361000FFE70398006840F20041C4F200018842CD
:103620001BD0FFE70398006840F60001C4F20001D8
:10363000884212D0FFE70398006843F20041C4F2C9
:103640000101884209D0FFE70398006844F20001B5
:10365000C4F2010188420ED1FFE7009820F08000FB
:1036600000900298816800980843009000980399A0
:1036700009688860FFE70399012081F83D00FFE7B2
:103680000399002081F83C00FFE700208DF813002B
:10369000FFE79DF8130005B07047000080B582B0C9
:1036A0000090009820B9FFE701208DF8070045E061
:1036B000009890F83D0040B9FFE70099002081F89C
:1036C0003C00009800F03EF8FFE70099022081F8E6
:1036D0003D00009951F8040B01F0B6F80099012063
:1036E00081F84800FFE70099012081F83E00009929
:1036F00081F83F00009981F84000009981F841006D
:10370000009981F84200009981F84300FFE7FFE744
:103710000099012081F84400009981F84500009942
:1037200081F84600009981F84700FFE700990120E1
:1037300081F83D0000208DF80700FFE79DF80700A5
:1037400002B080BD82B001900198006842F600414D
:10375000C4F20101884210D1FFE7FFE741F26000A7
:10376000C4F20200016841F400610160006800F4E5
:10377000006000900098FFE7FFE702B0704700008C
:1037800083B00190019890F83D00012804D0FFE734
:1037900001208DF80B005AE00199022081F83D00CC
:1037A0000198006842F60041C4F2010188422AD023
:1037B000FFE701980068B0F1804F24D0FFE701983F
:1037C000006840F20041C4F2000188421BD0FFE7CC
:1037D0000198006840F60001C4F20001884212D04E
:1037E000FFE70198006843F20041C4F201018842FA
:1037F00009D0FFE70198006844F20001C4F201011A
:10380000884219D1FFE70198006880680721C0F25B
:10381000010108400090009806280CD0FFE70098AE
:10382000B0F5803F07D0FFE701980168086840F0D5
:1038300001000860FFE706E001980168086840F0B1
:1038400001000860FFE700208DF80B00FFE79DF8FE
:103850000B0003B07047000080B586B00490039160
:1038600000208DF80B00FFE7049890F83C00012839
:1038700004D1FFE702208DF81700D3E0049901205E
:1038800081F83C00FFE7FFE70499022081F83D0042
:10389000049800688068019001984FF68871CFF60F
:1038A000CE7108400190019820F47F40019001986A
:1038B000049909688860039800680090002800F067
:1038C0009780FFE70098102800F09280FFE70098AB
:1038D000202800F08D80FFE70098302800F08880D5
:1038E000FFE70098402876D0FFE70098502858D08E
:1038F000FFE70098602861D0FFE7009870282CD07F
:10390000FFE70098B0F5805F26D0FFE70098B0F59C
:10391000005F37D0FFE70098B0F1101F68D0FFE7D5
:1039200000982021C0F21001884261D0FFE7009882
:103930003021C0F2100188425AD0FFE700984021A0
:10394000C0F21001884253D0FFE700987021C0F206
:10395000100188424CD052E055E004980068039B67
:103960005A689968DB6801F057F804980068806825
:103970000190019840F0770001900198049909683E
:10398000886040E004980068039B5A689968DB6887
:1039900001F042F804980168886840F4804088602B
:1039A00031E004980068039A5168D26801F00CFC79
:1039B00004980068502101F049F824E00498006858
:1039C000039A5168D26801F027FC049800686021CE
:1039D00001F03CF817E004980068039A5168D26837
:1039E00001F0F2FB04980068402101F02FF80AE092
:1039F000049800680399096801F028F803E00120A1
:103A00008DF80B00FFE70499012081F83D00FFE7E6
:103A10000499002081F83C00FFE79DF80B008DF829
:103A20001700FFE79DF8170006B080BD80B588B08D
:103A3000079000200690059004900390029007984C
:103A4000006842F60041C4F2010188421FD1FFE73D
:103A5000FFE741F24C00C4F20200016841F00401AA
:103A60000160006800F0040001900198FFE7012068
:103A7000029002200390002104910591069040F6E7
:103A80000000C4F6000002A9FEF756F9FFE708B0EF
:103A900080BD000080B586B00490039102920020A2
:103AA0008DF80700FFE7049890F83C00012804D146
:103AB000FFE702208DF81700C0E00499012081F88B
:103AC0003C00FFE7FFE702980090142800F2A7806F
:103AD0000099DFE801F00BA4A4A424A4A4A43EA4AC
:103AE000A4A457A4A4A471A4A4A48A000498006860
:103AF000039900F0C3FF04980168886940F008004A
:103B0000886104980168886920F00400886103983E
:103B100002690498016888691043886183E0049809
:103B20000068039901F054F804980168886940F42A
:103B30000060886104980168886920F48060886169
:103B40000398026904980168886940EA0220886144
:103B500069E004980068039901F0F2F8049801689C
:103B6000C86940F00800C86104980168C86920F07D
:103B70000400C8610398026904980168C869104389
:103B8000C86150E004980068039901F091F9049825
:103B90000168C86940F40060C86104980168C86998
:103BA00020F48060C8610398026904980168C869BC
:103BB00040EA0220C86136E004980068039901F0E9
:103BC0002FFA04980168086D40F008000865049811
:103BD0000168086D20F004000865039802690498E4
:103BE0000168086D104308651DE00498006803999A
:103BF00001F080FA04980168086D40F400600865DF
:103C000004980168086D20F48060086503980269D3
:103C100004980168086D40EA0220086503E001206D
:103C20008DF80700FFE7FFE70499002081F83C00CA
:103C3000FFE79DF807008DF81700FFE79DF81700D4
:103C400006B080BD80B582B00090009820B9FFE733
:103C500001208DF8070045E0009890F83D0040B93C
:103C6000FFE70099002081F83C00009800F03EF842
:103C7000FFE70099022081F83D00009951F8040BFC
:103C800000F0E2FD0099012081F84800FFE700996B
:103C9000012081F83E00009981F83F00009981F8E9
:103CA0004000009981F84100009981F84200009994
:103CB00081F84300FFE7FFE70099012081F8440005
:103CC000009981F84500009981F84600009981F833
:103CD0004700FFE70099012081F83D0000208DF8A2
:103CE0000700FFE79DF8070002B080BD81B000909B
:103CF00001B0704780B590B00E900D910D9828B925
:103D0000FFE70E9890F83E000B9034E00D980428E1
:103D100005D1FFE70E9890F83F000A9028E00D9833
:103D2000082805D1FFE70E9890F8400009901CE0A4
:103D30000D980C2805D1FFE70E9890F841000890E7
:103D400010E00D98102805D1FFE70E9890F842007A
:103D5000079004E00E9890F843000790FFE707985B
:103D60000890FFE708980990FFE709980A90FFE795
:103D70000A980B90FFE70B98012804D0FFE7012079
:103D80008DF83F00E1E00D9828B9FFE70E99022079
:103D900081F83E0038E00D98042806D1FFE70E991F
:103DA000022081F83F0006902CE00D98082806D1EB
:103DB000FFE70E99022081F8400005901FE00D9862
:103DC0000C2806D1FFE70E99022081F841000490EB
:103DD00012E00D98102806D1FFE70E99022081F815
:103DE0004200039005E00E99022081F84300039001
:103DF000FFE703980490FFE704980590FFE7059814
:103E00000690FFE70698FFE70E9800680D990122DB
:103E1000019200F0E5FD01980E99096842F6004212
:103E2000C4F20102914202902DD0FFE70E98016882
:103E3000012043F20042C4F201029142029022D0DA
:103E4000FFE70E980168012044F20002C4F201026B
:103E50009142029017D0FFE70E980168012044F2CA
:103E60000042C4F20102914202900CD0FFE70E988A
:103E700000684BF60001CBF6FE710844B0FA80F002
:103E800040090290FFE70298C00738B1FFE70E989B
:103E90000168486C40F400404864FFE70E980068F1
:103EA00042F60041C4F2010188422AD0FFE70E9891
:103EB0000068B0F1804F24D0FFE70E98006840F210
:103EC0000041C4F2000188421BD0FFE70E98006851
:103ED00040F60001C4F20001884212D0FFE70E98BC
:103EE000006843F20041C4F20101884209D0FFE7B3
:103EF0000E98006844F20001C4F20101884219D111
:103F0000FFE70E98006880680721C0F201010840B1
:103F10000C900C9806280CD0FFE70C98B0F5803F69
:103F200007D0FFE70E980168086840F001000860BC
:103F3000FFE706E00E980168086840F0010008609D
:103F4000FFE700208DF83F00FFE79DF83F0010B02D
:103F500080BD0000FFE7FEE781B000900098806818
:103F60004FF6C071C7F6FF710840023000998860B3
:103F700001B0704781B00090009988684FF6C07218
:103F8000C5F6FF721040886001B0704781B00090A4
:103F9000009880684FF6C071C7F6FF710840013085
:103FA0000099886001B0704781B0009000988068E7
:103FB00040F080504FF6C071C7F6FF71084000997D
:103FC000886001B07047000081B000900098806860
:103FD00000F0E07001B0704781B0009000988068F8
:103FE00000F0E07001B0704781B0009000988068E8
:103FF00000F4604001B0704781B000900098806884
:1040000000F01F0001B0704781B0009000988068F8
:1040100000F01F0001B0704783B002900191029838
:10402000019900EB8100603000900098006800F07A
:10403000F84003B07047000081B000900098C0685D
:1040400000F0007001B0704781B000900098806867
:10405000C0F3C00001B0704781B000900098806844
:10406000C0F3C00001B0704781B000900098C06CF0
:1040700000F4C070B0FA80F0400901B07047000051
:1040800081B00090009880684FF6C071C7F6FF714C
:10409000084008300099886001B0704781B00090F6
:1040A00000988068C00F01B07047000081B0009098
:1040B00000988068C0F3407001B0704781B00090F4
:1040C00000988068C0F3400001B0704781B0009054
:1040D0000098806800F0010001B0704781B0009046
:1040E0000098806800F0010001B0704781B0009036
:1040F00000988068C0F3007001B0704781B00090F4
:1041000000988068C0F3800001B0704781B00090D3
:1041100000988068C0F3800001B0704781B00090C3
:104120000098C06800F44060B0FA80F0400901B027
:104130007047000084B003900291019203980299A5
:1041400001F0007100EBD15014300090009800682D
:104150000299C1F30452072191408843019991408B
:1041600008430099086004B07047000083B00290D3
:10417000019100920298D0F8B00001996FF3DF41ED
:104180008843009A02F018034FF6FF72C0F207024C
:10419000DA40114008430299C1F8B00003B07047FB
:1041A00082B0019000910198806820F47C10009901
:1041B00008430199886002B07047000082B0019006
:1041C00000910198806820F0E070009908430199FF
:1041D000886002B07047000085B00490039102929D
:1041E00001930498039900EB8100603000900098DF
:1041F00000684FF20001C0F2FF310140029800F068
:10420000F840019A1043084340F0004000990860CC
:1042100005B0704784B0039002910192039802990F
:1042200000EB8100603000900098006820F0007082
:10423000019908430099086004B0704784B0039066
:10424000029101920398029900EB81006030009086
:104250000098006820F08070019908430099086078
:1042600004B0704784B003900291019203980299C0
:1042700000EB8100603000900098006820F0004062
:10428000019908430099086004B0704782B001901A
:1042900000910198406920F000400099084301997D
:1042A000486102B07047000082B00190009101980F
:1042B00080684FF6C071C3F6FF710140009800F0AE
:1042C0008040084400F100400199886002B07047C6
:1042D00080B594B00020009013901290119002A825
:1042E0003C21FBF7E9FF009940F28000C2F2000098
:1042F00001904FF0A04202604FF440324260816072
:10430000C16001614161042282610177417701222C
:10431000026280F8241080F83810C16380F84010E1
:10432000FDF722FB18B1FFE7FCF720F9FFE70020BB
:10433000119040F28000C2F2000011A9FCF7FAFFD0
:1043400018B1FFE7FCF712F9FFE70220C0F2304096
:10435000029009200390002004907F210591042100
:104360000691079001210A918DF82C008DF82D00FF
:104370008DF82E00A0210C9180210D918DF8380030
:1043800040F28000C2F2000002A9FCF76BF918B1FC
:10439000FFE7FCF7EBF8FFE714B080BD83B0FFE761
:1043A00041F24C00C4F20200016841F020010160BA
:1043B000006800F0200002900298FFE7FFE741F25A
:1043C0004C00C4F20200016841F004010160006881
:1043D00000F0040001900198FFE7FFE741F24C0074
:1043E000C4F20200016841F001010160006800F0C0
:1043F000010000900098FFE703B0704780B59EB0C1
:10440000002001901D901C901B901A9019901890FC
:104410001790169015901490139012901190109080
:1044200003A83421FBF748FF019940F2EC00C2F2E7
:104430000000029042F60042C4F201020260012232
:104440004260202383604FF4FA63C36001614261DC
:104450008161FFF723F918B1FFE7FCF787F8FFE761
:104460004FF480501A9040F2EC00C2F200001AA9FA
:10447000FFF7F2F918B1FFE7FCF778F8FFE740F231
:10448000EC00C2F20000FFF7DDFB18B1FFE7FCF71C
:104490006DF8FFE7002017904FF400111891199064
:1044A00040F2EC00C2F2000017A9FFF757F818B16C
:1044B000FFE7FCF75BF8FFE7602010900022119205
:1044C00002201290139214921592169240F2EC0070
:1044D000C2F2000010A9FFF7DDFA18B1FFE7FCF700
:1044E00045F8FFE7002000900390049005900690A7
:1044F00007904FF40051089109900A900B904FF0EB
:1045000000710C910D900E900F9040F2EC00C2F2F1
:10451000000003A9FEF78AFF18B1FFE7FCF726F8B1
:10452000FFE740F2EC00C2F20000FFF77FFA1EB096
:1045300080BD0000FFE7FEE7FFE7FEE788B00790D9
:1045400006910592079800F0070004900498C0F1C6
:104550000700052803D3FFE70420019004E0049836
:10456000C0F107000190FFE7019803900498043020
:10457000062803D8FFE70020009003E004980338E2
:104580000090FFE70098029006980399012202FA32
:1045900001F101390840029B984005999A40013A7F
:1045A0001140084308B0704784B003908DF80B1099
:1045B0008DED010A039890ED040A9DF80B1001EEB1
:1045C000101AB8EEC11A20EE010A80ED040A039811
:1045D00090ED030A9DF80B1001EE101AB8EEC11A07
:1045E00020EE010A80ED030A039890ED031A90ED86
:1045F000040A30EE410A80ED050A0398009090ED20
:10460000000A90ED014A90ED021A90ED052A90ED16
:10461000073A32EE435A20EE050A9DED015A24EE88
:10462000054A24EE024A30EE040A33EE033A32EE33
:10463000432A90ED063A32EE032A21EE021A30EEBA
:10464000011A90ED080A30EE010A80ED080A03987D
:1046500090ED080A9DF80B1001EE101AB8EEC11A81
:1046600020EE010A80ED080A0399C8698861039861
:1046700090ED031A90ED040A30EE410A80ED070A2E
:10468000039890ED080A90ED091AB4EE410AF1EE94
:1046900010FA04DDFFE70399486A0862FFE7039810
:1046A00090ED080A90ED0A1AB4EE410AF1EE10FA04
:1046B00004DAFFE70399886A0862FFE704B07047ED
:1046C0007047000086B041F20C00C4F2020001689D
:1046D00001F0030104910068C1B2012000EB111048
:1046E000029004980090022815D0FFE70098032854
:1046F00012D1FFE7029941F60030C0F2B700B0FBDB
:10470000F1F041F20C01C4F202010968C1F3062183
:104710004843059011E0FFE7029942F20040C0F2E1
:10472000F400B0FBF1F041F20C01C4F2020109689F
:10473000C1F3062148430590FFE741F20C00C4F2A3
:104740000200006800F0C061022000EB11600390DD
:1047500005980399B0FBF1F00190019806B07047FD
:104760007047000080B582B0009000980138B0F129
:10477000807F03D3FFE70120019019E00098013802
:104780004EF21401CEF2000108604FF0FF300F210D
:1047900000F08EFD4EF21801CEF2000100200860FC
:1047A0004EF21002CEF20002072111600190FFE7E5
:1047B000019802B080BD000080B5FDF777FC80BD98
:1047C00080B594B006A800903821FBF775FD002055
:1047D00005900490039002900190FDF71FFD009852
:1047E000022106914FF48072099240220A920D91A3
:1047F0000E9101220F921422109211911291139195
:10480000FEF730FA18B1FFE7FBF7B0FEFFE70F2025
:10481000019003200290002003900490059001A8CD
:104820000421FEF70DF818B1FFE7FBF79FFEFFE745
:1048300014B080BD4EF68851CEF20001086840F4F5
:10484000700008607047000083B0029001910298E8
:1048500000680090029842F60041C4F201018842CB
:104860001DD0FFE70298B0F1804F18D0FFE7029803
:1048700040F20041C4F20001884210D0FFE70298E4
:1048800040F60001C4F20001884208D0FFE7029818
:1048900043F20041C4F2010188420AD1FFE70098C7
:1048A00020F0700000900198416800980843009043
:1048B000FFE7029842F60041C4F20101884235D078
:1048C000FFE70298B0F1804F30D0FFE7029840F246
:1048D0000041C4F20001884228D0FFE7029840F668
:1048E0000001C4F20001884220D0FFE7029843F2A1
:1048F0000041C4F20101884218D0FFE7029844F257
:104900000001C4F20101884210D0FFE7029844F28E
:104910000041C4F20101884208D0FFE7029844F642
:104920000001C4F2010188420AD1FFE7009820F497
:10493000407000900198C168009808430090FFE71C
:10494000009820F080000199496908430090009880
:1049500002990860019880680299C862019800680D
:1049600002998862029842F60041C4F2010188422D
:1049700020D0FFE7029843F20041C4F201018842CF
:1049800018D0FFE7029844F20001C4F20101884206
:1049900010D0FFE7029844F20041C4F201018842BE
:1049A00008D0FFE7029844F60001C4F201018842F2
:1049B00005D1FFE70198006902990863FFE70299B2
:1049C0000120486102980069C00730B1FFE70299F1
:1049D000086920F001000861FFE703B0704700009C
:1049E00084B0039002910192029800F01F0101200F
:1049F00088400090009A0399086A904308620198E1
:104A0000029901F01F0100FA01F20399086A1043AC
:104A1000086204B07047000085B0049003910292D0
:104A20000193049880680090009820F47F400090E3
:104A300003980299019A41EA022101430098084330
:104A4000009000980499886005B0704783B0029088
:104A5000019102988068009000984FF68F71CFF610
:104A6000CF710840009001980099084340F007007A
:104A7000009000980299886003B0704785B0049058
:104A800003910498006A01900499086A20F00100DB
:104A90000862049840680090049880690290029827
:104AA0004FF68F71CFF6FE7108400290029820F009
:104AB000030002900398016802980843029001984D
:104AC00020F002000190039881680198084301904A
:104AD000049842F60041C4F20101884220D0FFE769
:104AE000049843F20041C4F20101884218D0FFE764
:104AF000049844F20001C4F20101884210D0FFE79B
:104B0000049844F20041C4F20101884208D0FFE752
:104B1000049844F60001C4F2010188420ED1FFE777
:104B2000019820F0080001900398C168019808439B
:104B30000190019820F004000190FFE7049842F6EC
:104B40000041C4F20101884220D0FFE7049843F2FB
:104B50000041C4F20101884218D0FFE7049844F2F2
:104B60000001C4F20101884210D0FFE7049844F22A
:104B70000041C4F20101884208D0FFE7049844F6DE
:104B80000001C4F20101884213D1FFE7009820F42C
:104B900080700090009820F40070009003984169A4
:104BA000009808430090039881690098084300909A
:104BB000FFE7009804994860029804998861039877
:104BC00040680499486301980499086205B07047E9
:104BD00085B0049003910498006A01900499086AD2
:104BE00020F01000086204984068009004988069E2
:104BF0000290029848F6FF71CFF6FF6108400290DC
:104C0000029820F44070029003980168029840EAEC
:104C100001200290019820F0200001900398816803
:104C2000019840EA01100190049842F60041C4F254
:104C30000101884229D0FFE7049843F20041C4F201
:104C40000101884221D0FFE7049844F20001C4F238
:104C50000101884203D1FFE70020B0B9FFE70498C3
:104C600044F20041C4F20101884203D1FFE7002071
:104C700058B9FFE7049844F60001C4F201018842E4
:104C800012D1FFE7012078B9FFE7019820F08000FA
:104C900001900398C168019840EA011001900198C1
:104CA00020F040000190FFE7049842F60041C4F272
:104CB0000101884220D0FFE7049843F20041C4F28A
:104CC0000101884218D0FFE7049844F20001C4F2C1
:104CD0000101884210D0FFE7049844F20041C4F279
:104CE0000101884208D0FFE7049844F60001C4F2AD
:104CF0000101884215D1FFE7009820F48060009000
:104D0000009820F40060009003984169009840EA00
:104D10008100009003988169009840EA810000902A
:104D2000FFE7009804994860029804998861039805
:104D300040680499886301980499086205B0704737
:104D400085B0049003910498006A01900499086A60
:104D500020F4807008620498406800900498C0694C
:104D6000029002984FF68F71CFF6FE7108400290C4
:104D7000029820F00300029003980168029808430B
:104D80000290019820F400700190039881680198C6
:104D900040EA01200190049842F60041C4F201016A
:104DA000884229D0FFE7049843F20041C4F2010190
:104DB000884221D0FFE7049844F20001C4F20101C7
:104DC000884203D1FFE70020B0B9FFE7049844F21E
:104DD0000041C4F20101884203D1FFE7002058B925
:104DE000FFE7049844F60001C4F20101884212D1A1
:104DF000FFE7012078B9FFE7019820F400600190F7
:104E00000398C168019840EA01200190019820F4BC
:104E100080600190FFE7049842F60041C4F201016E
:104E2000884220D0FFE7049843F20041C4F2010118
:104E3000884218D0FFE7049844F20001C4F201014F
:104E4000884210D0FFE7049844F20041C4F2010107
:104E5000884208D0FFE7049844F60001C4F201013B
:104E6000884215D1FFE7009820F480500090009808
:104E700020F40050009003984169009840EA011026
:104E8000009003988169009840EA01100090FFE7C4
:104E900000980499486002980499C8610398406892
:104EA0000499C86301980499086205B0704700002E
:104EB00085B0049003910498006A01900499086AEF
:104EC00020F4805008620498406800900498C069FB
:104ED0000290029848F6FF71CFF6FF6108400290F9
:104EE000029820F44070029003980168029840EA0A
:104EF00001200290019820F40050019003988168ED
:104F0000019840EA01300190049842F60041C4F251
:104F10000101884229D0FFE7049843F20041C4F21E
:104F20000101884221D0FFE7049844F20001C4F255
:104F30000101884203D1FFE70020B0B9FFE70498E0
:104F400044F20041C4F20101884203D1FFE700208E
:104F500058B9FFE7049844F60001C4F20101884201
:104F600012D1FFE7012078B9FFE7019820F4004053
:104F700001900398C168019840EA013001900198BE
:104F800020F480400190FFE7049842F60041C4F20B
:104F90000101884220D0FFE7049843F20041C4F2A7
:104FA0000101884218D0FFE7049844F20001C4F2DE
:104FB0000101884210D0FFE7049844F20041C4F296
:104FC0000101884208D0FFE7049844F60001C4F2CA
:104FD0000101884215D1FFE7009820F4804000903D
:104FE000009820F40040009003984169009840EA3E
:104FF0008110009003988169009840EA8110009028
:10500000FFE700980499486002980499C8610398E2
:1050100040680499086401980499086205B07047D3
:1050200085B0049003910498006A01900499086A7D
:1050300020F4803008620498406800900498006D65
:10504000029002984FF68F71CFF6FE7108400290E1
:1050500003980168029808430290019820F40030F8
:10506000019003988168019840EA014001900498FA
:1050700042F60041C4F20101884220D0FFE70498C3
:1050800043F20041C4F20101884218D0FFE70498BE
:1050900044F20001C4F20101884210D0FFE70498F5
:1050A00044F20041C4F20101884208D0FFE70498AD
:1050B00044F60001C4F2010188420BD1FFE70098D9
:1050C00020F48030009003984169009840EA012064
:1050D0000090FFE7009804994860029804990865D9
:1050E000039840680499886401980499086205B09F
:1050F0007047000085B0049003910498006A019005
:105100000499086A20F480100862049840680090AE
:105110000498006D0290029848F6FF71CFF6FF6187
:105120000840029003980168029840EA012002902A
:10513000019820F40010019003988168019840EADA
:1051400001500190049842F60041C4F201018842E6
:1051500020D0FFE7049843F20041C4F201018842E5
:1051600018D0FFE7049844F20001C4F2010188421C
:1051700010D0FFE7049844F20041C4F201018842D4
:1051800008D0FFE7049844F60001C4F20101884208
:105190000BD1FFE7009820F480200090039841692C
:1051A000009840EA81200090FFE700980499486049
:1051B000029804990865039840680499C8640198A6
:1051C0000499086205B0704785B00490039102927B
:1051D0000498006A00900499086A20F001000862AF
:1051E000049880690190019820F0F00001900299E4
:1051F000019840EA01100190009820F00A00009008
:1052000003990098084300900198049988610098D8
:105210000499086205B0704785B00490039102922A
:105220000498006A00900499086A20F0100008624F
:10523000049880690190019820F4704001900299CF
:10524000019840EA01300190009820F0A000009001
:105250000399009840EA0110009001980499886130
:1052600000980499086205B070470000FFE7FEE768
:1052700081B08DF803009DF9030000280ED4FFE7EC
:105280009DF9031001F01F02012090404A094EF2DF
:105290000011CEF2000141F82200FFE701B0704793
:1052A0004EF60C50CEF200000068C0F302207047AA
:1052B00082B08DF8070000919DF9070000280AD4FC
:1052C000FFE7009800019DF907104EF20042CEF270
:1052D000000288540BE0009800019DF8071001F0CF
:1052E0000F014EF61452CEF200028854FFE702B0CE
:1052F0007047000083B00290029800F00700009011
:105300004EF60C51CEF200010868019001984FF65C
:10531000FF02104001900198009A40EA022000220A
:10532000C0F2FA52104301900198086003B0704730
:1053300080B582B040F23C10C2F20000016840F239
:105340004410C2F200000190C16040F24011C2F26C
:1053500000010968016140F23811C2F200010978C8
:1053600040F20402C2F2000292ED000AFFF71CF9BB
:10537000019890ED080A42F62C40C4F2010090ED2D
:10538000001AB8EE411A20EE010ABCEEC00A42F63D
:105390003840C4F2010080ED000A02B080BD000078
:1053A00080B584B040F23811C2F2000100200190B3
:1053B000087040F2EC00C2F200000290FEF7E0F943
:1053C00001990298FEF796FC019842F63441C4F226
:1053D0000101086040F23911C2F20001087040F288
:1053E0008000C2F2000003907F21FBF7C7F8039909
:1053F00002980B6820221A600A68042111600C21AF
:10540000FEF778FC0398FBF78FFE04B080BD000028
:1054100080B582B000200190FCF756FEFFF7D0F96E
:10542000FEF7BCFFFEF7EAFFFEF752FF00F002F8BE
:10543000FFE7FEE780B5FFF7B3FFFFE7FEE7F1EE1A
:10544000100A4FF6FF71C0F2C03120EA010040F0AF
:105450004070E1EE100A70470000000000000000FC
:105460000102030406070809885400080000002010
:1054700010000000140200089854000810000020DA
:1054800068070000300200080024F40017B7513804
:08549000010000001000000003
:04000005080001D915
:00000001FF
