:020000040800F2
:10000000F009002035030008356900085161000837
:1000100031690008A11F0008ED8000080000000001
:10002000000000000000000000000000756B0008E8
:10003000A51F000800000000D56A0008CD6B00086D
:100040004F0300084F0300084F0300084F03000848
:100050004F0300084F0300084F0300084F03000838
:100060004F0300084F0300084F0300084F03000828
:100070004F0300084F0300084F0300084F03000818
:100080004F03000800000000BD1D00084F030008DA
:100090004F0300084F0300084F0300084F030008F8
:1000A0004F0300084F0300084F0300084F030008E8
:1000B0004F0300084F0300084F0300084F030008D8
:1000C0004F0300084F0300084F0300084F030008C8
:1000D0004F0300084F0300084F0300084F030008B8
:1000E0004F0300084F0300084F0300084F030008A8
:1000F0004F0300084F0300084F03000800000000F2
:10010000000000004F030008000000004F0300083B
:100110004F030008000000004F0300084F030008D1
:100120004F0300084F0300084F0300084F03000867
:100130004F03000800000000000000004F0300080B
:100140004F0300084F0300080000000000000000FB
:10015000000000000000000000000000000000009F
:100160000000000000000000000000004F03000835
:100170004F03000800000000000000000000000025
:10018000000000004F030008000000000000000015
:10019000000000000000000000000000000000005F
:1001A00000000000000000004F0300084F0300089B
:1001B0004F0300084F0300084F0300080000000031
:1001C000000000004F0300080000000000000000D5
:1001D0004F0300084F03000800F002F800F09AF8FF
:1001E0000AA090E8000C82448344AAF10107DA4592
:1001F00001D100F08FF8AFF2090EBAE80F0013F04A
:10020000010F18BFFB1A43F001031847688E000066
:10021000888E0000103A24BF78C878C1FAD85207F7
:1002200024BF30C830C144BF04680C607047000070
:100230000023002400250026103A28BF78C1FBD8EF
:10024000520728BF30C148BF0B6070476E2900F0CD
:10025000DD81702900F01383662908F05F86652927
:1002600008F05C86672908F05986612908F05886ED
:1002700003681B0A28BF41F08001692900F08A81C8
:10028000642900F08781752900F084816F2900F0CE
:10029000A182782900F0DF82E92900F03B82E4297D
:1002A00000F03882F52900F03582EF2900F09E82B7
:1002B000F82900F0DE820368DB0928BF41F08001E5
:1002C000632900F0F787732900F0FC87E32901F028
:1002D0000780F32901F00C80002070471FB508F05B
:1002E00010FE9DE8030001F0FDFA01F0F7F80400AC
:1002F0000020002108F078FD401C606000200021F3
:1003000008F05CFDE06000F0FBFF1FBD10B501F0E0
:1003100060F810BD01F0B4F81146FFF7DFFF08F0F8
:100320006FF801F07BFA03B4FFF7F0FF03BC01F0B4
:1003300089FC00000948804709480047FEE7FEE7BE
:10034000FEE7FEE7FEE7FEE7FEE7FEE7FEE7FEE785
:1003500004480549054A064B70470000496C0008EF
:10036000D9010008F0030020F0090020F00500206A
:10037000F005002053EA020C00F069802DE9F04BF3
:100380004FF00006002B1FBFB3FA83F503FA05F404
:1003900024FA05F65E4012BF1643B2FA82F502FA5D
:1003A00005F4C5F120051EBF22FA05FC44EA0C0441
:1003B000203556EA044C4FEA144418BF641C4FF031
:1003C00000084FF00009904271EB030C39D300296B
:1003D00019BFB1FA81F701FA07F6B0FA80F700FA0F
:1003E00007F6C7F120071EBF20FA07FC46EA0C06F5
:1003F0002037B6FBF4FCA7EB0507103F07F01F0BF7
:10040000CBF120062CFA06F60CFA0BFB44BFB346E0
:100410000026202FA4BF5E464FF0000B5BEA060CBF
:1004200008BF4FF0010B19EB0B0948EB0608ABFBBB
:10043000027C06FB02CC0BFB03CCC01B71EB0C0156
:10044000C1E70B46024641464846BDE8F08B13B56E
:10045000084318BF4FF0FF300146AFF30080BDE8FE
:100460001C4070470FB4044910B503AA029800F06D
:10047000E1F810BC5DF814FB7C0000204FF0000296
:1004800000B5134694469646203922BFA0E80C508A
:10049000A0E80C50B1F12001BFF4F7AF090728BF65
:1004A000A0E80C5048BF0CC05DF804EB890028BFE1
:1004B00040F8042B08BF704748BF20F8022B11F00A
:1004C000804F18BF00F8012B704770477047704786
:1004D00070B5044685690068C10601D5302600E084
:1004E0002026C00707D070BDD4E9012130469047CF
:1004F000206A401C20626D1EF6D570BD70B50446A2
:1005000085690078C00707D170BDD4E9012120209A
:100510009047206A401C20626D1EF6D570BD0968A8
:100520004A0501D540B27047C905FCD500B27047F5
:1005300009684A0501D5C0B27047C905FCD580B22B
:10054000704770B50C460546012A05D0287880060C
:1005500000D5EA69002302E0012305E05B1C934219
:1005600002D2E05C0028F9D1A869E618C01AA86197
:10057000286A184428622846FFF7AAFF04E0D5E954
:10058000012114F8010B9047B442F8D32846FFF735
:10059000B5FF70BD2DE9F0410646002410687529AD
:1005A000314616A510D0FFF7BAFF002802DA404204
:1005B00013A507E031688A0701D512A502E04907B3
:1005C00004D511A5012401E0FFF7B2FF00210A22A2
:1005D00006F1240709E0B0FBF2FCB0FBF2F302FBEA
:1005E0001C00303078541846491C0028F3D12346AB
:1005F0002A463046BDE8F04100F055BA0000000040
:100600002D0000002B00000020000000116802688F
:10061000006A530501D508700AE0D30501D50880AA
:1006200006E0130603D5C217C1E9000200E0086026
:1006300001207047074B70B50D467B4400F01DFE4E
:100640000446284600F058FE10B14FF0FF3070BD50
:10065000204670BD337C00002DE9FF5F15468A46B9
:100660000446DFF8AC80F8440027D8E900103E4685
:10067000CDE9001010E03AF816106A4602A800F022
:10068000DBFE411C07D02178890603D5E2693918C1
:1006900091420DD80744761C2078800602D5E06987
:1006A000B84205DDAE42E6DB3AF816000028E2D19A
:1006B000A069C01BA0612046FFF70AFFD8E900101F
:1006C000CDE90010002017E03AF818106A4602A899
:1006D00000F0B2FEB0F1FF3F81460BD000250DF1D6
:1006E000080B05E0D4E901211BF8050090476D1CBB
:1006F0004D45F7D308F10100B0428046E4DB206AA3
:10070000384420622046FFF7F9FEBDE8FF9F000055
:10071000BA8800002DE9F0418046D21D22F0070280
:100720000025D2E90002F52915A614D0011E72F1A8
:10073000000106DA0023D0EB030063EB020211A6EE
:1007400008E0D8F800108B0701D50FA602E0490792
:1007500001D50EA601251146002408F1240704E066
:1007600000F05CF930323A55641C50EA0102F7D1CE
:100770002B46324621464046BDE8F04100F093B991
:10078000000000002D0000002B00000020000000F1
:1007900030B4002100F1240408E002F00705D2087B
:1007A000303542EA4372DB086554491C52EA0305BE
:1007B000F3D10468002310A2250708D504F0200413
:1007C0000C4304D0C46901230CA2641EC46130BC74
:1007D00000F069B910B5044621461068FFF7A8FE7D
:1007E00002462046BDE810400023D1E7D21D22F08A
:1007F0000701D1E90023CBE7000000003000000032
:10080000F0B40D460188090502D5214C7C4402E074
:100810001F4C7C440E34002100F1240608E002F055
:100820000F071209E75D42EA03721B097754491C5E
:1008300052EA0307F3D102780023120704D5702D82
:1008400006D009B1022311342246F0BC00F02BB9C6
:1008500001231034F8E770B504460D4621461068B0
:10086000FFF766FE024629462046BDE87040002399
:10087000C6E7D21D22F00703D3E90023C0E70368CF
:10088000126843F0200303600823C3610023B7E725
:100890001C8700002DE9F05F894604464FF0000AEE
:1008A000DFF874B1FB44C0F820A02046E168884717
:1008B000002874D0252806D0D4E901219047206A69
:1008C000401C2062F1E700265F462046E168884729
:1008D0002028054607DB312D05D2781910F8200CA9
:1008E00008B10643F1E7B00701D526F00406C4F8C5
:1008F0001CA00027C4F818A02A2D09D0284608F00B
:1009000055FA38B304EB8708303DC8F8185019E0A1
:1009100059F8041B204604EB87029161E16888477F
:10092000012F054618D1E069002820DA26F02006BC
:100930001DE0D8F8180000EB800005EB40003038CF
:10094000C8F818002046E1688847054608F02EFAE6
:100950000028EED1012F0AD02E2D08D12046E168C3
:1009600088477F1C0546022F46F02006C4DBA0699D
:10097000002803DA404246F00106A061F00701D0EA
:1009800026F010066C2D0BD0682D09D04C2D39D0D7
:100990006A2D35D0742D35D07A2D33D016E038E05D
:1009A000E1682F4620468847B842054609D16C2F9A
:1009B00026D04FF48060E16806432046884705460C
:1009C00004E06C2F1AD04FF4807006430DB3A5F1EC
:1009D0004100192802D8203546F400664A462946C7
:1009E000204626604E46FFF731FC80B101280BD02F
:1009F000F61D26F0070000F1080956E74020E4E75D
:100A00008020D8E70020D6E706F104094DE7284604
:100A100052E7206ABDE8F09FAC86000030B5B0F127
:100A20000A0271F100034FEA900E4EEA817EB0EBAC
:100A30000E0061EB91014FEA101E4EEA017E10EBB1
:100A40000E0041EB11114FEA102E4EEA016E10EB31
:100A50000E0041EB11214FEA104E4EEA014E10EB11
:100A60000E0041EB1141401841F100014FEAD00066
:100A700040EA41704FEAD1014FEA810444EA9074A0
:100A800010EB800544EB01046D1944EB0404521B88
:100A9000A3414FF0000348BF0A3200D530BD401CCF
:100AA00041F1000130BD2DE9F0470D4699469246CF
:100AB000044600F124080168880604D5E06921F0A5
:100AC0001001216000E00120A84201DD471B00E089
:100AD0000027A1697A1902EB0900081AA0612078A1
:100AE000C00602D42046FFF7F3FC002608E0D4E954
:100AF00001211AF806009047206A401C761C2062EB
:100B00004E45F4DB2078C0060AD52046FFF7E0FC0E
:100B100006E0D4E9012130209047206A401C206281
:100B2000381EA7F10107F4DC07E0D4E9012118F829
:100B300005009047206A401C2062281EA5F101058F
:100B4000F3DC2046FFF7DAFC2078000602D502200D
:100B5000BDE8F0870120FBE72DE9FF4F0C461E465C
:100B60004FF0FF378BB0D2E90001DDF860800A90CA
:100B70008A46C1F30A5505B93D46002108464FF0A3
:100B80000000BAF1000F00F4400005DA00EB80002D
:100B90004FF4400101EA50004FEA9059B9F1010FBA
:100BA00000DDB9460A9850EA4A000ED044F61050CB
:100BB000A5F2FF3545432F14B8F1000F1ED0754242
:100BC000291E1EDDC9F100021CE0B8F1010F4FF033
:100BD000000001D0302103E0F24305E02154401C25
:100BE000B042FBDB30460022002121540B99C1F8B2
:100BF0000880C1E900200FB0BDE8F08FBD1B6D1C5F
:100C0000DEE74A4600DA694206A800F0D3FC06ABEC
:100C100093E8070003AB83E8070050460A9907F002
:100C2000E5FC8DE80700A0F500501F380090039800
:100C3000002D0ADD42F21F014A460844002303A9A1
:100C40000390684607F04EFF09E0A0F500504A46C1
:100C50001F38002303A90390684607F058FF8DE86A
:100C600007000004000C03D04FF0FF30410800E003
:100C70001046B8F1000F03D00022009215461EE086
:100C8000751E05D4FFF7CAFE303262556D1EF9D5C8
:100C9000B3460122084302D000227F1C04E02078E2
:100CA000302801D100227F1E002A099784D01DE040
:100CB000112D07DAFFF7B2FE303262556D1C50EA93
:100CC0000102F5D1084302D00098C8B10EE000211E
:100CD000681E05E0235C625C63542254401E491C7C
:100CE0008142F7DBAB46A81B401E0990002004F8A8
:100CF0000B000B98099AC0F80880C0E9002B7AE72E
:100D000011264FF0000857E72DE9F04F88460446BA
:100D1000D21D22F0070191B0D1E90001CDE90A010D
:100D200008F02CF802460B98C00F01D02D2007E0E8
:100D30002068810701D52B2002E0202101EAC000B4
:100D4000032A099001D0072A05DB034641462046C5
:100D500000F0F0FB0BE12078800601D5E06900E0AF
:100D60000620B8F1650F814606D0B8F1660F18D09D
:100D7000B8F1670F70D131E00020B9F1110F009088
:100D800001DB112301E009F101030AAA01A90CA862
:100D9000FFF7E2FEDDE90C70002609F1010583464C
:100DA00047E001204B4600904FF000470AAA01A9F6
:100DB0000CA8FFF7D1FEDDE90DB00C995D460026C9
:100DC00010B909F101000D18B9EB050003D4C0F109
:100DD000FF3609F10105A5EB09002BE0B9F1010F80
:100DE00001DA4FF001090020B9F1110F00904846D7
:100DF00001DD112300E003460AAA01A90CA8FFF7B0
:100E0000ABFEDDE90C704D460026834620780007D6
:100E10000AD4AB4500DA5D4601A8012D04DD411975
:100E200011F8011C302907D04F4502DA17F1040FE1
:100E300004DA012082460FE06D1EEEE7002F02DC8F
:100E4000ED1B3E4403E0781CA84200DD7D1CB81B6E
:100E500000F1010A4FF000472078000703D4AA45AB
:100E600001DB4FF0FF3A0021B7F1004F0DF14308CD
:100E70008DF8431024D002202B23002F01DA7F426B
:100E80002D230A21021EA0F1010000DC5FB197FBB7
:100E9000F1FC97FBF1F201FB1C7C17460CF1300CC6
:100EA00008F801CDEEE7A8F10100037021880905DB
:100EB00001D5452100E06521A0F1010800F8011CE1
:100EC00009980FA9A1EB0807FF1D00B101204119E6
:100ED00001EBEA70A1693844081A401EA06120782D
:100EE000C00602D42046FFF7F3FA099828B1D4E9E6
:100EF00001219047206A401C20622078C00622D53C
:100F00002046FFF7E5FA1EE0002E04DBB34502DDC4
:100F100001A8805D00E03020D4E901219047206ADB
:100F2000401C2062761CAAF101005FEA000A0AD187
:100F300000F0D4FAC0680168405CD4E90121904710
:100F4000206A401C2062281EA5F10105DCDC07E0B8
:100F5000D4E9012118F8010B9047206A401C206257
:100F6000381EA7F10107F3DC2046FFF7C7FA03207C
:100F700011B041E62DE9F04F04460D46D21D22F096
:100F8000070089B0D0E900974846394607F0F6FED9
:100F90000246F80F01D02D2307E02068810701D514
:100FA0002B2302E0202101EAC0038DF820300BB191
:100FB000012000E00020032A824601D0072A04DB3A
:100FC0002946204600F0B6FA3FE12078800601D499
:100FD0000D2500E0E569C7F30A560D2D49DA002119
:100FE0004FEA175B08464FF00000002F00F4400066
:100FF00007DA00EB80004FF4400100EBD07001EA0B
:1010000060008115012901DD4FF0FF3100224FEA18
:10101000850CBCF1180F06D31346ACF118004FF045
:101020008052C24003E04FF4801323FA0CF30CF11A
:101030000C0CBCF1200F04D3ACF1200C09FA0CF01D
:1010400001E007FA0CF000294FF0004801DD18B963
:101050000FE00ED140450CD319EB02095F4121B9D5
:10106000404502D19F4329EA0209BBEB175F00D03C
:10107000761C2088000502D57B48784402E07A4837
:101080007844193808AA302302F80A30037C0AF1A0
:101090000101002E0AF1020A53546A4602DC4FF0A5
:1010A000300101E04FF031014FF001088DF80010E0
:1010B00002D0A6F2FF3603E059EA470100D06B4E9A
:1010C000002D02DC2178090704D54FF002082E21FB
:1010D0008DF80110C44600210BE0C7F303433F0124
:1010E000C35C491C6D1E02F80830052908F101088F
:1010F00001DA002DF1DC00210CE000EB1973491C32
:101100001B786D1E082902F808304FEA091908F10A
:10111000010801DA002DF0DC21688B0602D516E00B
:10112000A8F10108E04505DD02EB080313F8013CD6
:10113000302BF5D0B8F1000F09DD02EB080313F8EE
:10114000013C2E2B03D1090701D4A8F10108002D81
:1011500005DD3E2102F808106D1E08F10108407CF3
:10116000002E02F8080008F1010804DA2D2076426A
:1011700002F8080002E02B2002F808000A214FF4D0
:101180007A70864208F101080BDB96FBF0F33033EE
:1011900002F8083096FBF0F308F1010800FB136633
:1011A00001E0642E0CDB642096FBF0F3303302F890
:1011B000083096FBF0F308F1010800FB136601E02C
:1011C0000A2E06DB96FBF1F0303002F8080008F139
:1011D000010896FBF1F001FB1060303002F80800C6
:1011E000A16908F1010808EB050202EB0A00081AE0
:1011F000A0612078C00602D42046FFF769F9216A71
:1012000008AE01EB0A00206204E0D4E9012116F8DF
:10121000010B9047BAF1010AF7D22078C00602D537
:101220002046FFF755F96E4609E016F8010B3E28F7
:101230000FD0D4E901219047206A401C2062B8F108
:101240000108F2D22046FFF759F909B00320BDE8A2
:10125000F08F206A2844206203E0D4E90121302085
:1012600090476D1EEBD3F8E7FA7E000002FCFFFF0B
:1012700001694A1C02610878704700B58FB0CDE95A
:1012800001310021059105497944CDE9031011464A
:101290006846FFF7FFFA0FB000BD0000E5FFFFFF53
:1012A00010B5436913B1AFF3008001E0FFF749F9CE
:1012B000012010BD127800F124010A7000224A704A
:1012C0000122EDE711684FF0FF32E9E710B54369FD
:1012D00013B1AFF3008001E0FFF7BEF9012010BDAC
:1012E000128800F1240182840022C2840122EDE7E9
:1012F00011684FF0FF32E9E7007B00F08000704793
:1013000010B542485421FFF7B9F841485421FFF77E
:10131000B5F840485421FFF7B1F83F493B483C4AF3
:101320003F4B08603D490A603A491960531C036508
:10133000481C1065012008653B48344A39A17844AF
:1013400000F0CEF920B9384878440A3800F06FFA36
:1013500037482F4A35A1784400F0C2F920B9344803
:1013600078440A3800F063FA32482A4A2FA17844B8
:1013700000F0B6F920B92F4878440A3800F057FA3F
:1013800040232248DC000021224600F085F920B1EC
:1013900025487844543800F04AFA1D482246402334
:1013A000002100F079F920B121487844543800F048
:1013B0003EFA184822461023002100F06DF900285B
:1013C00006D01C487844BDE81040563800F02FBACB
:1013D00010BD104870B5006D20F001040B4800F0FE
:1013E000F7F90B4800F0F4F90A4800F0F1F909E0C8
:1013F000206D20F00105204600F0EAF9204600F0BB
:1014000071F82C46002CF3D170BD0000280000209C
:101410007C000020D00000200000002004000020FC
:101420000800002072000000497C000077000000E6
:10143000357C0000217C00002DE9F04116460C4669
:10144000054600F043F8036893F80101012807D02E
:10145000FF2C12D8185D80B101202C70BDE8F081FE
:10146000D3F807013246214603F20713C71828466E
:10147000BC46BDE8F041002360474FF0FF30EDE788
:10148000754600F00FFAAE4605006946534620F057
:101490000700854618B020B5FEF75AFFBDE820408A
:1014A0004FF000064FF000074FF000084FF0000B20
:1014B000AC46ACE8C009ACE8C009ACE8C009ACE88F
:1014C000C00921F007018D467047000010B500F0FB
:1014D00005F8001D10BD00BF1179000000487047DD
:1014E0004401002070B50446051F00F0DFF90068D4
:1014F000002C14BF446870BD002C18BFAC423CBF28
:1015000020466468F8D301680A18AA4218BF4560EB
:1015100003D12A6805461144016028684119A14297
:101520001CBF6C6070BD61686960216808442860F8
:1015300070BD00002DE9F0411F46044603260168F6
:10154000072A01F4006004DB08B116A505E016A522
:1015500003E008B115A500E015A521F010002060FA
:10156000A069C01EA0610FB1401EA0612046FEF719
:10157000AFFF4FB1D4E9012138469047206A401CA3
:101580002062C01C206206E0206AFAE7D4E901214B
:1015900015F8010B9047761EF8D22046FEF7AEFFF5
:1015A000BDE8F0814E414E006E616E00494E46002E
:1015B000696E66002DE9F047814616468AB03548C7
:1015C00078440DC88DE80D0032487844801C03AC87
:1015D0000DC884E80D0041F69B300844372190FB8C
:1015E000F1F290FBF1F5A5F1800501FB12041B3C23
:1015F00002D56442012000E00020DFF898A0804678
:101600000027FA44AAF1BE0A0EE0E0070AD03246EB
:10161000684607EB470101230AEB810107F077FADF
:101620008DE8070064107F1C002CEED1194F7F4419
:10163000AE3F19E0E80715D007EB04100DF1180ACA
:1016400090E80E008AE80E00C068F04201D19819B7
:1016500008903246012306A903A807F058FA03AB05
:1016600083E807006D10641C002DE3D14FF00103E7
:1016700032466946B8F1000F03A802D007F032FAEB
:1016800001E007F044FAC9E90001C9F808200AB0EE
:10169000BDE8F087507A000070B5C468A50713D084
:1016A000650211D4B2F5807F09D0B2F5007F06D073
:1016B000B2F5806F08D1012300F1240106E05D1E20
:1016C0006FF07F46B54201D3012070BD0161C36157
:1016D000416024F470611143C160002070BD0000BE
:1016E0002DE9F0410C461646070047D0104600F0A1
:1016F0006FF82078611C61280AD0722802D0772800
:101700003CD102E00125002405E00225042402E08A
:10171000082448F2020511F8010B2B2806D0622894
:1017200009D011F8010C74280AD00BE045F003052C
:1017300044F00204EFE745F0040544F00104EAE751
:1017400044F010043846214600F078F8411C15D0CA
:101750000021316171604FF40071F560F1617061D9
:10176000200704D530460222002100F019F9306D1F
:1017700040F0010030653046BDE8F0810020FBE715
:101780002DE9F0410D460646104C206DC10704D0EE
:10179000410804D020F00104F7E722460EE054206F
:1017A00000F0CFF807000ED0206D47F0010108438C
:1017B000542120653846FEF761FE3A4629463046F8
:1017C000BDE8F0418CE70020D6E7000028000020AB
:1017D0002DE9F04704464FF000094FF0FF37C56888
:1017E000D4E90486A80707D0204600F089F93046DE
:1017F00000F02EF8002802DA3846BDE8F087280508
:1018000002D54046FFF76EFE4C212046FEF736FE1D
:10181000206D20F0010020654846EEE710B5044633
:10182000AFF300802046BDE81040FEF77CBD10B548
:1018300000F0B0F9BDE8104000F0A6B90EB5CDE952
:10184000000100F068FA029069460120ABBE0EBDAF
:1018500008B5694600900220ABBE08BD1FB58DE8F3
:10186000070069460520ABBE04B010BD1FB58DE86A
:101870000F0069460620ABBEF6E708B56946009042
:101880000920ABBE08BD1CB5CDE9000169460A20A0
:10189000ABBE1CBD704708B5694600900C20ABBEBE
:1018A00008BD000000487047240100200048704730
:1018B0002C010020704770477047704738B50446C8
:1018C0000A4600206946AFF30080002808BF38BDF3
:1018D00002460099204600F0C3F9012038BD0120DE
:1018E00000F012BAF8B5AFF30080054600200C46B0
:1018F000102000BF0646A819A0420DD932466946FD
:101900000020AFF30080070008BF00F0FDF9009849
:10191000A04218BF0546C419FFF7C8FF0560074677
:10192000F01D20F007004619284600F092F9B44255
:1019300008BFF8BDA21B31463868BDE8F84000F08A
:101940008FB970B50646FFF7B1FF056806F10B00C9
:1019500020F00704B4429CBF002070BD2B466A688B
:10196000BAB11068A04210D304F1080188423CBF0C
:101970005068586007D35168101941601168091BFD
:10198000016058601460101D70BD13465268002A33
:10199000E7D121462846FFF791FF0028DED170BD30
:1019A0002DE9F041044616460D464769007B800745
:1019B0002ED03846FFF761FF50BB3EB3012E02D058
:1019C000022E25D104E0204600F064F905441DE014
:1019D0003846FFF760FFE168002841F01001E16040
:1019E00005DA204600F058F80120BDE8F081C9036F
:1019F0000BD56268E16A914200D81146A269114490
:101A00002269891A814200DD08460544002D01DA69
:101A10000220EAE7E16A6068E268814206D2910347
:101A2000E06203D522F4003141F01002A6690027DC
:101A3000AE4213DCE16A814201D90B4600E0034665
:101A400003EB060C2369ACEB030CAC4506DD8142CD
:101A500001D98C4600E084469C4505D1A7602760EB
:101A600042F02000A5620DE0AD1BE669AE1B81428D
:101A7000A66000D90846C01A281A2060581960606C
:101A800022F0200003490840E060002084F84870FC
:101A9000ABE70000BFCFD7FFC16821F4001141F0D0
:101AA0008001C16000218160016070472DE9F0472D
:101AB000814614460E464FF0FF383248D5685769C4
:101AC000054209D03846A169FFF7DDFE002811DB89
:101AD0002C48C0430540E5602B463246494638460F
:101AE000FFF7BCFEA16920F00042B21A11440028A1
:101AF000A16103D02046FFF7CFFF4046BDE8F08745
:101B000070B504460569C06A6168884200D8084615
:101B1000E16821F42011E160C90312D5A84208D080
:101B20002246411B2846FFF7C1FF10B14FF0FF309E
:101B300070BD0020E562C4E90150E06820F4803007
:101B4000E060002070BD10B50446C06820F02000A1
:101B5000E060A16AA06988420DD02046FFF7D0FF5F
:101B6000E06820F4405040F01000E060A06AA061FE
:101B70002069E062606044F24001E0688843E06010
:101B800010BD000010000200002801D000F05AB87B
:101B90007047000010B5014602A000F09CF801203B
:101BA00010BD000053494752545245443A205265F3
:101BB0006469726563743A2063616E2774206F7084
:101BC000656E3A200000000030B44FF0013C50F840
:101BD000042B51F8043BCCFA52F4D51A20D1FCB9AD
:101BE00050F8042B51F8043BCCFA52F4D51A17D113
:101BF000B4B950F8042B51F8043BCCFA52F4D51A7E
:101C00000ED16CB950F8042B51F8043BCCFA52F4C5
:101C1000D51A05D1002CDAD030BC4FF00000704747
:101C200029BAB1FA81F111F01801D1F120008440F4
:101C3000F2D1CA40CB4012F0FF0213F0FF0330BCD8
:101C4000D01A704701491820ABBEFEE726000200FB
:101C5000704700210160C0E90110704710207047F3
:101C6000034640688C46002818BF88423CBF0346A4
:101C70004068F8D318681844884207D00CF1030074
:101C800020F00700001D411A521A0146081D0A6083
:101C9000FFF728BC10B50146C268900703D0900634
:101CA00007D5886A0AE000F05DF801210160881E0E
:101CB00010BD8B69486818440B69C01A91F8483008
:101CC0001BB191F84910401A10BD1103FCD5002832
:101CD000FADD401E10BD70B505460C460A2000E036
:101CE0006D1C00F037F835B128780028F8D102E0F3
:101CF000641C00F02FF814B120780028F8D1BDE85A
:101D000070400A2000F026B810B500F02FF8BDE8AA
:101D10001040FFF739BF10B5431C02E010F8011B5B
:101D200071B18107FAD14FF0013202C88C1A8C438D
:101D300014EAC211F9D0C01A0A0603D0C01E10BDA1
:101D4000C01A10BD0A0401D0801E10BD0902FCD0CB
:101D5000401E10BD08B569468DF800000320ABBEDB
:101D600008BD0000004870472401002010B501287C
:101D700005D0002103A0FFF7AEFF012010BD09A18F
:101D8000F8E7000053494752544D454D3A204F75EE
:101D900074206F662068656170206D656D6F727963
:101DA000000000003A2048656170206D656D6F721B
:101DB0007920636F727275707465640080B540F24B
:101DC000E810C2F2000001F073F980BD80B584B064
:101DD00002900298006804F06FFA00900298006880
:101DE00004F072FA00284BD0FFE70098002847D192
:101DF000FFE702980068806800F00D00012809D113
:101E0000FFE70298006804F0A5F902980168032032
:101E100008600DE00299C86D40F01000C865029995
:101E2000086E40F00100086601208DF80F002BE0DD
:101E300001F062FF0190FFE7029800688068C00728
:101E4000E8B1FFE701F058FF0199401A032815D3C4
:101E5000FFE7029800688068C00770B1FFE7029949
:101E6000C86D40F01000C8650299086E40F001008E
:101E7000086601208DF80F0006E0FFE7DCE7FFE7CA
:101E800000208DF80F00FFE79DF80F0004B080BD23
:101E900080B584B00290002000900298006804F0A1
:101EA00013FA002874D1FFE70298006880683F2188
:101EB000C8F2000108420ED0FFE70299C86D40F059
:101EC0001000C8650299086E40F001000866012004
:101ED0008DF80F0060E00298006804F055F940F2B8
:101EE0000030C5F2000004F06DF9000200281CD596
:101EF000FFE740F21000C2F200000068800942F6DD
:101F00006351C0F23E51A0FB0110800900EB40017B
:101F10000C2000EB81000090FFE7009820B1FFE764
:101F2000009801380090F8E7FFE701F0E5FE019026
:101F3000FFE7029800680068C00740BBFFE702980F
:101F4000006804F0C1F928B9FFE70298006804F0BE
:101F50001BF9FFE701F0D0FE0199401A032815D3C1
:101F6000FFE7029800680068C00770B9FFE70299B0
:101F7000C86D40F01000C8650299086E40F001007D
:101F8000086601208DF80F0006E0FFE7D1E7FFE7C4
:101F900000208DF80F00FFE79DF80F0004B080BD12
:101FA000FFE7FEE77047000081B0EFF3108072B6E4
:101FB0000090FFE7FEE7000080B586B00490039133
:101FC00000200190FFE7049890F85800012804D100
:101FD000FFE702208DF817005AE00499012081F8EC
:101FE0005800FFE7FFE70498FFF7F0FE8DF80B00BD
:101FF0009DF80B00D8BBFFE70498C06D40F00200CD
:1020000020F488500499C86504980068039904F086
:1020100049FAFFE70498006804F03EF9F0B1FFE7E1
:1020200001980130019001984DF60261C0F204015F
:10203000884212D3FFE70498C06D40F0100020F0F2
:1020400002000499C865FFE70499002081F8580050
:10205000FFE701208DF817001AE0DBE70498C06D58
:1020600040F0010020F002000499C86505E00499E1
:10207000C86D40F01000C865FFE7FFE70499002035
:1020800081F85800FFE79DF80B008DF81700FFE777
:102090009DF8170006B080BD81B0009001B0704778
:1020A00080B5C2B02290219100208DF883001B9052
:1020B0001A902298406908B1FFE7FFE72198C068AD
:1020C0000021C4F27F01884201D0FFE700E0FFE772
:1020D000FFE7229890F85800012805D1FFE7022079
:1020E0008DF88F0000F0B7BC2299012081F85800CC
:1020F000FFE7FFE72298406928B1FFE72198006ACF
:1021000001282FD1FFE721984068092829D1FFE74E
:102110002198806A68B1FFE721990A68886AC96ACC
:1021200002F0F84200F07C0040EA524008431A9066
:1021300006E02198006800F0F840400C1A90FFE794
:1021400022980068C06C44F20001C0F210410840BF
:102150001A99084322990968C8641A98229948660E
:10216000FFE747E02298806EE0B9FFE72198006A18
:10217000229988662299002048662198806A58B181
:10218000FFE72199086A8A6AC96A013802F07C026D
:10219000104308431A9004E02198006A01381A900D
:1021A000FFE7FFE7219908684968C0F3846001F000
:1021B0001F0100FA01F11A9808431A902299886EBB
:1021C000013888661A9A2299486E10434866229808
:1021D000806E70B9FFE722980068C06C44F200017D
:1021E000C0F210410840229A1168526E1043C86430
:1021F000FFE7FFE72298006804F02CF830BBFFE708
:10220000219890F8250090B9FFE722980068C068EF
:1022100020F44010219991F8242091F826104905C6
:1022200041EA0251084322990968C8600DE02298EA
:102230000068C06820F44010219991F8261040EA07
:10224000415022990968C860FFE7FFE722980068BB
:1022500004F05AF81D902298006803F0FBFF1C90D0
:102260001D98002840F00982FFE71C98002840F0E4
:102270000482FFE72198806A20B1FFE72198C06AB5
:10228000A8B9FFE7219890F82500012807D1FFE7BA
:1022900022980168C86840F00070C86006E0229883
:1022A0000168C86820F00070C860FFE716E0219858
:1022B00090F82500012809D1FFE72299C86D40F068
:1022C0002000C86501208DF8830006E0229801688F
:1022D000C86820F00070C860FFE7FFE7219890F819
:1022E0003000012810D1FFE722980068006920F42F
:1022F000FF71219A506B926B1043084340F002002B
:1023000022990968086106E022980168086920F0AE
:1023100002000861FFE721988068B0F1004F0ED1FC
:10232000FFE72298006821990968002204F000F86C
:10233000229800684FF0004104F0A6F80CE02298C3
:102340000068219A1168926803F0F2FF22980068F1
:10235000002104F099F8FFE7219840692299096863
:10236000C96801F01801890888401F902198006908
:1023700004281CD0FFE72298006821990A6809699F
:102380001F9B04F027F822980068219A116992692E
:1023900004F052F822980068219A1169127F013ADC
:1023A000B2FA82F25209520604F032F864E122983D
:1023B0000068002103F02EFF400348B9FFE7229890
:1023C0000068002103F026FFC0F38460199018E034
:1023D00022980068002103F01DFF90FAA0F02490DD
:1023E000249820B9FFE720208DF8970005E0249875
:1023F000B0FA80F08DF89700FFE79DF897001990EC
:10240000FFE71998189021980068400330B9FFE75A
:1024100021980068C0F38460179015E02198006847
:1024200090FAA0F02690269820B9FFE720208DF89A
:102430009F0005E02698B0FA80F08DF89F00FFE736
:102440009DF89F001790FFE718981799884207D1C9
:10245000FFE7229800680022114604F001F8FFE728
:1024600022980068012103F0D5FE400348B9FFE738
:1024700022980068012103F0CDFEC0F3846016901D
:1024800018E022980068012103F0C4FE90FAA0F041
:102490002890289820B9FFE720208DF8A70005E0B4
:1024A0002898B0FA80F08DF8A700FFE79DF8A70004
:1024B0001690FFE71698159021980068400330B9F0
:1024C000FFE721980068C0F38460149015E021981C
:1024D000006890FAA0F02A902A9820B9FFE72020FF
:1024E0008DF8AF0005E02A98B0FA80F08DF8AF00C3
:1024F000FFE79DF8AF001490FFE715981499884204
:1025000007D1FFE7229800680121002203F0A8FF0D
:10251000FFE722980068022103F07CFE400348B9DF
:10252000FFE722980068022103F074FEC0F3846084
:10253000139018E022980068022103F06BFE90FAD5
:10254000A0F02C902C9820B9FFE720208DF8B70040
:1025500005E02C98B0FA80F08DF8B700FFE79DF801
:10256000B7001390FFE7139812902198006840037A
:1025700030B9FFE721980068C0F38460119015E03E
:102580002198006890FAA0F02E902E9820B9FFE7CD
:1025900020208DF8BF0005E02E98B0FA80F08DF86D
:1025A000BF00FFE79DF8BF001190FFE71298119957
:1025B000884207D1FFE7229800680221002203F039
:1025C0004FFFFFE722980068032103F023FE40033A
:1025D00048B9FFE722980068032103F01BFEC0F30F
:1025E0008460109018E022980068032103F012FE26
:1025F00090FAA0F03E903E9820B9FFE720208DF899
:10260000FF0005E03E98B0FA80F08DF8FF00FFE78C
:102610009DF8FF001090FFE710980F902198006838
:10262000400330B9FFE721980068C0F384600E9042
:1026300015E02198006890FAA0F04090409820B9E9
:10264000FFE720208DF8070105E04098B0FA80F000
:102650008DF80701FFE79DF807010E90FFE70F983F
:102660000E99884207D1FFE72298006803210022D3
:1026700003F0F6FEFFE7FFE7FFE72298006803F0AC
:102680002BFE002840F04481FFE722980068219A41
:102690001168D26803F068FE2198C0680021C4F276
:1026A0007F01884240F03381FFE7229800680D9057
:1026B00021980068400330B9FFE721980068C0F313
:1026C00084600C9015E02198006890FAA0F03C908E
:1026D0003C9820B9FFE720208DF8F70005E03C98F2
:1026E000B0FA80F08DF8F700FFE79DF8F7000C9046
:1026F000FFE70C98013000F01F0009287DD8FFE7A4
:1027000021980068400330B9FFE721980068C0F3C2
:1027100084600B9015E02198006890FAA0F03A9040
:102720003A9820B9FFE720208DF8EF0005E03A98AD
:10273000B0FA80F08DF8EF00FFE79DF8EF000B9006
:10274000FFE70B98013000F01F0080060A902198E7
:102750000068400330B9FFE721980068C0F3846047
:10276000099015E02198006890FAA0F03890389808
:1027700020B9FFE720208DF8E70005E03898B0FA8F
:1027800080F08DF8E700FFE79DF8E7000990FFE78C
:102790000A980999013101F01F0201219140084373
:1027A000089021980068400330B9FFE7219800683D
:1027B000C0F38460079015E02198006890FAA0F0BB
:1027C0003690369820B9FFE720208DF8DF0005E02D
:1027D0003698B0FA80F08DF8DF00FFE79DF8DF0053
:1027E0000790FFE708980799013101F01F0101EBFD
:1027F000410140EA0150069082E0219800684003C0
:1028000030B9FFE721980068C0F38460059015E0B7
:102810002198006890FAA0F03490349820B9FFE72E
:1028200020208DF8D70005E03498B0FA80F08DF8BC
:10283000D700FFE79DF8D7000590FFE70598013026
:1028400000F01F008006049021980068400330B912
:10285000FFE721980068C0F38460039015E0219899
:10286000006890FAA0F03290329820B9FFE720205B
:102870008DF8CF0005E03298B0FA80F08DF8CF00E7
:10288000FFE79DF8CF000390FFE70498039901311B
:1028900001F01F0201219140084302902198006835
:1028A000400330B9FFE721980068C0F384600190CD
:1028B00015E02198006890FAA0F03090309820B987
:1028C000FFE720208DF8C70005E03098B0FA80F0CF
:1028D0008DF8C700FFE79DF8C7000190FFE7029958
:1028E0000198013000F01F0000EB40020020CFF6FD
:1028F000206000EB0250084340F000700690FFE7B4
:102900000D980699219A926803F012FDFFE7FFE700
:102910002198408848F20801084200F09180FFE7C2
:1029200040F20030C5F2000003F054FC1E902198E4
:1029300000680021CCF22131884208D0FFE72198BD
:1029400000681021C9F2C001884232D1FFE79DF82A
:102950007A00000600282CD4FFE722980068B0F126
:10296000A04F25D1FFE71E9840F4000140F200304F
:10297000C5F2000003F020FD40F21000C2F200009A
:102980000068800942F66351C0F23E51A0FB01107D
:10299000800900EB4001182000EB81001B90FFE74D
:1029A0001B9820B1FFE71B9801381B90F8E7FFE761
:1029B00045E0219800680021CCF25271884219D17B
:1029C000FFE79DF87B00C007A0B9FFE722980068E9
:1029D00040F20011C5F2000188420AD0FFE71E98BC
:1029E00040F0807140F20030C5F2000003F0E4FCDA
:1029F000FFE723E0219800680021CCF6843188426B
:102A00001AD1FFE79DF87A004006002814D4FFE7AA
:102A10002298006840F20011C5F2000188420AD0F5
:102A2000FFE71E9840F4800140F20030C5F200003C
:102A300003F0C2FCFFE700E0FFE7FFE7FFE7FFE787
:102A4000FFE72299002081F85800FFE79DF88300F6
:102A50008DF88F00FFE79DF88F0042B080BD000029
:102A600080B586B00590059840F2E811C2F20001E9
:102A7000884240F03981FFE740F2AF30C2F20000F7
:102A80000078002840F08480FFE740F28410C2F212
:102A90000000016801310160006845F69171C0F2E3
:102AA0000101884223D3FFE740F2E810C2F20000A0
:102AB0000168D1F8803040F2A812C2F20002116819
:102AC000194411600168D1F8843040F29012C2F2CA
:102AD00000021168194411600068D0F8882040F2A3
:102AE0009C11C2F20001086810440860FFE740F240
:102AF0008410C2F20000006848F2A061C0F2010137
:102B0000884244D1FFE740F28411C2F20001002064
:102B1000086040F2A813C2F2000393ED000AB8EE79
:102B2000400A9FED7B1A80EE010A40F2A411C2F226
:102B3000000181ED000A40F29012C2F2000292ED13
:102B4000000AB8EE400A80EE010A40F28C11C2F28F
:102B5000000181ED000A40F29C11C2F2000191EDEA
:102B6000000AB8EE400A80EE010A40F2981CC2F258
:102B7000000C8CED000A40F2AF3EC2F2000E4FF0A6
:102B8000010C8EF800C0186010600860FFE7AAE032
:102B900040F2E811C2F200010868D0F8800040F26B
:102BA000A012C2F2000210600868D0F8843040F22F
:102BB0008810C2F2000003600968D1F8883040F242
:102BC0009411C2F200010B6092ED000AB8EE400AC7
:102BD00040F2A412C2F2000292ED001A30EE410A55
:102BE0009FED442A80EE020A9FED431A20EE010A6F
:102BF0009FED423A20EE030A9FED413A30EE030A80
:102C000040F2B412C2F20002019282ED000A90ED8D
:102C1000000AB8EE400A40F28C10C2F2000090EDBB
:102C2000003A30EE430A80EE020A20EE010A9FEDE0
:102C3000353A80EE030A40F2AC10C2F2000080ED9B
:102C4000000A91ED000AB8EE400A40F29811C2F273
:102C5000000191ED003A30EE430A80EE020A20EEC8
:102C6000010A9FED291A20EE010A9FED281A30EE85
:102C7000010A40F2B011C2F20001039181ED000A95
:102C8000016840F23830C2F200000090C16003F0E9
:102C90001DFC00990198496940F23432C2F20002E9
:102CA0001160016840F2D030C2F200000290C160B1
:102CB00003F00CFC02990398496940F2CC32C2F24D
:102CC00000021160016840F2B430C2F200000490CA
:102CD000C16003F0FBFB0498406940F2B031C2F2DE
:102CE00000010860FFE7FFE705F09EFB05F060FAD2
:102CF00006B080BD0000804533335340000051438F
:102D0000295C8FBDCDCC4C3E000053430AD7A3BCF9
:102D100000401C4681B0009001B0704780B588B07B
:102D2000069040F20030C5F2000003F06BFA039009
:102D30000698006803F08EFA20B1FFE702208DF8B4
:102D40001F00E5E006980068C06800F000400490AD
:102D500006980068C06C10F4C07F0CD1FFE704989F
:102D600048B9FFE70699C86D40F02000C86501200A
:102D70008DF81F00CCE0FFE7069890F85800012876
:102D800004D1FFE702208DF81F00C1E00699012061
:102D900081F85800FFE7FFE70698FFF779F88DF80C
:102DA00017009DF81700002840F0A680FFE706985E
:102DB000C06DC005002806D5FFE70699086E20F013
:102DC0000800086603E0069900200866FFE70698F9
:102DD000C06D40F4805042F2010188430699C865F5
:102DE0000698006840F20011C5F20001884204D143
:102DF000FFE74FF0A040029003E0069800680290C1
:102E0000FFE7029806990968884203D0FFE7039814
:102E100030B9FFE70699C86D20F48010C865FFE758
:102E20000698016860200860FFE70699002081F895
:102E30005800FFE706980068C0688002002807D5A0
:102E4000FFE706980168486840F480604860FFE743
:102E50000698806908280DD1FFE706980168486840
:102E600020F02000486006980168486840F0400063
:102E700048600CE006980168486820F0400048600F
:102E800006980168486840F020004860FFE706980F
:102E9000006840F20011C5F20001884204D1FFE74A
:102EA0004FF0A040019003E0069800680190FFE712
:102EB00001980699096888420BD0FFE7039840B152
:102EC000FFE70398062804D0FFE7039807280CD1F2
:102ED000FFE70698006803F0ADF928B9FFE7069808
:102EE000006803F0CBF9FFE705E00699C86D40F4F0
:102EF0008010C865FFE706E0FFE70699002081F82B
:102F00005800FFE7FFE79DF817008DF81F00FFE767
:102F10009DF81F0008B080BD81B0009001B07047DF
:102F200081B0009001B0704780B5A4B0229021918B
:102F300000208DF883002198006808B1FFE7FFE7C3
:102F4000FFE7229890F85800012804D1FFE70220FB
:102F50008DF88F009FE02299012081F85800FFE74B
:102F6000FFE700201B901C9022980068B0F1A04F52
:102F700006D1FFE740F20010C5F20000049002E025
:102F800000200490FFE7049878B9FFE72299C86D04
:102F900040F02000C865FFE72299002081F8580022
:102FA000FFE701208DF88F0075E0049803F0ACF97D
:102FB00003902298006803F0A7F9002857D1FFE793
:102FC0000398002853D1FFE740F20030C5F200001B
:102FD0001F902198006860B3FFE71F98806820F475
:102FE000604021994968229A92F8382041EA42319A
:102FF00008431F9988604FF0A04003F06DF90290DC
:1030000040F20010C5F2000003F066F90146029894
:10301000084368B9FFE71F98806840F61F7188432E
:10302000219A11689268114308431F998860FFE74D
:103030001CE01F99886820F4604088604FF0A04031
:1030400003F04AF9019040F20010C5F2000003F0CD
:1030500043F901460198084338B9FFE71F9988688A
:1030600040F61F7290438860FFE7FFE708E022996F
:10307000C86D40F02000C86501208DF88300FFE78F
:10308000FFE72299002081F85800FFE79DF88300B0
:103090008DF88F00FFE79DF88F0024B080BD000001
:1030A00081B0009001B0704781B0009001B07047CE
:1030B00080B58EB00D9000200C900D9800680068CF
:1030C0000B900D98006840680A9040F20030C5F2FD
:1030D000000003F08FF805909DF82C008007002871
:1030E0001AD5FFE79DF828008007002814D5FFE7D0
:1030F0000D98C06DC006002806D4FFE70D99C86D75
:1031000040F40060C865FFE70D98FEF7C5FF0D9815
:10311000016802200860FFE79DF82C0040070028A6
:1031200006D5FFE70A9800F0040004280ED0FFE758
:103130009DF82C000007002840F19B80FFE79DF8D8
:1031400028000007002840F19480FFE70D98C06D2B
:10315000C006002806D4FFE70D99C86D40F4007042
:10316000C865FFE70D98006803F0D6F8002878D00E
:10317000FFE70D98006840F20011C5F20001884297
:1031800004D1FFE74FF0A040049003E00D980068E1
:103190000490FFE704980D99096888420BD0FFE777
:1031A000059840B1FFE70598052804D0FFE705988A
:1031B000092805D1FFE70D980068C068079016E060
:1031C0000D98006840F20011C5F20001884204D158
:1031D000FFE74FF0A040039003E00D9800680390D4
:1031E000FFE7039806900698C0680790FFE70798E6
:1031F00000F40050B0F5005F32D0FFE70D98006892
:103200000068000700282AD5FFE70D98006803F042
:1032100073F8C0B9FFE70D980168486820F00C000A
:1032200048600D99C86D20F48070C8650D98C06D18
:10323000C004002806D4FFE70D99C86D40F00100D6
:10324000C865FFE70AE00D99C86D40F01000C86539
:103250000D99086E40F001000866FFE7FFE7FFE701
:10326000FFE70D98FFF71CFF0D9801680C20086020
:10327000FFE79DF82C008006002806D5FFE70A9896
:1032800000F0200020280ED0FFE79DF82C0040061B
:10329000002840F1B280FFE79DF828004006002892
:1032A00040F1AB80FFE70D98C06DC006002806D442
:1032B000FFE70D99C86D40F40050C865FFE70D9811
:1032C000006802F0CFFF09900D98006803F024F821
:1032D00008900D98006840F20011C5F20001884284
:1032E00004D1FFE74FF0A040029003E00D98006882
:1032F0000290FFE702980D99096888420BD0FFE71A
:10330000059840B1FFE70598062804D0FFE7059827
:10331000072805D1FFE70D980068C068079016E000
:103320000D98006840F20011C5F20001884204D1F6
:10333000FFE74FF0A040019003E00D980068019076
:10334000FFE7019806900698C0680790FFE7099884
:1033500000284AD0FFE79DF81F00800700280AD503
:10336000FFE7089800283FD0FFE79DF81D00800682
:10337000002839D4FFE70D9800680068400600284F
:1033800031D5FFE79DF81E00800600282AD4FFE70C
:103390000D98006802F056FFC0B9FFE70D9801686C
:1033A000486820F0600048600D99C86D20F4805096
:1033B000C8650D98C06DC005002806D4FFE70D99BB
:1033C000C86D40F00100C865FFE70AE00D99C86DBF
:1033D00040F01000C8650D99086E40F001000866C5
:1033E000FFE7FFE7FFE7FFE7FFE70D98FFF738FB91
:1033F0000D98016860200860FFE79DF82C0000062A
:10340000002813D5FFE79DF82800000600280DD5F9
:10341000FFE70D99C86D40F48030C8650D9800F045
:1034200029FA0D98016880200860FFE79DF82D00BB
:10343000C00798B1FFE79DF82900C00770B1FFE70A
:103440000D99C86D40F40030C8650D98FFF764FD14
:103450000D9801684FF480700860FFE79DF82D001B
:103460008007002814D5FFE79DF829008007002871
:103470000ED5FFE70D99C86D40F48020C8650D9802
:10348000FFF74EFD0D9801684FF400700860FFE7EC
:103490009DF82C00C00600283ED5FFE79DF82800C7
:1034A000C006002838D5FFE70D98C06B18B9FFE7B4
:1034B00001200C9019E0059860B1FFE740F2003060
:1034C000C5F2000002F08EFE18B1FFE701200C905B
:1034D000FFE709E00D980068C068C00718B1FFE772
:1034E00001200C90FFE7FFE7FFE70C9801280ED1C1
:1034F000FFE70D99C86D40F48060C8650D99086EAE
:1035000040F0020008660D98FFF7CEFDFFE70D982A
:10351000016810200860FFE79DF82D004007002893
:1035200019D5FFE79DF829004007002813D5FFE7CC
:103530000D99C86D40F48040C8650D99086E40F043
:10354000080008660D9801684FF4806008600D98C7
:10355000FFF7E0FBFFE70EB080BD000080B588B04C
:10356000069000208DF817000190069820B9FFE71B
:1035700001208DF81F0079E10698406940B1FFE70E
:10358000069890F82400012801D1FFE7FFE7FFE744
:103590000698C06D50B9FFE7069800F06FF90699DC
:1035A00000200866069981F85800FFE70698006831
:1035B00002F07AFE28B1FFE70698006802F0D8FD15
:1035C000FFE70698006802F08FFEF0B9FFE7069863
:1035D000006802F0E7FD40F21000C2F2000000684F
:1035E000800942F66351C0F23E51A0FB01108109EF
:1035F000022000EB41000190FFE7019820B1FFE7B6
:10360000019801380190F8E7FFE70698006802F09A
:103610006BFE70B9FFE70699C86D40F01000C865F1
:103620000699086E40F00100086601208DF8170029
:10363000FFE70698006802F05FFE03900698C06DF1
:10364000C006002800F10481FFE70398002840F03D
:10365000FF80FFE70698C06D40F0020020F4807004
:103660000699C8650698006802F02EFED0B9FFE7FB
:103670004FF0A04002F028FE009040F20010C5F28A
:10368000000002F021FE01460098084348B9FFE718
:103690000698416840F20030C5F2000002F07EFE5C
:1036A000FFE7FFE706994A7FC86B40EA42308A6825
:1036B000CB681843104391F8241040EA014004906D
:1036C000069890F8240001280BD1FFE70698816A3C
:1036D0000020CFF6FE7000EB4141049808430490AF
:1036E000FFE70698C06A50B1FFE70699C86A096B00
:1036F00000F478700143049808430490FFE70698AB
:103700000068C06844F20701CFF6F07108400499E0
:10371000084306990968C86006980068006920F0A7
:103720004060069A1168526B104308610698006861
:1037300002F088FD02900398002868D1FFE7029804
:10374000002864D1FFE70699087F91F838108003BC
:1037500040EA4100049006980068C06844F2020103
:1037600088430499084306990968C8600698006967
:10377000A0B1FFE706980168086940F4803008614D
:1037800006980068D0F8C00043F6FF718843069A97
:10379000116812691043C1F8C00011E00698016871
:1037A000086920F48030086106980068D0F8C000ED
:1037B00043F6FF71884306990968C1F8C000FFE726
:1037C000069890F84000012819D1FFE70698006894
:1037D000006940F2FD7120EA0102069B1968586CED
:1037E000D3F848E0D3F84CC040EA0E0040EA0C00A1
:1037F0001B6D1843104340F00100086106E0069875
:103800000168086920F001000861FFE7FFE70698FA
:10381000406901280CD1FFE706980068006B20F092
:103820000F00069A1168126A013A1043086306E015
:1038300006980168086B20F00F000863FFE7069800
:10384000C06D40F0010020F002000699C86508E054
:103850000699C86D40F01000C86501208DF817006A
:10386000FFE79DF817008DF81F00FFE79DF81F0088
:1038700008B080BD81B0009001B0704780B59EB0A7
:103880001D9000201C901B901A901990189007A86A
:103890004421FCF7F3FD1D980068B0F1A04F5FD103
:1038A000FFE74FF4004007904FF00050169007A834
:1038B00000F0C4FB18B1FFE7FEF776FBFFE7FFE778
:1038C00041F24C00C4F20200016841F40051016071
:1038D000006800F4005006900698FFE7FFE741F209
:1038E0004C00C4F20200016841F00401016000686C
:1038F00000F0040005900598FFE7FFE741F24C0057
:10390000C4F20200016841F001010160006800F0AA
:10391000010004900498FFE7012018900320009014
:103920001990002002901A9040F60000C4F60000A2
:1039300018A9019100F016F8009A019902981892BE
:1039400019921A904FF0904000F00CF8029A122051
:103950000390114600F06EFA039800F061FAFFE759
:103960001EB080BD8BB00A90099100200890FFE73F
:10397000099800680899C840002800F0A581FFE771
:1039800009980068089A012191400840079007981B
:10399000002800F09581FFE70998406800F00300D7
:1039A000012807D0FFE70998406800F003000228CB
:1039B0002FD1FFE70A9880680690089841000320FD
:1039C00000FA01F10698884306900998C0680899A2
:1039D000490000FA01F106980843069006980A99F2
:1039E00088600A98406806900899012000FA01F161
:1039F00006988843069009984068C0F3001008991B
:103A000000FA01F106980843069006980A99486062
:103A1000FFE70998406800F00300032818D0FFE78B
:103A20000A98C068069008984100032000FA01F146
:103A3000069888430690099880680899490000FA1A
:103A400001F106980843069006980A99C860FFE7B6
:103A50000998406800F00300022826D1FFE70A9881
:103A600008996FF0030202EA51010844006A0690C7
:103A7000089800F0070081000F2000FA01F1069875
:103A80008843069009980069089901F007018900A8
:103A900000FA01F106980843069006980A99089BD7
:103AA00002EA530211440862FFE70A980068069090
:103AB00008984100032000FA01F106988843069017
:103AC0000998406800F003000899490000FA01F1E4
:103AD00006980843069006980A9908600998807924
:103AE0008007002800F0EB80FFE7FFE741F260006D
:103AF000C4F20200016841F001010160006800F0B9
:103B0000010005900598FFE7089820F003000821C0
:103B1000C4F2010140580690089800F003008100AB
:103B20000F2000FA01F10698884306900A98B0F138
:103B3000904F03D1FFE70020049042E00A9840F242
:103B40000041C4F60001884203D1FFE70120039041
:103B500034E00A9840F60001C4F60001884203D11F
:103B6000FFE70220029026E00A9840F60041C4F6E2
:103B70000001884203D1FFE70320019018E00A9872
:103B800041F20001C4F60001884203D1FFE704209E
:103B900000900AE00A9941F20042C4F600020620B1
:103BA000914208BF05200090FFE700980190FFE7D1
:103BB00001980290FFE702980390FFE703980490B2
:103BC000FFE70498089901F00301890000FA01F168
:103BD0000698084306900698089921F003010822E8
:103BE000C4F20102885040F20840C4F201000068AB
:103BF0000690079906988843069009988079C00630
:103C0000002805D5FFE70799069808430690FFE7C7
:103C1000069840F20841C4F20101086040F20C40ED
:103C2000C4F2010000680690079906988843069040
:103C3000099880798006002805D5FFE7079906983E
:103C400008430690FFE7069840F20C41C4F20101D8
:103C5000086040F20440C4F2010000680690079931
:103C6000069888430690099880798007002805D532
:103C7000FFE70799069808430690FFE7069840F289
:103C80000441C4F20101086040F20040C4F20100A6
:103C900000680690079906988843069009988079ED
:103CA000C00728B1FFE70799069808430690FFE789
:103CB000069840F20041C4F201010860FFE7FFE707
:103CC00008980130089053E60BB0704782B001901D
:103CD000ADF802108DF801209DF8010028B1FFE732
:103CE000BDF802000199886104E0BDF80200019965
:103CF0008862FFE702B0704740F2E830C2F200008D
:103D00000068704740F21C00C2F20000026840F2F6
:103D1000E831C2F2000108681044086070470000F2
:103D200080B582B000208DF80700032000F09AF8DB
:103D30000F2000F00DF820B1FFE701208DF80700FB
:103D400002E000F049F8FFE79DF8070002B080BDEF
:103D500080B582B0019000208DF8030040F21C0075
:103D6000C2F20000006878B3FFE740F21000C2F230
:103D70000000006840F21C01C2F200010A684FF422
:103D80007A71B1FBF2F1B0FBF1F001F0A1F9B0B939
:103D9000FFE701980F280DD8FFE701994FF0FF309A
:103DA000002200F047F8019840F22001C2F2000121
:103DB000086003E001208DF80300FFE703E0012025
:103DC0008DF80300FFE703E001208DF80300FFE713
:103DD0009DF8030002B080BD80B582B0FFE741F2DC
:103DE0006000C4F20200016841F001010160006856
:103DF00000F0010001900198FFE7FFE741F2580051
:103E0000C4F20200016841F080510160006800F0D6
:103E1000805000900098FFE700F006F902B080BDE6
:103E200080B582B08DF807009DF9070004F060F9B5
:103E300002B080BD80B586B08DF817000491039262
:103E400004F06EF902909DF9170001900298049910
:103E5000039A02F071FD0146019804F069F906B079
:103E600080BD000080B582B00190019804F082F915
:103E700002B080BD85B00390039800285ED1FFE7B3
:103E800047F20000C4F20000006800F4C060B0F522
:103E9000806F49D1FFE747F28001C4F20001086852
:103EA00020F48070086047F20002C4F2000211683A
:103EB000012060F34A21116040F21001C2F20001BA
:103EC0000968322251434DF68362C4F21B32A1FBD2
:103ED000022100EB91400290FFE747F21400C4F288
:103EE00000000168002049050029019006D5FFE780
:103EF0000298002818BF01200190FFE70198C00731
:103F000020B1FFE7029801380290E6E747F214007B
:103F1000C4F2000000684005002804D5FFE7032034
:103F20008DF813007CE008E047F28001C4F2000144
:103F3000086820F480700860FFE76DE00398B0F532
:103F4000007F5ED1FFE747F20000C4F20000006886
:103F500000F4C060B0F5806F49D1FFE747F28001FF
:103F6000C4F20001086840F48070086047F2000263
:103F7000C4F200021168012060F34A21116040F28E
:103F80001001C2F200010968322251434DF68362EA
:103F9000C4F21B32A1FB022100EB91400290FFE72B
:103FA00047F21400C4F2000001680020490500290E
:103FB000009006D5FFE70298002818BF0120009066
:103FC000FFE70098C00720B1FFE702980138029090
:103FD000E6E747F21400C4F200000068400500283C
:103FE00004D5FFE703208DF8130019E008E047F23D
:103FF0008001C4F20001086840F480700860FFE7A7
:1040000009E047F20001C4F200010868022262F3ED
:104010004A200860FFE7FFE700208DF81300FFE764
:104020009DF8130005B0704747F20801C4F2000183
:10403000086840F4804008607047000080B586B092
:10404000059000208DF80B008DF80A000598807807
:104050000007002840F1B580FFE700208DF8090037
:1040600041F25800C4F202000068C000002813D4D6
:10407000FFE7FFE741F25800C4F20200016841F097
:1040800080510160006800F0805001900198FFE7C6
:1040900001208DF80900FFE747F20001C4F200019A
:1040A000086840F480700860FFF726FE0390FFE781
:1040B00047F20000C4F200000068C00500280CD4DC
:1040C000FFE7FFF719FE0399401A032804D3FFE71F
:1040D00003208DF80B0000E0EAE79DF80B000028B4
:1040E0005BD1FFE741F29000C4F20200006800F4E7
:1040F000407004900498C8B1FFE704980599096CD2
:10410000884213D0FFE741F29001C4F2020108682F
:1041100020F440700490086840F48030086008681B
:1041200020F48030086004980860FFE79DF81000D4
:10413000C007E0B1FFE7FFF7DFFD0390FFE741F2C3
:104140009000C4F202000068800700280ED4FFE748
:10415000FFF7D2FD0399401A41F28931884204D316
:10416000FFE703208DF80B0000E0E8E7FFE79DF88C
:104170000B0060B9FFE741F29001C4F20201086848
:1041800020F44070059A126C1043086004E09DF81A
:104190000B008DF80A00FFE704E09DF80B008DF896
:1041A0000A00FFE79DF80900012809D1FFE741F265
:1041B0005801C4F20201086820F080500860FFE74F
:1041C000FFE705980078C00760B1FFE741F288017A
:1041D000C4F20201086820F00300059A52681043F7
:1041E0000860FFE705980078800700280CD5FFE7F6
:1041F00041F28801C4F20201086820F00C00059A1F
:10420000926810430860FFE705980078400700288F
:104210000CD5FFE741F28801C4F20201086820F0E2
:104220003000059AD26810430860FFE705980078CF
:10423000000700280CD5FFE741F28801C4F2020113
:10424000086820F0C000059A126910430860FFE773
:1042500005980078800600280CD5FFE741F2880118
:10426000C4F20201086820F44060059A52691043C4
:104270000860FFE705980078400600280CD5FFE7A6
:1042800041F28801C4F20201086820F44050059A06
:10429000926910430860FFE705980078000600283F
:1042A0000CD5FFE741F28801C4F20201086820F44E
:1042B0004040059AD26910430860FFE705984078AE
:1042C000C00760B1FFE741F28801C4F2020108684B
:1042D00020F44030059A126A10430860FFE7059801
:1042E0004078800700280CD5FFE741F28801C4F22E
:1042F0000201086820F44020059A526A10430860C1
:10430000FFE705984078400700281BD5FFE741F2FA
:104310008801C4F20201086820F44010059A926AEC
:10432000104308600598806AB0F5801F09D1FFE747
:1043300041F20C01C4F20201086840F480100860E8
:10434000FFE7FFE705984078000700281BD5FFE747
:1043500041F28801C4F20201086820F44000059A85
:10436000D26A104308600598C06AB0F5800F09D181
:10437000FFE741F20C01C4F20201086840F480102A
:104380000860FFE7FFE705984078C00600281BD5C6
:10439000FFE741F28801C4F20201086820F0407092
:1043A000059A126B104308600598006BB0F1807F8E
:1043B00009D1FFE741F20C01C4F20201086840F4A0
:1043C00080100860FFE7FFE7059840788006002826
:1043D0001BD5FFE741F28801C4F20201086820F012
:1043E0004060059A526B104308600598406BB0F12D
:1043F000006F09D1FFE741F20C01C4F20201086825
:1044000040F480100860FFE7FFE705984078400619
:1044100000281BD5FFE741F28801C4F202010868B9
:1044200020F04060059A926B104308600598806BFD
:10443000B0F1006F09D1FFE741F20C01C4F20201B3
:10444000086840F480100860FFE7FFE705984078AF
:10445000000600281BD5FFE741F28801C4F20201E3
:10446000086820F04050059AD26B10430860059808
:10447000C06BB0F1805F09D1FFE741F20C01C4F2DB
:104480000201086840F480300860FFE7FFE79DF80C
:104490000A0006B080BD000080B586B0049003918C
:1044A00000200090049820B9FFE701208DF8170044
:1044B00081E1039842F20001C4F20201096801F0AF
:1044C0000F01884216D9FFE742F20000C4F2020051
:1044D000016821F00F01039A11430160006800F0A8
:1044E0000F000399884204D0FFE701208DF81700E0
:1044F00061E1FFE704980078C007002800F0A3807E
:10450000FFE704984068032839D1FFE741F2000033
:10451000C4F2020000688001002804D4FFE70120F3
:104520008DF8170047E102F0D7FA019001984BF29D
:104530000141C0F2C441884220D3FFE741F20800A4
:10454000C4F20200006810F0F00F0AD0FFE70498F0
:1045500000788007002810D5FFE70498806860B9CC
:10456000FFE741F20801C4F202010868082262F381
:104570000710086080200090FFE7FFE738E004980C
:10458000406802280ED1FFE741F20000C4F20200A9
:1045900000688003002804D4FFE701208DF817008D
:1045A00009E10DE041F20000C4F20200006840059C
:1045B000002804D4FFE701208DF81700FBE0FFE797
:1045C00000F02CF9019001984BF20141C0F2C44176
:1045D00088420CD3FFE741F20801C4F202010868E7
:1045E000082262F30710086080200090FFE7FFE7D1
:1045F00041F20801C4F20201086820F00300049AA5
:10460000526810430860FFF777FB0290FFE741F222
:104610000800C4F20200006800F00C000499496828
:10462000B0EB810F0ED0FFE7FFF766FB0299401A4F
:1046300041F28931884204D3FFE703208DF8170047
:10464000B9E0E4E7FFE704980078800700282CD55C
:10465000FFE7049800784007002809D5FFE741F2FA
:104660000801C4F20201086840F4E0600860FFE756
:1046700004980078000700280BD5FFE741F20801F5
:10468000C4F20201086840F4E06020F46050086061
:10469000FFE741F20801C4F20201086820F0F000CF
:1046A000049A9268104308600DE00098802809D1B0
:1046B000FFE741F20801C4F20201086820F0F000AF
:1046C0000860FFE7FFE7039842F20001C4F202012D
:1046D000096801F00F01884228D2FFE742F2000189
:1046E000C4F20201086820F00F00039A104308602A
:1046F000FFF702FB0290FFE742F20000C4F2020063
:10470000006800F00F00039988420ED0FFE7FFF722
:10471000F3FA0299401A41F28931884204D3FFE743
:1047200003208DF8170046E0E6E7FFE704980078DD
:10473000400700280CD5FFE741F20801C4F202014E
:10474000086820F4E060049AD26810430860FFE72C
:1047500004980078000700280DD5FFE741F2080112
:10476000C4F20201086820F46050049A126940EA19
:10477000C2000860FFE700F051F841F20801C4F2FE
:1047800002010968C9B20A0949F22C01C0F6000108
:10479000895C01F01F01C84040F21001C2F2000123
:1047A000086040F22000C2F200000068FFF7D0FA73
:1047B0008DF81700FFE79DF8170006B080BD0000D8
:1047C00040F21000C2F200000068704780B5FFF7A9
:1047D000F7FF41F20801C4F202010968C1F30222A5
:1047E00049F23C01C0F60001895C01F01F01C8409C
:1047F00080BD000080B5FFF7E3FF41F20801C4F27D
:1048000002010968C1F3C22249F23C01C0F600016D
:10481000895C01F01F01C84080BD000086B041F2F4
:104820000800C4F20200006800F00C00042806D161
:10483000FFE742F20040C0F2F400019069E041F26B
:104840000800C4F20200006800F00C00082806D13D
:10485000FFE741F60030C0F2B700019058E041F2A6
:104860000800C4F20200006800F00C000C284BD1D4
:10487000FFE741F20C00C4F20200016801F00301FD
:1048800004910068C1B2012000EB1110029004985D
:104890000090022815D0FFE70098032812D1FFE707
:1048A000029941F60030C0F2B700B0FBF1F041F2DE
:1048B0000C01C4F202010968C1F3062148430590C6
:1048C00011E0FFE7029942F20040C0F2F400B0FBB1
:1048D000F1F041F20C01C4F202010968C1F30621B2
:1048E00048430590FFE741F20C00C4F20200006863
:1048F00000F0C061022000EB11600390059803995D
:10490000B0FBF1F0019002E000200190FFE7FFE72B
:10491000FFE7019806B07047B0B588B006900698DA
:1049200020B9FFE701208DF81F00CCE3069800783E
:10493000C007002800F09B80FFE741F20800C4F2A6
:104940000200006800F00C00049041F20C00C4F278
:104950000200006800F00300039004980C2804D1C2
:10496000FFE70398032804D0FFE70498082812D132
:10497000FFE741F20000C4F2020000688003002853
:1049800008D5FFE70698406820B9FFE701208DF8B9
:104990001F0098E36AE0FFE706984068B0F5803FA3
:1049A00009D1FFE741F20001C4F20201086840F4B6
:1049B0008030086020E006984068B0F5A02F0DD147
:1049C000FFE741F20001C4F20201086840F48020D0
:1049D0000860086840F4803008600CE041F2000193
:1049E000C4F20201086820F480300860086820F4EE
:1049F00080200860FFE7FFE7FFE706984068D0B136
:104A0000FFE7FFF779F90590FFE741F20000C4F2F4
:104A100002000068800300280CD4FFE7FFF76CF960
:104A20000599401A652804D3FFE703208DF81F007D
:104A300049E3EAE719E0FFF75FF90590FFE741F284
:104A40000000C4F202000068800300280CD5FFE7D4
:104A5000FFF752F90599401A652804D3FFE70320B0
:104A60008DF81F002FE3EAE7FFE7FFE7FFE706986F
:104A700000788007002840F19F80FFE741F208009E
:104A8000C4F20200006800F00C00049041F20C0037
:104A9000C4F20200006800F00300039004980C28A0
:104AA00004D1FFE70398022804D0FFE70498042804
:104AB0002CD1FFE741F20000C4F20200006840057B
:104AC000002808D5FFE70698C06820B9FFE7012055
:104AD0008DF81F00F7E241F20401C4F202010868F8
:104AE00020F0FE40069A126940EA0260086040F237
:104AF0002000C2F200000068FFF72AF920B1FFE7AA
:104B000001208DF81F00DEE2FFE754E00698C06840
:104B100070B3FFE741F20001C4F20201086840F4FB
:104B200080700860FFF7E8F80590FFE741F20000A9
:104B3000C4F202000068400500280CD4FFE7FFF72C
:104B4000DBF80599401A032804D3FFE703208DF80A
:104B50001F00B8E2EAE741F20401C4F2020108686A
:104B600020F0FE40069A126940EA0260086021E0E7
:104B700041F20001C4F20201086820F4807008606C
:104B8000FFF7BAF80590FFE741F20000C4F2020017
:104B90000068400500280CD5FFE7FFF7ADF8059940
:104BA000401A032804D3FFE703208DF81F008AE290
:104BB000EAE7FFE7FFE7FFE706980078000700282D
:104BC00049D5FFE70698406910B3FFE741F2940129
:104BD000C4F20201086840F001000860FFF78CF899
:104BE0000590FFE741F29400C4F2020000688007DC
:104BF00000280CD4FFE7FFF77FF80599401A032837
:104C000004D3FFE703208DF81F005CE2EAE721E010
:104C100041F29401C4F20201086820F0010008602A
:104C2000FFF76AF80590FFE741F29400C4F2020032
:104C30000068800700280CD5FFE7FFF75DF80599AD
:104C4000401A032804D3FFE703208DF81F003AE23F
:104C5000EAE7FFE7FFE7069800784007002840F101
:104C6000C680FFE700208DF80B0041F25800C4F227
:104C700002000068C000002813D4FFE7FFE741F2FC
:104C80005800C4F20200016841F0805101600068E0
:104C900000F0805001900198FFE701208DF80B0093
:104CA000FFE747F20000C4F200000068C0050028DA
:104CB00022D4FFE747F20001C4F20001086840F483
:104CC00080700860FFF718F80590FFE747F20000D2
:104CD000C4F200000068C00500280CD4FFE7FFF70D
:104CE0000BF80599401A032804D3FFE703208DF839
:104CF0001F00E8E1EAE7FFE7FFE706988068012880
:104D000009D1FFE741F29001C4F20201086840F0C6
:104D1000010008601FE00698806805280DD1FFE7B4
:104D200041F29001C4F20201086840F004000860FA
:104D3000086840F0010008600CE041F29001C4F204
:104D40000201086820F001000860086820F00400F3
:104D50000860FFE7FFE7FFE706988068E0B1FFE73C
:104D6000FEF7CAFF0590FFE741F29000C4F202008F
:104D70000068800700280ED4FFE7FEF7BDFF059905
:104D8000401A41F28931884204D3FFE703208DF8AD
:104D90001F0098E1E8E71BE0FEF7AEFF0590FFE794
:104DA00041F29000C4F202000068800700280ED58E
:104DB000FFE7FEF7A1FF0599401A41F289318842C9
:104DC00004D3FFE703208DF81F007CE1E8E7FFE74D
:104DD0009DF80B00012809D1FFE741F25801C4F208
:104DE0000201086820F080500860FFE7FFE706989E
:104DF00000788006002849D5FFE70698806910B33F
:104E0000FFE741F29801C4F20201086840F0010096
:104E10000860FEF771FF0590FFE741F29800C4F2C9
:104E200002000068800700280CD4FFE7FEF764FF4B
:104E30000599401A032804D3FFE703208DF81F00CB
:104E400041E1EAE721E041F29801C4F20201086879
:104E500020F001000860FEF74FFF0590FFE741F2E8
:104E60009800C4F202000068800700280CD5FFE714
:104E7000FEF742FF0599401A032804D3FFE70320F9
:104E80008DF81F001FE1EAE7FFE7FFE70698C0691A
:104E9000002800F01481FFE741F20800C4F202008C
:104EA000006800F00C000C2800F0B080FFE70698C6
:104EB000C06902287CD1FFE741F20001C4F202017F
:104EC000086820F080700860FEF716FF0590FFE785
:104ED00041F20000C4F202000068800100280CD5F5
:104EE000FFE7FEF709FF0599401A032804D3FFE7FF
:104EF00003208DF81F00E6E0EAE741F20C01C4F25E
:104F00000201086848F20C02C0F29F121040DDF85E
:104F100018C0DCF82020DCF82450DCF828E0DCF8AD
:104F20002C306FF00F0404EB0514224342EA0E22EA
:104F3000DCF8304040F2000ECFF6E07E0EEA045E70
:104F4000AEF5001E42EA0E02DCF834E04FF07E4C73
:104F50000CEA0E6C0CF17E4C42EA0C0242EAC3628F
:104F60001043086041F20002C4F20202106840F0EF
:104F700080701060086840F080700860FEF7BCFE2A
:104F80000590FFE741F20000C4F2020000688001D2
:104F900000280CD4FFE7FEF7AFFE0599401A03285E
:104FA00004D3FFE703208DF81F008CE0EAE72CE034
:104FB00041F20001C4F20201086820F0807008602C
:104FC000FEF79AFE0590FFE741F20000C4F20200EE
:104FD0000068800100280CD5FFE7FEF78DFE0599DB
:104FE000401A032804D3FFE703208DF81F006AE06E
:104FF000EAE741F20C01C4F2020108684FF6FC72C4
:10500000CFF6EE6210400860FFE757E00698C069EF
:10501000012804D1FFE701208DF81F0053E041F281
:105020000C00C4F2020000680390039800F0030033
:105030000699096A88423BD1FFE7039800F0F00027
:1050400006994A6A6FF00F0101EB021188422FD1D5
:10505000FFE7039800F4FE400699896AB0EB012F40
:1050600026D1FFE7039800F078400699C96AB0EBB3
:10507000C16F1DD1FFE7039800F4C00006990A6BC9
:105080000021CFF6E07101EA0251A1F5001188423A
:105090000ED1FFE7039800F0C06006994A6B4FF00D
:1050A0007E4101EA026101F17E41884204D0FFE7BE
:1050B00001208DF81F0006E0FFE7FFE7FFE7002073
:1050C0008DF81F00FFE79DF81F0008B0B0BD00007D
:1050D00080B582B00190019801F04EFD02B080BD14
:1050E00084B00290019100200090FFE7029890F8B0
:1050F0003C00012804D1FFE702208DF80F0083E077
:105100000299012081F83C00FFE7FFE7009820F0BA
:10511000FF000199C96808430090009820F440708E
:105120000199896808430090009820F480600199F3
:10513000496808430090009820F4006001990968CC
:1051400008430090009820F48050019909690843B1
:105150000090009820F4005001994969084300909C
:10516000009820F480400199096B08430090009852
:1051700020F470200199896940EA0140009000986C
:1051800020F080500199C969084300900298006896
:1051900042F60041C4F20101884209D0FFE70298BB
:1051A000006843F20041C4F2010188421ED1FFE7CA
:1051B000009820F470000199896A40EA015000903B
:1051C000009820F080700199096A084300900098C7
:1051D00020F000700199496A08430090009820F07F
:1051E00000500199C96A08430090FFE700980299AE
:1051F00009684864FFE70299002081F83C00FFE756
:1052000000208DF80F00FFE79DF80F0004B07047F5
:1052100085B003900291FFE7039890F83C000128C5
:1052200004D1FFE702208DF813008CE003990120E0
:1052300081F83C00FFE7FFE70399022081F83D0079
:1052400003980068406801900398006880680090A7
:105250000398006842F60041C4F20101884209D077
:10526000FFE70398006843F20041C4F2010188425D
:105270000AD1FFE7019820F470000190029841687C
:10528000019808430190FFE701984FF68F71CFF620
:10529000FF5108400190029801680198084301906D
:1052A00001980399096848600398006842F6004134
:1052B000C4F2010188422AD0FFE703980068B0F1E8
:1052C000804F24D0FFE70398006840F20041C4F209
:1052D000000188421BD0FFE70398006840F60001F8
:1052E000C4F20001884212D0FFE70398006843F23D
:1052F0000041C4F20101884209D0FFE70398006829
:1053000044F20001C4F2010188420ED1FFE7009887
:1053100020F0800000900298816800980843009077
:105320000098039909688860FFE70399012081F8D4
:105330003D00FFE70399002081F83C00FFE70020D3
:105340008DF81300FFE79DF8130005B070470000CB
:1053500080B58AB008900791079828B9FFE70898A8
:1053600090F8440005901CE00798042805D1FFE759
:10537000089890F84500049010E00798082805D197
:10538000FFE7089890F84600039004E0089890F82A
:1053900047000390FFE703980490FFE70498059007
:1053A000FFE70598012804D0FFE701208DF82700CA
:1053B00089E0079828B9FFE70899022081F844009E
:1053C0001EE00798042806D1FFE70899022081F81B
:1053D0004500029012E00798082806D1FFE70899D7
:1053E000022081F84600019005E00899022081F82A
:1053F00047000190FFE701980290FFE70298FFE75E
:10540000089800680799042201F010FD08980168C7
:10541000486C40F4004048640898006842F6004137
:10542000C4F2010188422AD0FFE708980068B0F171
:10543000804F24D0FFE70898006840F20041C4F292
:10544000000188421BD0FFE70898006840F6000181
:10545000C4F20001884212D0FFE70898006843F2C6
:105460000041C4F20101884209D0FFE708980068B2
:1054700044F20001C4F20101884219D1FFE7089803
:10548000006880680721C0F2010108400690069874
:1054900006280CD0FFE70698B0F5803F07D0FFE75D
:1054A00008980168086840F001000860FFE706E01E
:1054B00008980168086840F001000860FFE70020D4
:1054C0008DF82700FFE79DF827000AB080BD000097
:1054D00080B582B00090009820B9FFE701208DF8D8
:1054E000070045E0009890F83D0040B9FFE70099BB
:1054F000002081F83C00009800F03EF8FFE700999A
:10550000022081F83D00009951F8040B01F0A6FB40
:105510000099012081F84800FFE70099012081F8F7
:105520003E00009981F83F00009981F84000009901
:1055300081F84100009981F84200009981F8430008
:10554000FFE7FFE70099012081F84400009981F806
:105550004500009981F84600009981F84700FFE76F
:105560000099012081F83D0000208DF80700FFE739
:105570009DF8070002B080BD82B0019001980068DC
:1055800042F60041C4F20101884210D1FFE7FFE773
:1055900041F26000C4F20200016841F40061016060
:1055A000006800F4006000900098FFE7FFE702B099
:1055B0007047000080B586B00490039100208DF8FC
:1055C0000B00FFE7049890F83C00012804D1FFE7A6
:1055D00002208DF81700D3E00499012081F83C00E7
:1055E000FFE7FFE70499022081F83D000498006876
:1055F0008068019001984FF68871CFF6CE7108400F
:105600000190019820F47F40019001980499096865
:105610008860039800680090002800F09780FFE7FA
:105620000098102800F09280FFE70098202800F0F2
:105630008D80FFE70098302800F08880FFE7009811
:10564000402876D0FFE70098502858D0FFE7009810
:10565000602861D0FFE7009870282CD0FFE7009801
:10566000B0F5805F26D0FFE70098B0F5005F37D037
:10567000FFE70098B0F1101F68D0FFE700982021E5
:10568000C0F21001884261D0FFE700983021C0F2DB
:10569000100188425AD0FFE700984021C0F2100163
:1056A000884253D0FFE700987021C0F21001884271
:1056B0004CD052E055E004980068039B5A68996802
:1056C000DB6801F0CFFB04980068806801900198C6
:1056D00040F077000190019804990968886040E0E3
:1056E00004980068039B5A689968DB6801F0BAFB6C
:1056F00004980168886840F48040886031E004982C
:105700000068039A5168D26801F084FF0498006829
:10571000502101F0C1FB24E004980068039A51680D
:10572000D26801F09FFF04980068602101F0B4FB8B
:1057300017E004980068039A5168D26801F06AFF84
:1057400004980068402101F0A7FB0AE00498006873
:105750000399096801F0A0FB03E001208DF80B001C
:10576000FFE70499012081F83D00FFE7049900203C
:1057700081F83C00FFE79DF80B008DF81700FFE76C
:105780009DF8170006B080BD80B58EB00D9000204A
:105790000C900B900A90099008900D98006842F6C2
:1057A0000041C4F20101884262D1FFE7FFE741F204
:1057B0004C00C4F20200016841F00401016000687D
:1057C00000F0040007900798FFE7FFE741F24C0064
:1057D000C4F20200016841F001010160006800F0BC
:1057E000010006900698FFE7FFE741F24C00C4F283
:1057F0000200016841F002010160006800F002004F
:1058000005900598FFE7062001900890022002907D
:105810000990002103910A910B910C9040F6000031
:10582000C4F6000008A90491FEF79CF80198029BB9
:10583000039A04994FF4805CCDF820C009930A9232
:105840000B920C904FF09040FEF78CF8029A039860
:1058500004994FF40073089309920A900B900C205E
:105860000C9040F20040C4F60000FEF77BF8FFE722
:105870000EB080BD80B586B00490039102920020E6
:105880008DF80700FFE7049890F83C00012804D148
:10589000FFE702208DF81700C0E00499012081F88D
:1058A0003C00FFE7FFE702980090142800F2A78071
:1058B0000099DFE801F00BA4A4A424A4A4A43EA4AE
:1058C000A4A457A4A4A471A4A4A48A000498006862
:1058D000039901F0F9FA04980168886940F008001A
:1058E000886104980168886920F004008861039841
:1058F00002690498016888691043886183E004980C
:105900000068039901F08AFB04980168886940F4F3
:105910000060886104980168886920F4806088616B
:105920000398026904980168886940EA0220886146
:1059300069E004980068039901F028FC0498016864
:10594000C86940F00800C86104980168C86920F07F
:105950000400C8610398026904980168C86910438B
:10596000C86150E004980068039901F0C7FC0498EE
:105970000168C86940F40060C86104980168C8699A
:1059800020F48060C8610398026904980168C869BE
:1059900040EA0220C86136E004980068039901F0EB
:1059A00065FD04980168086D40F0080008650498DA
:1059B0000168086D20F004000865039802690498E6
:1059C0000168086D104308651DE00498006803999C
:1059D00001F0B6FD04980168086D40F400600865A8
:1059E00004980168086D20F48060086503980269D6
:1059F00004980168086D40EA0220086503E0012070
:105A00008DF80700FFE7FFE70499002081F83C00CC
:105A1000FFE79DF807008DF81700FFE79DF81700D6
:105A200006B080BD80B582B00090009820B9FFE735
:105A300001208DF8070045E0009890F83D0040B93E
:105A4000FFE70099002081F83C00009800F03EF844
:105A5000FFE70099022081F83D00009951F8040BFE
:105A600001F0FCF80099012081F84800FFE7009957
:105A7000012081F83E00009981F83F00009981F8EB
:105A80004000009981F84100009981F84200009996
:105A900081F84300FFE7FFE70099012081F8440007
:105AA000009981F84500009981F84600009981F835
:105AB0004700FFE70099012081F83D0000208DF8A4
:105AC0000700FFE79DF8070002B080BD81B000909D
:105AD00001B0704780B590B00E900D910D9828B927
