:020000040800F2
:10000000B0050020ED010008015400083D4D000836
:10001000FD53000881090008ED6B00080000000096
:10002000000000000000000000000000655600080D
:100030008509000800000000C5550008BD560008ED
:10004000070200080702000807020008070200086C
:10005000070200080702000807020008070200085C
:10006000070200080702000807020008070200084C
:10007000070200080702000807020008070200083C
:1000800007020008000000009D07000807020008A2
:10009000070200080702000807020008070200081C
:1000A000070200084D570008070200080702000871
:1000B00007020008070200080702000807020008FC
:1000C00007020008070200080702000807020008EC
:1000D00007020008070200080702000807020008DC
:1000E00007020008070200080702000807020008CC
:1000F00007020008070200080702000800000000CD
:1001000000000000070200080000000007020008CD
:1001100007020008000000000702000807020008AC
:10012000070200080702000807020008070200088B
:10013000070200080000000000000000070200089D
:10014000070200080702000800000000000000008D
:10015000000000000000000000000000000000009F
:10016000000000000000000000000000070200087E
:10017000070200080000000000000000000000006E
:10018000000000000702000800000000000000005E
:10019000000000000000000000000000000000005F
:1001A000000000000000000007020008070200082D
:1001B000070200080702000807020008000000000C
:1001C000000000000702000800000000000000001E
:1001D0000702000807020008DFF80CD000F05CFA04
:1001E00000480047F16D0008B00500200648804730
:1001F00006480047FEE7FEE7FEE7FEE7FEE7FEE70C
:10020000FEE7FEE7FEE7FEE739570008D9010008E0
:100210002DE9F05F0546002092469B46884606463B
:10022000814640241BE0284641464746224600F0CE
:100230006AF853465A46C01A914110D311461846DF
:10024000224600F051F82D1A67EB01084F4622466E
:100250000120002100F048F817EB00094E41201E54
:10026000A4F10104DFDC484631462A464346BDE896
:10027000F09FD2B201E000F8012B491EFBD270477B
:100280000022F6E710B513460A4604461946FFF762
:10029000F0FF204610BD00F0004230F000400AD0D0
:1002A000C10D01F56071C0F3160042EA0151C208A8
:1002B00040071143704700200146704730B50B4698
:1002C000014600202022012409E021FA02F59D4286
:1002D00005D303FA02F5491B04FA02F52844151E5A
:1002E000A2F10102F1DC30BD202A04DB203A00FA41
:1002F00002F1002070479140C2F1200320FA03F37D
:10030000194390407047202A04DB203A21FA02F07A
:100310000021704721FA02F3D040C2F1200291403F
:100320000843194670472DE9FE4F804681EA0300D5
:10033000C00F0C46009021F0004123F00045B8EBBF
:100340000200A94105D24046214690461C460B4674
:10035000024623F00040104347D0270DC7F30A00A0
:10036000C3F30A510290401A019040286BDAC3F39C
:10037000130040F4801B0098924620B10023D2EB7A
:10038000030A63EB0B0B01985946C0F1400250463B
:10039000FFF7AAFF06460D4650465946019A00F05F
:1003A0008DF910EB08006141002487EA115284EABC
:1003B000E7731A4340D0009A62B3019A012A4FEAC8
:1003C000075215DC001B61EB02014FF0004202EA0C
:1003D0000752CDE90042001C41F5801132462B4600
:1003E00000F08DF903B0BDE8F08F40462146F9E7F3
:1003F000001B61EB0201001C41F5801300185B41FA
:100400002018A2F5001747EB030140EAD570B61992
:100410006D4111E06D084FEA360645EAC0754FEAB6
:100420000752001B61EB0201001C41F580114908D5
:100430004FEA30000019514132462B4603B0BDE867
:10044000F04F00F04DB90098012240000023D0EB9E
:10045000020263EBE073009821464FEAE074B8EBC8
:10046000000061EB0401E9E783F000435BE781F002
:10047000004158E72DE9FE4F81EA030404F00044EF
:1004800021F0004100944FF0000B23F0004350EAAC
:1004900001045ED052EA03045BD0C3F30A54C1F3F3
:1004A0000A552C44A4F2F3340194A0FB0254C1F386
:1004B000130141F48011C3F3130343F4801301FBD0
:1004C000024400FB034E840A970A44EA815447EA37
:1004D0008357A4FB076802958D0A05FB07854FEA41
:1004E000932C04FB0C542705029D4FEA065847EA5B
:1004F0001637B5EB08056EEB070C870E920E47EA30
:10050000811742EA8312A7FB0201B6EB0B0164EBF1
:1005100000042B0D43EA0C335E1844EB1C50DA4602
:100520005146E7FB0201C5F313044FEA0B3343EADC
:1005300014534FEA0432019C43EA0603A4F10C046D
:100540000294009CCDE900B400F0D9F803B0BDE8F6
:10055000F08F00200146F9E72DE9F04D81EA030410
:1005600004F0004B21F0004514464FF0000A23F040
:10057000004150EA050220D054EA01021DD0C5F323
:100580000A570246C5F31303C1F31300C1F30A5619
:1005900040F4801543F48013A7EB0608101BD646E1
:1005A00008F2FD3873EB050002D308F1010801E001
:1005B00092185B41B8F1000F03DA00200146BDE854
:1005C000F08D00204FF48011064684460EE0171B84
:1005D00073EB050705D3121B63EB050306434CEAD7
:1005E000010C49084FEA300092185B4150EA0107BC
:1005F000EDD152EA030012D082EA040083EA050139
:10060000084305D0101BAB4106D20122002306E0AF
:1006100000224FF0004302E06FF0010253101AEB8A
:1006200006004CEB085110EB0A0041EB0B01BDE852
:10063000F04D00F055B8C1F30A52C1F3130140F276
:10064000FF3341F480119A4202DA002001467047DC
:1006500040F233439A42A2F2334202DC5242FFF7A5
:1006600052BEFFF741BE000030B5041E71F1000418
:1006700004DB4FF00044404264EB0101141E73F1AF
:10068000000405DB1C464FF00043524263EB0403B9
:10069000994208BF904230BD064C074D06E0E06825
:1006A00040F0010394E8070098471034AC42F6D3B9
:1006B000FFF796FD80770008A0770008202A06DB68
:1006C000CB17203A41FA02F043EAE07306E041FA20
:1006D00002F3D040C2F1200291400843194670470E
:1006E00010B5141E73F1000408DA401C41F100013A
:1006F00092185B411A4301D120F0010010BD2DE991
:10070000F04D92469B4611B1B1FA81F202E0B0FA87
:1007100080F220329046FFF7E7FD04460F4640EA9C
:100720000A0041EA0B0153465A46084313D01146CA
:1007300053EA010019D0C8F140025046FFF7E3FD2B
:1007400005460E46504659464246FFF7CDFD084342
:1007500005D0012004E020463946BDE8F08D002098
:10076000054346EAE0762C4337430A986305E40ADA
:10077000A0EB08000022FD0A44EA47540A3002D5E3
:1007800000200146E9E7010510196941DDE9084546
:1007900000196941BDE8F04DA2E7000080B540F2C4
:1007A0002800C2F2000001F097F880BD80B584B047
:1007B00002900298006804F075FB009002980068AF
:1007C00004F078FB00284BD0FFE70098002847D1C1
:1007D000FFE702980068806800F00D00012809D149
:1007E000FFE70298006804F0ABFA02980168032062
:1007F00008600DE00299C86D40F01000C8650299CC
:10080000086E40F00100086601208DF80F002BE013
:1008100001F054FE0190FFE7029800688068C0076D
:10082000E8B1FFE701F04AFE0199401A032815D309
:10083000FFE7029800688068C00770B1FFE702997F
:10084000C86D40F01000C8650299086E40F00100C4
:10085000086601208DF80F0006E0FFE7DCE7FFE700
:1008600000208DF80F00FFE79DF80F0004B080BD59
:1008700080B584B00290002000900298006804F0D7
:1008800019FB002874D1FFE70298006880683F21B7
:10089000C8F2000108420ED0FFE70299C86D40F08F
:1008A0001000C8650299086E40F00100086601203A
:1008B0008DF80F0060E00298006804F05BFA40F2E7
:1008C0000030C5F2000004F073FA000200281CD5C5
:1008D000FFE740F20400C2F200000068800942F61F
:1008E0006351C0F23E51A0FB0110800900EB4001B2
:1008F0000C2000EB81000090FFE7009820B1FFE79B
:10090000009801380090F8E7FFE701F0D7FD01906B
:10091000FFE7029800680068C00740BBFFE7029845
:10092000006804F0C7FA28B9FFE70298006804F0ED
:1009300021FAFFE701F0C2FD0199401A032815D3FF
:10094000FFE7029800680068C00770B9FFE70299E6
:10095000C86D40F01000C8650299086E40F00100B3
:10096000086601208DF80F0006E0FFE7D1E7FFE7FA
:1009700000208DF80F00FFE79DF80F0004B080BD48
:10098000FFE7FEE77047000081B0EFF3108072B61A
:100990000090FFE7FEE7000080B586B00490039169
:1009A00000200190FFE7049890F85800012804D136
:1009B000FFE702208DF817005AE00499012081F822
:1009C0005800FFE7FFE70498FFF7F0FE8DF80B00F3
:1009D0009DF80B00D8BBFFE70498C06D40F0020003
:1009E00020F488500499C86504980068039904F0BD
:1009F0004FFBFFE70498006804F044FAF0B1FFE70A
:100A000001980130019001984DF60261C0F2040195
:100A1000884212D3FFE70498C06D40F0100020F028
:100A200002000499C865FFE70499002081F8580086
:100A3000FFE701208DF817001AE0DBE70498C06D8E
:100A400040F0010020F002000499C86505E0049917
:100A5000C86D40F01000C865FFE7FFE7049900206B
:100A600081F85800FFE79DF80B008DF81700FFE7AD
:100A70009DF8170006B080BD81B0009001B07047AE
:100A800080B5C2B02290219100208DF883001B9088
:100A90001A902298406908B1FFE7FFE72198C068E3
:100AA0000021C4F27F01884201D0FFE700E0FFE7A8
:100AB000FFE7229890F85800012805D1FFE70220AF
:100AC0008DF88F0000F0B7BC2299012081F8580002
:100AD000FFE7FFE72298406928B1FFE72198006A05
:100AE00001282FD1FFE721984068092829D1FFE785
:100AF0002198806A68B1FFE721990A68886AC96A03
:100B000002F0F84200F07C0040EA524008431A909C
:100B100006E02198006800F0F840400C1A90FFE7CA
:100B200022980068C06C44F20001C0F210410840F5
:100B30001A99084322990968C8641A982299486644
:100B4000FFE747E02298806EE0B9FFE72198006A4E
:100B5000229988662299002048662198806A58B1B7
:100B6000FFE72199086A8A6AC96A013802F07C02A3
:100B7000104308431A9004E02198006A01381A9043
:100B8000FFE7FFE7219908684968C0F3846001F036
:100B90001F0100FA01F11A9808431A902299886EF1
:100BA000013888661A9A2299486E1043486622983E
:100BB000806E70B9FFE722980068C06C44F20001B3
:100BC000C0F210410840229A1168526E1043C86466
:100BD000FFE7FFE72298006804F032F930BBFFE737
:100BE000219890F8250090B9FFE722980068C06826
:100BF00020F44010219991F8242091F826104905FD
:100C000041EA0251084322990968C8600DE0229820
:100C10000068C06820F44010219991F8261040EA3D
:100C2000415022990968C860FFE7FFE722980068F1
:100C300004F060F91D902298006804F001F91C90FE
:100C40001D98002840F00982FFE71C98002840F01A
:100C50000482FFE72198806A20B1FFE72198C06AEB
:100C6000A8B9FFE7219890F82500012807D1FFE7F0
:100C700022980168C86840F00070C86006E02298B9
:100C80000168C86820F00070C860FFE716E021988E
:100C900090F82500012809D1FFE72299C86D40F09E
:100CA0002000C86501208DF8830006E022980168C5
:100CB000C86820F00070C860FFE7FFE7219890F84F
:100CC0003000012810D1FFE722980068006920F465
:100CD000FF71219A506B926B1043084340F0020061
:100CE00022990968086106E022980168086920F0E5
:100CF00002000861FFE721988068B0F1004F0ED133
:100D0000FFE72298006821990968002204F006F99B
:100D1000229800684FF0004104F0ACF90CE02298F2
:100D20000068219A1168926804F0F8F82298006827
:100D3000002104F09FF9FFE7219840692299096892
:100D4000C96801F01801890888401F90219800693E
:100D500004281CD0FFE72298006821990A680969D5
:100D60001F9B04F02DF922980068219A116992695D
:100D700004F058F922980068219A1169127F013A0B
:100D8000B2FA82F25209520604F038F964E122986C
:100D90000068002104F034F8400348B9FFE72298C6
:100DA0000068002104F02CF8C0F38460199018E06A
:100DB00022980068002104F023F890FAA0F0249013
:100DC000249820B9FFE720208DF8970005E02498AB
:100DD000B0FA80F08DF89700FFE79DF89700199022
:100DE000FFE71998189021980068400330B9FFE791
:100DF00021980068C0F38460179015E0219800687E
:100E000090FAA0F02690269820B9FFE720208DF8D0
:100E10009F0005E02698B0FA80F08DF89F00FFE76C
:100E20009DF89F001790FFE718981799884207D1FF
:100E3000FFE7229800680022114604F007F9FFE757
:100E400022980068012103F0DBFF400348B9FFE767
:100E500022980068012103F0D3FFC0F3846016904C
:100E600018E022980068012103F0CAFF90FAA0F070
:100E70002890289820B9FFE720208DF8A70005E0EA
:100E80002898B0FA80F08DF8A700FFE79DF8A7003A
:100E90001690FFE71698159021980068400330B926
:100EA000FFE721980068C0F38460149015E0219852
:100EB000006890FAA0F02A902A9820B9FFE7202035
:100EC0008DF8AF0005E02A98B0FA80F08DF8AF00F9
:100ED000FFE79DF8AF001490FFE71598149988423A
:100EE00007D1FFE7229800680121002204F0AEF844
:100EF000FFE722980068022103F082FF400348B90F
:100F0000FFE722980068022103F07AFFC0F38460B3
:100F1000139018E022980068022103F071FF90FA04
:100F2000A0F02C902C9820B9FFE720208DF8B70076
:100F300005E02C98B0FA80F08DF8B700FFE79DF837
:100F4000B7001390FFE713981290219800684003B0
:100F500030B9FFE721980068C0F38460119015E074
:100F60002198006890FAA0F02E902E9820B9FFE703
:100F700020208DF8BF0005E02E98B0FA80F08DF8A3
:100F8000BF00FFE79DF8BF001190FFE7129811998D
:100F9000884207D1FFE7229800680221002204F06E
:100FA00055F8FFE722980068032103F029FF40036A
:100FB00048B9FFE722980068032103F021FFC0F33E
:100FC0008460109018E022980068032103F018FF55
:100FD00090FAA0F03E903E9820B9FFE720208DF8CF
:100FE000FF0005E03E98B0FA80F08DF8FF00FFE7C3
:100FF0009DF8FF001090FFE710980F90219800686F
:10100000400330B9FFE721980068C0F384600E9078
:1010100015E02198006890FAA0F04090409820B91F
:10102000FFE720208DF8070105E04098B0FA80F036
:101030008DF80701FFE79DF807010E90FFE70F9875
:101040000E99884207D1FFE7229800680321002209
:1010500003F0FCFFFFE7FFE7FFE72298006803F0DB
:1010600031FF002840F04481FFE722980068219A70
:101070001168D26803F06EFF2198C0680021C4F2A5
:101080007F01884240F03381FFE7229800680D908D
:1010900021980068400330B9FFE721980068C0F349
:1010A00084600C9015E02198006890FAA0F03C90C4
:1010B0003C9820B9FFE720208DF8F70005E03C9828
:1010C000B0FA80F08DF8F700FFE79DF8F7000C907C
:1010D000FFE70C98013000F01F0009287DD8FFE7DA
:1010E00021980068400330B9FFE721980068C0F3F9
:1010F00084600B9015E02198006890FAA0F03A9077
:101100003A9820B9FFE720208DF8EF0005E03A98E3
:10111000B0FA80F08DF8EF00FFE79DF8EF000B903C
:10112000FFE70B98013000F01F0080060A9021981D
:101130000068400330B9FFE721980068C0F384607D
:10114000099015E02198006890FAA0F0389038983E
:1011500020B9FFE720208DF8E70005E03898B0FAC5
:1011600080F08DF8E700FFE79DF8E7000990FFE7C2
:101170000A980999013101F01F02012191400843A9
:10118000089021980068400330B9FFE72198006873
:10119000C0F38460079015E02198006890FAA0F0F1
:1011A0003690369820B9FFE720208DF8DF0005E063
:1011B0003698B0FA80F08DF8DF00FFE79DF8DF0089
:1011C0000790FFE708980799013101F01F0101EB33
:1011D000410140EA0150069082E0219800684003F6
:1011E00030B9FFE721980068C0F38460059015E0EE
:1011F0002198006890FAA0F03490349820B9FFE765
:1012000020208DF8D70005E03498B0FA80F08DF8F2
:10121000D700FFE79DF8D7000590FFE7059801305C
:1012200000F01F008006049021980068400330B948
:10123000FFE721980068C0F38460039015E02198CF
:10124000006890FAA0F03290329820B9FFE7202091
:101250008DF8CF0005E03298B0FA80F08DF8CF001D
:10126000FFE79DF8CF000390FFE704980399013151
:1012700001F01F020121914008430290219800686B
:10128000400330B9FFE721980068C0F38460019003
:1012900015E02198006890FAA0F03090309820B9BD
:1012A000FFE720208DF8C70005E03098B0FA80F005
:1012B0008DF8C700FFE79DF8C7000190FFE702998E
:1012C0000198013000F01F0000EB40020020CFF633
:1012D000206000EB0250084340F000700690FFE7EA
:1012E0000D980699219A926803F018FEFFE7FFE730
:1012F0002198408848F20801084200F09180FFE7F9
:1013000040F20030C5F2000003F05AFD1E90219813
:1013100000680021CCF22131884208D0FFE72198F3
:1013200000681021C9F2C001884232D1FFE79DF860
:101330007A00000600282CD4FFE722980068B0F15C
:10134000A04F25D1FFE71E9840F4000140F2003085
:10135000C5F2000003F026FE40F20400C2F20000D5
:101360000068800942F66351C0F23E51A0FB0110B3
:10137000800900EB4001182000EB81001B90FFE783
:101380001B9820B1FFE71B9801381B90F8E7FFE797
:1013900045E0219800680021CCF25271884219D1B1
:1013A000FFE79DF87B00C007A0B9FFE7229800681F
:1013B00040F20011C5F2000188420AD0FFE71E98F2
:1013C00040F0807140F20030C5F2000003F0EAFD09
:1013D000FFE723E0219800680021CCF684318842A1
:1013E0001AD1FFE79DF87A004006002814D4FFE7E1
:1013F0002298006840F20011C5F2000188420AD02C
:10140000FFE71E9840F4800140F20030C5F2000072
:1014100003F0C8FDFFE700E0FFE7FFE7FFE7FFE7B6
:10142000FFE72299002081F85800FFE79DF883002C
:101430008DF88F00FFE79DF88F0042B080BD00005F
:1014400080B582B00190019840F22801C2F20001FB
:10145000884269D1FFE740F27510C2F200000078BF
:10146000D0BBFFE740F22800C2F200000068D0F8CD
:10147000802040F22001C2F2000108681044086098
:1014800040F21800C2F200000168013101600068FA
:10149000282820D1FFE740F21801C2F20001002005
:1014A000086040F22001C2F2000191ED000AB8EE9E
:1014B000400A9FED211A80EE010A40F22402C2F296
:1014C000000282ED000A40F27513C2F2000301220D
:1014D0001A700860FFE726E040F22800C2F2000020
:1014E0000068D0F8801040F21C00C2F200000160D9
:1014F00090ED000AB8EE400A40F22400C2F200006B
:1015000090ED001A30EE410A9FED091A80EE010AB3
:101510009FED081A30EE010A40F27810C2F2000086
:1015200080ED000AFFE7FFE705F0C2FB02B080BDD7
:101530000AD72342295C8F3D0000204281B00090F1
:1015400001B0704780B588B0069040F20030C5F217
:10155000000003F04DFC03900698006803F070FC57
:1015600020B1FFE702208DF81F00E5E00698006833
:10157000C06800F00040049006980068C06C10F449
:10158000C07F0CD1FFE7049848B9FFE70699C86D02
:1015900040F02000C86501208DF81F00CCE0FFE777
:1015A000069890F85800012804D1FFE702208DF832
:1015B0001F00C1E00699012081F85800FFE7FFE70E
:1015C0000698FFF755F98DF817009DF817000028C9
:1015D00040F0A680FFE70698C06DC005002806D53C
:1015E000FFE70699086E20F00800086603E00699F8
:1015F00000200866FFE70698C06D40F4805042F274
:10160000010188430699C8650698006840F20011F8
:10161000C5F20001884204D1FFE74FF0A0400290DC
:1016200003E0069800680290FFE7029806990968AF
:10163000884203D0FFE7039830B9FFE70699C86DE9
:1016400020F48010C865FFE70698016860200860F4
:10165000FFE70699002081F85800FFE70698006828
:10166000C0688002002807D5FFE70698016848682F
:1016700040F480604860FFE70698806908280DD133
:10168000FFE706980168486820F020004860069847
:101690000168486840F0400048600CE00698016826
:1016A000486820F04000486006980168486840F0AB
:1016B00020004860FFE70698006840F20011C5F27C
:1016C0000001884204D1FFE74FF0A040019003E001
:1016D000069800680190FFE701980699096888421A
:1016E0000BD0FFE7039840B1FFE70398062804D02A
:1016F000FFE7039807280CD1FFE70698006803F07E
:101700008FFB28B9FFE70698006803F0ADFBFFE701
:1017100005E00699C86D40F48010C865FFE706E053
:10172000FFE70699002081F85800FFE7FFE79DF8E2
:1017300017008DF81F00FFE79DF81F0008B080BD5F
:1017400081B0009001B0704781B0009001B0704747
:1017500080B5A4B02290219100208DF883002198BB
:10176000006808B1FFE7FFE7FFE7229890F858000C
:10177000012804D1FFE702208DF88F009FE0229915
:10178000012081F85800FFE7FFE700201B901C9024
:1017900022980068B0F1A04F06D1FFE740F2001098
:1017A000C5F20000049002E000200490FFE70498D6
:1017B00078B9FFE72299C86D40F02000C865FFE7BF
:1017C0002299002081F85800FFE701208DF88F0052
:1017D00075E0049803F08EFB03902298006803F0F4
:1017E00089FB002857D1FFE70398002853D1FFE772
:1017F00040F20030C5F200001F902198006860B3ED
:10180000FFE71F98806820F4604021994968229A78
:1018100092F8382041EA423108431F9988604FF01E
:10182000A04003F04FFB029040F20010C5F2000010
:1018300003F048FB01460298084368B9FFE71F9888
:10184000806840F61F718843219A1168926811439D
:1018500008431F998860FFE71CE01F99886820F4FF
:10186000604088604FF0A04003F02CFB019040F2F4
:101870000010C5F2000003F025FB01460198084363
:1018800038B9FFE71F99886840F61F729043886057
:10189000FFE7FFE708E02299C86D40F02000C86527
:1018A00001208DF88300FFE7FFE72299002081F8EF
:1018B0005800FFE79DF883008DF88F00FFE79DF843
:1018C0008F0024B080BD000081B0009001B070474F
:1018D00081B0009001B0704780B58EB00D900020AF
:1018E0000C900D98006800680B900D980068406897
:1018F0000A9040F20030C5F2000003F071FA059042
:101900009DF82C00800700281AD5FFE79DF82800D5
:101910008007002814D5FFE70D98C06DC006002889
:1019200006D4FFE70D99C86D40F40060C865FFE775
:101930000D98FFF7A1F80D98016802200860FFE7F5
:101940009DF82C004007002806D5FFE70A9800F014
:10195000040004280ED0FFE79DF82C0000070028A3
:1019600040F19B80FFE79DF828000007002840F128
:101970009480FFE70D98C06DC006002806D4FFE7ED
:101980000D99C86D40F40070C865FFE70D980068B8
:1019900003F0B8FA002878D0FFE70D98006840F20D
:1019A0000011C5F20001884204D1FFE74FF0A040CA
:1019B000049003E00D9800680490FFE704980D99E7
:1019C000096888420BD0FFE7059840B1FFE705980A
:1019D000052804D0FFE70598092805D1FFE70D98F1
:1019E0000068C068079016E00D98006840F200118A
:1019F000C5F20001884204D1FFE74FF0A0400390F8
:101A000003E00D9800680390FFE70398069006989E
:101A1000C0680790FFE7079800F40050B0F5005F3A
:101A200032D0FFE70D9800680068000700282AD52B
:101A3000FFE70D98006803F055FAC0B9FFE70D986D
:101A40000168486820F00C0048600D99C86D20F4CA
:101A50008070C8650D98C06DC004002806D4FFE7EB
:101A60000D99C86D40F00100C865FFE70AE00D99C7
:101A7000C86D40F01000C8650D99086E40F0010077
:101A80000866FFE7FFE7FFE7FFE70D98FFF71CFF9A
:101A90000D9801680C200860FFE79DF82C00800677
:101AA000002806D5FFE70A9800F0200020280ED075
:101AB000FFE79DF82C004006002840F1B280FFE7C8
:101AC0009DF828004006002840F1AB80FFE70D9804
:101AD000C06DC006002806D4FFE70D99C86D40F41C
:101AE0000050C865FFE70D98006803F0B1F9099050
:101AF0000D98006803F006FA08900D98006840F20F
:101B00000011C5F20001884204D1FFE74FF0A04068
:101B1000029003E00D9800680290FFE702980D998B
:101B2000096888420BD0FFE7059840B1FFE70598A8
:101B3000062804D0FFE70598072805D1FFE70D9890
:101B40000068C068079016E00D98006840F2001128
:101B5000C5F20001884204D1FFE74FF0A040019098
:101B600003E00D9800680190FFE701980690069841
:101B7000C0680790FFE7099800284AD0FFE79DF862
:101B80001F00800700280AD5FFE7089800283FD0EB
:101B9000FFE79DF81D008006002839D4FFE70D9867
:101BA000006800684006002831D5FFE79DF81E0058
:101BB000800600282AD4FFE70D98006803F038F962
:101BC000C0B9FFE70D980168486820F060004860E0
:101BD0000D99C86D20F48050C8650D98C06DC00582
:101BE000002806D4FFE70D99C86D40F00100C865D4
:101BF000FFE70AE00D99C86D40F01000C8650D9927
:101C0000086E40F001000866FFE7FFE7FFE7FFE727
:101C1000FFE70D98FFF714FC0D980168602008603D
:101C2000FFE79DF82C000006002813D5FFE79DF87C
:101C30002800000600280DD5FFE70D99C86D40F477
:101C40008030C8650D9800F029FA0D980168802051
:101C50000860FFE79DF82D00C00798B1FFE79DF8E9
:101C60002900C00770B1FFE70D99C86D40F400303E
:101C7000C8650D98FFF764FD0D9801684FF48070FA
:101C80000860FFE79DF82D008007002814D5FFE7C6
:101C90009DF82900800700280ED5FFE70D99C86D33
:101CA00040F48020C8650D98FFF74EFD0D9801683F
:101CB0004FF400700860FFE79DF82C00C006002874
:101CC0003ED5FFE79DF82800C006002838D5FFE77D
:101CD0000D98C06B18B9FFE701200C9019E005982A
:101CE00060B1FFE740F20030C5F2000003F070F889
:101CF00018B1FFE701200C90FFE709E00D9800689C
:101D0000C068C00718B1FFE701200C90FFE7FFE7AC
:101D1000FFE70C9801280ED1FFE70D99C86D40F43C
:101D20008060C8650D99086E40F0020008660D9845
:101D3000FFF7CEFDFFE70D98016810200860FFE770
:101D40009DF82D004007002819D5FFE79DF82900D0
:101D50004007002813D5FFE70D99C86D40F4804077
:101D6000C8650D99086E40F0080008660D98016876
:101D70004FF4806008600D98FFF7E0FBFFE70EB0BE
:101D800080BD000080B588B0069000208DF8170057
:101D90000190069820B9FFE701208DF81F0079E136
:101DA0000698406940B1FFE7069890F824000128A2
:101DB00001D1FFE7FFE7FFE70698C06D50B9FFE7E5
:101DC000069800F06FF9069900200866069981F8D8
:101DD0005800FFE70698006803F05CF828B1FFE7B9
:101DE0000698006802F0BAFFFFE70698006803F063
:101DF00071F8F0B9FFE70698006802F0C9FF40F2F9
:101E00000400C2F200000068800942F66351C0F28B
:101E10003E51A0FB01108109022000EB410001901E
:101E2000FFE7019820B1FFE7019801380190F8E73A
:101E3000FFE70698006803F04DF870B9FFE70699D0
:101E4000C86D40F01000C8650699086E40F00100AA
:101E5000086601208DF81700FFE70698006803F078
:101E600041F803900698C06DC006002800F1048177
:101E7000FFE70398002840F0FF80FFE70698C06D59
:101E800040F0020020F480700699C865069800684A
:101E900003F010F8D0B9FFE74FF0A04003F00AF8C4
:101EA000009040F20010C5F2000003F003F8014674
:101EB0000098084348B9FFE70698416840F20030AF
:101EC000C5F2000003F060F8FFE7FFE706994A7FDC
:101ED000C86B40EA42308A68CB681843104391F8D7
:101EE000241040EA01400490069890F8240001284C
:101EF0000BD1FFE70698816A0020CFF6FE7000EB59
:101F00004141049808430490FFE70698C06A50B125
:101F1000FFE70699C86A096B00F4787001430498DA
:101F200008430490FFE706980068C06844F2070180
:101F3000CFF6F07108400499084306990968C86013
:101F400006980068006920F04060069A1168526B9C
:101F5000104308610698006802F06AFF0290039837
:101F6000002868D1FFE70298002864D1FFE70699AE
:101F7000087F91F83810800340EA410004900698E9
:101F80000068C06844F20201884304990843069936
:101F90000968C86006980069A0B1FFE70698016863
:101FA000086940F48030086106980068D0F8C000E5
:101FB00043F6FF718843069A116812691043C1F80D
:101FC000C00011E006980168086920F480300861BB
:101FD00006980068D0F8C00043F6FF718843069960
:101FE0000968C1F8C000FFE7069890F84000012892
:101FF00019D1FFE706980068006940F2FD7120EAF8
:102000000102069B1968586CD3F848E0D3F84CC01D
:1020100040EA0E0040EA0C001B6D1843104340F0EC
:102020000100086106E006980168086920F00100D7
:102030000861FFE7FFE70698406901280CD1FFE738
:1020400006980068006B20F00F00069A1168126A6B
:10205000013A1043086306E006980168086B20F017
:102060000F000863FFE70698C06D40F0010020F004
:1020700002000699C86508E00699C86D40F0100096
:10208000C86501208DF81700FFE79DF817008DF84F
:102090001F00FFE79DF81F0008B080BD81B00090D1
:1020A00001B0704780B59CB01B9000201A90199029
:1020B00018901790169005A84421FEF7E1F81B9898
:1020C0000068B0F1A04F42D1FFE74FF40040059007
:1020D0004FF00050149005A800F092FB18B1FFE7F4
:1020E000FEF752FCFFE7FFE741F24C00C4F20200AA
:1020F000016841F400510160006800F40050049050
:102100000498FFE7FFE741F24C00C4F202000168C7
:1021100041F001010160006800F0010003900398A4
:10212000FFE70120169003201790002001901890DF
:102130004FF0904016A900F00DF8019A122002907D
:10214000114600F059FA029800F04CFAFFE71CB073
:1021500080BD00008BB00A90099100200890FFE735
:10216000099800680899C840002800F0A581FFE799
:1021700009980068089A0121914008400790079843
:10218000002800F09581FFE70998406800F00300FF
:10219000012807D0FFE70998406800F003000228F3
:1021A0002FD1FFE70A988068069008984100032025
:1021B00000FA01F10698884306900998C0680899CA
:1021C000490000FA01F106980843069006980A991A
:1021D00088600A98406806900899012000FA01F189
:1021E00006988843069009984068C0F30010089943
:1021F00000FA01F106980843069006980A9948608B
:10220000FFE70998406800F00300032818D0FFE7B3
:102210000A98C068069008984100032000FA01F16E
:10222000069888430690099880680899490000FA42
:1022300001F106980843069006980A99C860FFE7DE
:102240000998406800F00300022826D1FFE70A98A9
:1022500008996FF0030202EA51010844006A0690EF
:10226000089800F0070081000F2000FA01F106989D
:102270008843069009980069089901F007018900D0
:1022800000FA01F106980843069006980A99089BFF
:1022900002EA530211440862FFE70A9800680690B8
:1022A00008984100032000FA01F10698884306903F
:1022B0000998406800F003000899490000FA01F10C
:1022C00006980843069006980A990860099880794C
:1022D0008007002800F0EB80FFE7FFE741F2600095
:1022E000C4F20200016841F001010160006800F0E1
:1022F000010005900598FFE7089820F003000821E9
:10230000C4F2010140580690089800F003008100D3
:102310000F2000FA01F10698884306900A98B0F160
:10232000904F03D1FFE70020049042E00A9840F26A
:102330000041C4F60001884203D1FFE70120039069
:1023400034E00A9840F60001C4F60001884203D147
:10235000FFE70220029026E00A9840F60041C4F60A
:102360000001884203D1FFE70320019018E00A989A
:1023700041F20001C4F60001884203D1FFE70420C6
:1023800000900AE00A9941F20042C4F600020620D9
:10239000914208BF05200090FFE700980190FFE7F9
:1023A00001980290FFE702980390FFE703980490DA
:1023B000FFE70498089901F00301890000FA01F190
:1023C0000698084306900698089921F00301082210
:1023D000C4F20102885040F20840C4F201000068D3
:1023E0000690079906988843069009988079C00658
:1023F000002805D5FFE70799069808430690FFE7F0
:10240000069840F20841C4F20101086040F20C4015
:10241000C4F2010000680690079906988843069068
:10242000099880798006002805D5FFE70799069866
:1024300008430690FFE7069840F20C41C4F2010100
:10244000086040F20440C4F2010000680690079959
:10245000069888430690099880798007002805D55A
:10246000FFE70799069808430690FFE7069840F2B1
:102470000441C4F20101086040F20040C4F20100CE
:102480000068069007990698884306900998807915
:10249000C00728B1FFE70799069808430690FFE7B1
:1024A000069840F20041C4F201010860FFE7FFE72F
:1024B00008980130089053E60BB0704740F2AC101A
:1024C000C2F200000068704740F20C00C2F2000047
:1024D000026840F2AC11C2F20001086810440860C2
:1024E0007047000080B582B000208DF807000320FF
:1024F00000F09AF80F2000F00DF820B1FFE701205E
:102500008DF8070002E000F049F8FFE79DF80700AA
:1025100002B080BD80B582B0019000208DF803002C
:1025200040F20C00C2F20000006878B3FFE740F20E
:102530000400C2F20000006840F20C01C2F2000187
:102540000A684FF47A71B1FBF2F1B0FBF1F001F0DF
:10255000A1F9B0B9FFE701980F280DD8FFE701995D
:102560004FF0FF30002200F047F8019840F21001D0
:10257000C2F20001086003E001208DF80300FFE7CC
:1025800003E001208DF80300FFE703E001208DF850
:102590000300FFE79DF8030002B080BD80B582B064
:1025A000FFE741F26000C4F20200016841F001015E
:1025B0000160006800F0010001900198FFE7FFE76B
:1025C00041F25800C4F20200016841F080510160FC
:1025D000006800F0805000900098FFE700F006F9D6
:1025E00002B080BD80B582B08DF807009DF907006C
:1025F00004F0FEFA02B080BD80B586B08DF81700F9
:102600000491039204F00CFB02909DF917000190D5
:1026100002980499039A02F0F5FE0146019804F02D
:1026200007FB06B080BD000080B582B00190019824
:1026300004F020FB02B080BD85B003900398002811
:102640005ED1FFE747F20000C4F20000006800F42A
:10265000C060B0F5806F49D1FFE747F28001C4F256
:102660000001086820F48070086047F20002C4F29C
:1026700000021168012060F34A21116040F2040158
:10268000C2F200010968322251434DF68362C4F25E
:102690001B32A1FB022100EB91400290FFE747F2C1
:1026A0001400C4F2000001680020490500290190CF
:1026B00006D5FFE70298002818BF01200190FFE728
:1026C0000198C00720B1FFE7029801380290E6E7C1
:1026D00047F21400C4F2000000684005002804D549
:1026E000FFE703208DF813007CE008E047F280014B
:1026F000C4F20001086820F480700860FFE76DE014
:102700000398B0F5007F5ED1FFE747F20000C4F206
:102710000000006800F4C060B0F5806F49D1FFE7A9
:1027200047F28001C4F20001086840F4807008603C
:1027300047F20002C4F200021168012060F34A214E
:10274000116040F20401C2F20001096832225143D3
:102750004DF68362C4F21B32A1FB022100EB9140D3
:102760000290FFE747F21400C4F200000168002065
:1027700049050029009006D5FFE70298002818BFF8
:1027800001200090FFE70098C00720B1FFE7029802
:1027900001380290E6E747F21400C4F20000006836
:1027A0004005002804D5FFE703208DF8130019E049
:1027B00008E047F28001C4F20001086840F480702C
:1027C0000860FFE709E047F20001C4F20001086871
:1027D000022262F34A200860FFE7FFE700208DF83D
:1027E0001300FFE79DF8130005B0704747F208019A
:1027F000C4F20001086840F480400860704700009F
:1028000080B586B0059000208DF80B008DF80A0089
:10281000059880780007002840F1B580FFE7002088
:102820008DF8090041F25800C4F202000068C000AF
:10283000002813D4FFE7FFE741F25800C4F202007A
:10284000016841F080510160006800F08050019003
:102850000198FFE701208DF80900FFE747F200012A
:10286000C4F20001086840F480700860FFF726FE9B
:102870000390FFE747F20000C4F200000068C005C3
:1028800000280CD4FFE7FFF719FE0399401A03282C
:1028900004D3FFE703208DF80B0000E0EAE79DF882
:1028A0000B0000285BD1FFE741F29000C4F2020068
:1028B000006800F4407004900498C8B1FFE70498E1
:1028C0000599096C884213D0FFE741F29001C4F2E8
:1028D0000201086820F440700490086840F48030D9
:1028E0000860086820F48030086004980860FFE7FA
:1028F0009DF81000C007E0B1FFE7FFF7DFFD039090
:10290000FFE741F29000C4F202000068800700284F
:102910000ED4FFE7FFF7D2FD0399401A41F2893147
:10292000884204D3FFE703208DF80B0000E0E8E7BE
:10293000FFE79DF80B0060B9FFE741F29001C4F298
:102940000201086820F44070059A126C1043086078
:1029500004E09DF80B008DF80A00FFE704E09DF805
:102960000B008DF80A00FFE79DF80900012809D146
:10297000FFE741F25801C4F20201086820F08050DC
:102980000860FFE7FFE705980078C00760B1FFE740
:1029900041F28801C4F20201086820F00300059AA0
:1029A000526810430860FFE7059800788007002808
:1029B0000CD5FFE741F28801C4F20201086820F05B
:1029C0000C00059A926810430860FFE705980078AC
:1029D000400700280CD5FFE741F28801C4F202014C
:1029E000086820F03000059AD26810430860FFE7BD
:1029F00005980078000700280CD5FFE741F2880110
:102A0000C4F20201086820F0C000059A1269104360
:102A10000860FFE705980078800600280CD5FFE7DE
:102A200041F28801C4F20201086820F44060059A6E
:102A3000526910430860FFE70598007840060028B7
:102A40000CD5FFE741F28801C4F20201086820F4C6
:102A50004050059A926910430860FFE70598007896
:102A6000000600280CD5FFE741F28801C4F20201FC
:102A7000086820F44040059AD26910430860FFE7D7
:102A800005984078C00760B1FFE741F28801C4F2C1
:102A90000201086820F44030059A126A1043086069
:102AA000FFE705984078800700280CD5FFE741F242
:102AB0008801C4F20201086820F44020059A526A95
:102AC00010430860FFE705984078400700281BD5B1
:102AD000FFE741F28801C4F20201086820F44010C7
:102AE000059A926A104308600598806AB0F5801FC5
:102AF00009D1FFE741F20C01C4F20201086840F479
:102B000080100860FFE7FFE705984078000700287D
:102B10001BD5FFE741F28801C4F20201086820F4E6
:102B20004000059AD26A104308600598C06AB0F563
:102B3000800F09D1FFE741F20C01C4F202010868DD
:102B400040F480100860FFE7FFE705984078C00672
:102B500000281BD5FFE741F28801C4F20201086892
:102B600020F04070059A126B104308600598006BC6
:102B7000B0F1807F09D1FFE741F20C01C4F20201FC
:102B8000086840F480100860FFE7FFE70598407888
:102B9000800600281BD5FFE741F28801C4F202013C
:102BA000086820F04060059A526B10430860059851
:102BB000406BB0F1006F09D1FFE741F20C01C4F2A4
:102BC0000201086840F480100860FFE7FFE70598FD
:102BD0004078400600281BD5FFE741F28801C4F287
:102BE0000201086820F04060059A926B104308606B
:102BF0000598806BB0F1006F09D1FFE741F20C013D
:102C0000C4F20201086840F480100860FFE7FFE7A3
:102C100005984078000600281BD5FFE741F288019F
:102C2000C4F20201086820F04050059AD26B1043AC
:102C300008600598C06BB0F1805F09D1FFE741F2F1
:102C40000C01C4F20201086840F480300860FFE71C
:102C5000FFE79DF80A0006B080BD000080B586B091
:102C60000490039100200090049820B9FFE7012010
:102C70008DF8170081E1039842F20001C4F20201CD
:102C8000096801F00F01884216D9FFE742F20000FF
:102C9000C4F20200016821F00F01039A11430160A0
:102CA000006800F00F000399884204D0FFE701207C
:102CB0008DF8170061E1FFE704980078C00700284D
:102CC00000F0A380FFE704984068032839D1FFE7AC
:102CD00041F20000C4F2020000688001002804D420
:102CE000FFE701208DF8170047E102F06DFC01902D
:102CF00001984BF20141C0F2C441884220D3FFE762
:102D000041F20800C4F20200006810F0F00F0AD08F
:102D1000FFE7049800788007002810D5FFE70498A3
:102D2000806860B9FFE741F20801C4F20201086857
:102D3000082262F30710086080200090FFE7FFE799
:102D400038E00498406802280ED1FFE741F2000005
:102D5000C4F2020000688003002804D4FFE70120C9
:102D60008DF8170009E10DE041F20000C4F2020005
:102D700000684005002804D4FFE701208DF8170003
:102D8000FBE0FFE700F02CF9019001984BF20141C4
:102D9000C0F2C44188420CD3FFE741F20801C4F2FB
:102DA00002010868082262F3071008608020009082
:102DB000FFE7FFE741F20801C4F20201086820F0D2
:102DC0000300049A526810430860FFF777FB0290F3
:102DD000FFE741F20800C4F20200006800F00C00B6
:102DE00004994968B0EB810F0ED0FFE7FFF766FB4F
:102DF0000299401A41F28931884204D3FFE7032047
:102E00008DF81700B9E0E4E7FFE704980078800741
:102E100000282CD5FFE7049800784007002809D542
:102E2000FFE741F20801C4F20201086840F4E060E3
:102E30000860FFE704980078000700280BD5FFE73B
:102E400041F20801C4F20201086840F4E06020F495
:102E500060500860FFE741F20801C4F2020108680F
:102E600020F0F000049A9268104308600DE000988A
:102E7000802809D1FFE741F20801C4F20201086885
:102E800020F0F0000860FFE7FFE7039842F200013E
:102E9000C4F20201096801F00F01884228D2FFE75D
:102EA00042F20001C4F20201086820F00F00039A08
:102EB00010430860FFF702FB0290FFE742F20000B8
:102EC000C4F20200006800F00F00039988420ED09F
:102ED000FFE7FFF7F3FA0299401A41F2893188427D
:102EE00004D3FFE703208DF8170046E0E6E7FFE78D
:102EF00004980078400700280CD5FFE741F208014C
:102F0000C4F20201086820F4E060049AD268104319
:102F10000860FFE704980078000700280DD5FFE758
:102F200041F20801C4F20201086820F46050049ADA
:102F3000126940EAC2000860FFE700F051F841F270
:102F40000801C4F202010968C9B20A0947F23671E0
:102F5000C0F60001895C01F01F01C84040F2040185
:102F6000C2F20001086040F21000C2F200000068E6
:102F7000FFF7D0FA8DF81700FFE79DF8170006B0AD
:102F800080BD000040F20400C2F2000000687047FB
:102F900080B5FFF7F7FF41F20801C4F202010968AA
:102FA000C1F3022247F24671C0F60001895C01F0CC
:102FB0001F01C84080BD000080B5FFF7E3FF41F26C
:102FC0000801C4F202010968C1F3C22247F2467146
:102FD000C0F60001895C01F01F01C84080BD0000FF
:102FE00086B041F20800C4F20200006800F00C0054
:102FF000042806D1FFE742F20040C0F2F40001903D
:1030000069E041F20800C4F20200006800F00C0020
:10301000082806D1FFE741F60030C0F2B700019062
:1030200058E041F20800C4F20200006800F00C0011
:103030000C284BD1FFE741F20C00C4F202000168FA
:1030400001F0030104910068C1B2012000EB1110EE
:10305000029004980090022815D0FFE700980328FA
:1030600012D1FFE7029941F60030C0F2B700B0FB81
:10307000F1F041F20C01C4F202010968C1F306212A
:103080004843059011E0FFE7029942F20040C0F288
:10309000F400B0FBF1F041F20C01C4F20201096846
:1030A000C1F3062148430590FFE741F20C00C4F24A
:1030B0000200006800F0C061022000EB1160039084
:1030C00005980399B0FBF1F0019002E00020019017
:1030D000FFE7FFE7FFE7019806B07047B0B588B09B
:1030E0000690069820B9FFE701208DF81F00CCE379
:1030F00006980078C007002800F09B80FFE741F2A7
:103100000800C4F20200006800F00C00049041F2D4
:103110000C00C4F20200006800F003000390049861
:103120000C2804D1FFE70398032804D0FFE7049894
:10313000082812D1FFE741F20000C4F20200006843
:103140008003002808D5FFE70698406820B9FFE70C
:1031500001208DF81F0098E36AE0FFE706984068B9
:10316000B0F5803F09D1FFE741F20001C4F202014E
:10317000086840F48030086020E006984068B0F5A8
:10318000A02F0DD1FFE741F20001C4F2020108684F
:1031900040F480200860086840F4803008600CE04B
:1031A00041F20001C4F20201086820F48030086096
:1031B000086820F480200860FFE7FFE7FFE7069833
:1031C0004068D0B1FFE7FFF779F90590FFE741F2DA
:1031D0000000C4F202000068800300280CD4FFE75E
:1031E000FFF76CF90599401A652804D3FFE703201F
:1031F0008DF81F0049E3EAE719E0FFF75FF9059052
:10320000FFE741F20000C4F20200006880030028DA
:103210000CD5FFE7FFF752F90599401A652804D34A
:10322000FFE703208DF81F002FE3EAE7FFE7FFE742
:10323000FFE7069800788007002840F19F80FFE7AD
:1032400041F20800C4F20200006800F00C00049093
:1032500041F20C00C4F20200006800F00300039089
:1032600004980C2804D1FFE70398022804D0FFE754
:10327000049804282CD1FFE741F20000C4F20200B8
:1032800000684005002808D5FFE70698C06820B907
:10329000FFE701208DF81F00F7E241F20401C4F2BC
:1032A0000201086820F0FE40069A126940EA0260B6
:1032B000086040F21000C2F200000068FFF72AF92F
:1032C00020B1FFE701208DF81F00DEE2FFE754E0A8
:1032D0000698C06870B3FFE741F20001C4F2020132
:1032E000086840F480700860FFF7E8F80590FFE791
:1032F00041F20000C4F202000068400500280CD42E
:10330000FFE7FFF7DBF80599401A032804D3FFE72E
:1033100003208DF81F00B8E2EAE741F20401C4F28D
:103320000201086820F0FE40069A126940EA026035
:10333000086021E041F20001C4F20201086820F4B3
:1033400080700860FFF7BAF80590FFE741F20000CF
:10335000C4F202000068400500280CD5FFE7FFF723
:10336000ADF80599401A032804D3FFE703208DF830
:103370001F008AE2EAE7FFE7FFE7FFE70698007829
:103380000007002849D5FFE70698406910B3FFE71A
:1033900041F29401C4F20201086840F001000860A3
:1033A000FFF78CF80590FFE741F29400C4F20200A9
:1033B0000068800700280CD4FFE7FFF77FF8059925
:1033C000401A032804D3FFE703208DF81F005CE2B6
:1033D000EAE721E041F29401C4F20201086820F01A
:1033E00001000860FFF76AF80590FFE741F29400DA
:1033F000C4F202000068800700280CD5FFE7FFF741
:103400005DF80599401A032804D3FFE703208DF8DF
:103410001F003AE2EAE7FFE7FFE706980078400777
:10342000002840F1C680FFE700208DF80B0041F234
:103430005800C4F202000068C000002813D4FFE75F
:10344000FFE741F25800C4F20200016841F08051E8
:103450000160006800F0805001900198FFE70120B2
:103460008DF80B00FFE747F20000C4F2000000688F
:10347000C005002822D4FFE747F20001C4F2000192
:10348000086840F480700860FFF718F80590FFE7BF
:1034900047F20000C4F200000068C00500280CD408
:1034A000FFE7FFF70BF80599401A032804D3FFE75D
:1034B00003208DF81F00E8E1EAE7FFE7FFE7069841
:1034C0008068012809D1FFE741F29001C4F20201AE
:1034D000086840F0010008601FE006988068052831
:1034E0000DD1FFE741F29001C4F20201086840F0FB
:1034F00004000860086840F0010008600CE041F238
:103500009001C4F20201086820F001000860086818
:1035100020F004000860FFE7FFE7FFE706988068F7
:10352000E0B1FFE7FEF7CAFF0590FFE741F2900028
:10353000C4F202000068800700280ED4FFE7FEF7FF
:10354000BDFF0599401A41F28931884204D3FFE753
:1035500003208DF81F0098E1E8E71BE0FEF7AEFFBF
:103560000590FFE741F29000C4F202000068800776
:1035700000280ED5FFE7FEF7A1FF0599401A41F29A
:103580008931884204D3FFE703208DF81F007CE1D6
:10359000E8E7FFE79DF80B00012809D1FFE741F2BA
:1035A0005801C4F20201086820F080500860FFE76B
:1035B000FFE7069800788006002849D5FFE70698BF
:1035C000806910B3FFE741F29801C4F20201086874
:1035D00040F001000860FEF771FF0590FFE741F23F
:1035E0009800C4F202000068800700280CD4FFE7AE
:1035F000FEF764FF0599401A032804D3FFE7032070
:103600008DF81F0041E1EAE721E041F29801C4F2A0
:103610000201086820F001000860FEF74FFF0590E6
:10362000FFE741F29800C4F202000068800700281A
:103630000CD5FFE7FEF742FF0599401A032804D393
:10364000FFE703208DF81F001FE1EAE7FFE7FFE730
:103650000698C069002800F01481FFE741F20800D5
:10366000C4F20200006800F00C000C2800F0B080EA
:10367000FFE70698C06902287CD1FFE741F200010C
:10368000C4F20201086820F080700860FEF716FF9F
:103690000590FFE741F20000C4F2020000688001DB
:1036A00000280CD5FFE7FEF709FF0599401A03280B
:1036B00004D3FFE703208DF81F00E6E0EAE741F2BC
:1036C0000C01C4F20201086848F20C02C0F29F1219
:1036D0001040DDF818C0DCF82020DCF82450DCF8BD
:1036E00028E0DCF82C306FF00F0404EB05142243C3
:1036F00042EA0E22DCF8304040F2000ECFF6E07EC7
:103700000EEA045EAEF5001E42EA0E02DCF834E07A
:103710004FF07E4C0CEA0E6C0CF17E4C42EA0C022F
:1037200042EAC3621043086041F20002C4F202029E
:10373000106840F080701060086840F08070086089
:10374000FEF7BCFE0590FFE741F20000C4F2020064
:103750000068800100280CD4FFE7FEF7AFFE059952
:10376000401A032804D3FFE703208DF81F008CE0E4
:10377000EAE72CE041F20001C4F20201086820F0FF
:1037800080700860FEF79AFE0590FFE741F20000A6
:10379000C4F202000068800100280CD5FFE7FEF7A4
:1037A0008DFE0599401A032804D3FFE703208DF806
:1037B0001F006AE0EAE741F20C01C4F20201086866
:1037C0004FF6FC72CFF6EE6210400860FFE757E05C
:1037D0000698C069012804D1FFE701208DF81F0079
:1037E00053E041F20C00C4F2020000680390039819
:1037F00000F003000699096A88423BD1FFE703986D
:1038000000F0F00006994A6A6FF00F0101EB021117
:1038100088422FD1FFE7039800F4FE400699896A99
:10382000B0EB012F26D1FFE7039800F0784006990E
:10383000C96AB0EBC16F1DD1FFE7039800F4C00067
:1038400006990A6B0021CFF6E07101EA0251A1F559
:10385000001188420ED1FFE7039800F0C06006997E
:103860004A6B4FF07E4101EA026101F17E418842DC
:1038700004D0FFE701208DF81F0006E0FFE7FFE717
:10388000FFE700208DF81F00FFE79DF81F0008B03C
:10389000B0BD000080B582B00190019801F0E4FE57
:1038A00002B080BD81B0009001B0704781B000903F
:1038B00001B0704781B0009001B0704784B00290B1
:1038C000019100200090FFE7029890F83C00012849
:1038D00004D1FFE702208DF80F0083E00299012058
:1038E00081F83C00FFE7FFE7009820F0FF00019916
:1038F000C96808430090009820F4407001998968D5
:1039000008430090009820F48060019949680843BA
:103910000090009820F40060019909680843009025
:10392000009820F48050019909690843009000989C
:1039300020F400500199496908430090009820F450
:1039400080400199096B08430090009820F4702092
:103950000199896940EA01400090009820F0805068
:103960000199C969084300900298006842F6004135
:10397000C4F20101884209D0FFE70298006843F2CF
:103980000041C4F2010188421ED1FFE7009820F4F3
:1039900070000199896A40EA01500090009820F077
:1039A00080700199096A08430090009820F0007027
:1039B0000199496A08430090009820F0005001994D
:1039C000C96A08430090FFE70098029909684864B3
:1039D000FFE70299002081F83C00FFE700208DF806
:1039E0000F00FFE79DF80F0004B0704781B0009012
:1039F00001B0704781B0009001B0704781B0009075
:103A000001B0704785B003900291FFE7039890F8EA
:103A10003C00012804D1FFE702208DF813008CE060
:103A20000399012081F83C00FFE7FFE7039902209A
:103A300081F83D0003980068406801900398006891
:103A4000806800900398006842F60041C4F20101CA
:103A5000884209D0FFE70398006843F20041C4F2AE
:103A6000010188420AD1FFE7019820F4700001901B
:103A700002984168019808430190FFE701984FF6CA
:103A80008F71CFF6FF5108400190029801680198AC
:103A900008430190019803990968486003980068F9
:103AA00042F60041C4F2010188422AD0FFE70398A0
:103AB0000068B0F1804F24D0FFE70398006840F21F
:103AC0000041C4F2000188421BD0FFE70398006860
:103AD00040F60001C4F20001884212D0FFE70398CB
:103AE000006843F20041C4F20101884209D0FFE7B7
:103AF0000398006844F20001C4F2010188420ED12B
:103B0000FFE7009820F080000090029881680098FC
:103B1000084300900098039909688860FFE70399BB
:103B2000012081F83D00FFE70399002081F83C0067
:103B3000FFE700208DF81300FFE79DF8130005B0A4
:103B40007047000080B58AB008900791079828B99F
:103B5000FFE7089890F8440005901CE007980428B7
:103B600005D1FFE7089890F84500049010E0079809
:103B7000082805D1FFE7089890F84600039004E074
:103B8000089890F847000390FFE703980490FFE738
:103B900004980590FFE70598012804D0FFE701206D
:103BA0008DF8270089E0079828B9FFE708990220D7
:103BB00081F844001EE00798042806D1FFE7089921
:103BC000022081F84500029012E00798082806D1EB
:103BD000FFE70899022081F84600019005E0089966
:103BE000022081F847000190FFE701980290FFE76B
:103BF0000298FFE7089800680799042201F096FEF2
:103C000008980168486C40F40040486408980068CF
:103C100042F60041C4F2010188422AD0FFE7089829
:103C20000068B0F1804F24D0FFE70898006840F2A8
:103C30000041C4F2000188421BD0FFE708980068E9
:103C400040F60001C4F20001884212D0FFE7089854
:103C5000006843F20041C4F20101884209D0FFE745
:103C60000898006844F20001C4F20101884219D1A9
:103C7000FFE70898006880680721C0F2010108404A
:103C80000690069806280CD0FFE70698B0F5803F0E
:103C900007D0FFE708980168086840F00100086055
:103CA000FFE706E008980168086840F00100086036
:103CB000FFE700208DF82700FFE79DF827000AB0F6
:103CC00080BD000081B0009001B0704780B582B027
:103CD0000090009820B9FFE701208DF8070045E02B
:103CE000009890F83D0040B9FFE70099002081F866
:103CF0003C00009800F03EF8FFE70099022081F8B0
:103D00003D00009951F8040B01F028FD00990120B5
:103D100081F84800FFE70099012081F83E000099F2
:103D200081F83F00009981F84000009981F8410036
:103D3000009981F84200009981F84300FFE7FFE70E
:103D40000099012081F84400009981F8450000990C
:103D500081F84600009981F84700FFE700990120AB
:103D600081F83D0000208DF80700FFE79DF807006F
:103D700002B080BD80B584B003900398006842F61D
:103D80000041C4F20101884219D1FFE7FFE741F287
:103D90006000C4F20200016841F400610160006843
:103DA00000F4006002900298FFE7192001900022C1
:103DB0001146FEF721FC0198FEF714FCFFE704B062
:103DC00080BD000083B00190019890F83D0001286B
:103DD00004D0FFE701208DF80B0060E0019902207C
:103DE00081F83D0001980168C86840F00100C86092
:103DF0000198006842F60041C4F2010188422AD0CD
:103E0000FFE701980068B0F1804F24D0FFE70198E8
:103E1000006840F20041C4F2000188421BD0FFE775
:103E20000198006840F60001C4F20001884212D0F7
:103E3000FFE70198006843F20041C4F201018842A3
:103E400009D0FFE70198006844F20001C4F20101C3
:103E5000884219D1FFE70198006880680721C0F205
:103E6000010108400090009806280CD0FFE7009858
:103E7000B0F5803F07D0FFE701980168086840F07F
:103E800001000860FFE706E001980168086840F05B
:103E900001000860FFE700208DF80B00FFE79DF8A8
:103EA0000B0003B07047000080B586B0049003910A
:103EB00000208DF80B00FFE7049890F83C000128E3
:103EC00004D1FFE702208DF81700D3E00499012008
:103ED00081F83C00FFE7FFE70499022081F83D00EC
:103EE000049800688068019001984FF68871CFF6B9
:103EF000CE7108400190019820F47F400190019814
:103F0000049909688860039800680090002800F010
:103F10009780FFE70098102800F09280FFE7009854
:103F2000202800F08D80FFE70098302800F088807E
:103F3000FFE70098402876D0FFE70098502858D037
:103F4000FFE70098602861D0FFE7009870282CD028
:103F5000FFE70098B0F5805F26D0FFE70098B0F546
:103F6000005F37D0FFE70098B0F1101F68D0FFE77F
:103F700000982021C0F21001884261D0FFE700982C
:103F80003021C0F2100188425AD0FFE7009840214A
:103F9000C0F21001884253D0FFE700987021C0F2B0
:103FA000100188424CD052E055E004980068039B11
:103FB0005A689968DB6801F0D5FC0498006880684D
:103FC0000190019840F077000190019804990968E8
:103FD000886040E004980068039B5A689968DB6831
:103FE00001F0C0FC04980168886840F48040886053
:103FF00031E004980068039A5168D26802F08AF8A8
:1040000004980068502101F0C7FC24E0049800687F
:10401000039A5168D26802F0A5F8049800686021FC
:1040200001F0BAFC17E004980068039A5168D2685E
:1040300002F070F804980068402101F0ADFC0AE03D
:10404000049800680399096801F0A6FC03E00120C8
:104050008DF80B00FFE70499012081F83D00FFE790
:104060000499002081F83C00FFE79DF80B008DF8D3
:104070001700FFE79DF8170006B080BD81B00090E3
:1040800001B0704780B584B0039003980068C068A1
:10409000029003980068006901909DF80400800771
:1040A000002824D5FFE79DF80800800700281DD5CB
:1040B000FFE7039801686FF002000861039901208F
:1040C0000877039800688069800720B1FFE70398AC
:1040D000FFF7D4FF06E0039800F0A8F9039800F07A
:1040E000D9FAFFE7039900200877FFE7FFE79DF87B
:1040F00004004007002825D5FFE79DF80800400789
:1041000000281ED5FFE7039801686FF004000861DE
:1041100003990220087703980068806910F4407FB3
:1041200004D0FFE70398FFF7A9FF06E0039800F02B
:104130007DF9039800F0AEFAFFE7039900200877B5
:10414000FFE7FFE79DF804000007002824D5FFE7FC
:104150009DF80800000700281DD5FFE703980168B7
:104160006FF008000861039904200877039800683D
:10417000C069800720B1FFE70398FFF77FFF06E0E3
:10418000039800F053F9039800F084FAFFE70399CD
:1041900000200877FFE7FFE79DF80400C00600282D
:1041A00025D5FFE79DF80800C00600281ED5FFE7CB
:1041B000039801686FF010000861039908200877E0
:1041C00003980068C06910F4407F04D0FFE70398AB
:1041D000FFF754FF06E0039800F028F9039800F079
:1041E00059FAFFE7039900200877FFE7FFE79DF8FA
:1041F0000400C00778B1FFE79DF80800C00748B188
:10420000FFE7039801686FF001000861039800F070
:1042100075FBFFE7FFE7019800F08000802806D0DB
:10422000FFE79DF805008006002810D5FFE79DF800
:1042300008000006002809D5FFE7039801686FF41D
:10424000025008610398FFF731FBFFE7FFE79DF895
:104250000500C00780B1FFE79DF8080000060028B0
:1042600009D5FFE7039801686FF48070086103982F
:10427000FFF718FBFFE7FFE79DF804004006002862
:1042800010D5FFE79DF808004006002809D5FFE794
:10429000039801686FF040000861039800F03CFB50
:1042A000FFE7FFE79DF804008006002810D5FFE730
:1042B0009DF808008006002809D5FFE703980168EB
:1042C0006FF0200008610398FFF7F4FAFFE7FFE7BB
:1042D0009DF80600C006002810D5FFE79DF80A00EB
:1042E000C006002809D5FFE7039801686FF4801025
:1042F00008610398FFF77EFBFFE7FFE79DF80600E4
:104300008006002810D5FFE79DF80A0080060028E7
:1043100009D5FFE7039801686FF40010086103985E
:10432000FFF764FBFFE7FFE79DF806004006002863
:1043300010D5FFE79DF80A004006002809D5FFE7E1
:10434000039801686FF4800008610398FFF756FB3B
:10435000FFE7FFE79DF806000006002810D5FFE7FD
:104360009DF80A000006002809D5FFE703980168B8
:104370006FF4000008610398FFF7A4FCFFE7FFE774
:1043800004B080BD80B58CB00B9000200A900990DD
:104390000890079006900B98006842F60041C4F21E
:1043A0000101884240D1FFE7FFE741F24C00C4F22F
:1043B0000200016841F004010160006800F004009F
:1043C00005900598FFE7FFE741F24C00C4F20200B8
:1043D000016841F002010160006800F002000490F1
:1043E0000498FFE7022001900690079000210291B7
:1043F000089109910A9040F60000C4F6000006A951
:104400000391FDF7A7FE019A0298039901230693F1
:1044100007920890099006200A9040F20040C4F6E6
:104420000000FDF797FEFFE70CB080BD81B0009063
:1044300001B0704780B586B00490039102920020CD
:104440008DF80700FFE7049890F83C00012804D19C
:10445000FFE702208DF81700C0E00499012081F8E1
:104460003C00FFE7FFE702980090142800F2A780C5
:104470000099DFE801F00BA4A4A424A4A4A43EA402
:10448000A4A457A4A4A471A4A4A48A0004980068B6
:10449000039901F099FA04980168886940F00800CE
:1044A000886104980168886920F004008861039895
:1044B00002690498016888691043886183E0049860
:1044C0000068039901F02AFB04980168886940F4A8
:1044D0000060886104980168886920F480608861C0
:1044E0000398026904980168886940EA022088619B
:1044F00069E004980068039901F0C8FB049801681A
:10450000C86940F00800C86104980168C86920F0D3
:104510000400C8610398026904980168C8691043DF
:10452000C86150E004980068039901F067FC0498A2
:104530000168C86940F40060C86104980168C869EE
:1045400020F48060C8610398026904980168C86912
:1045500040EA0220C86136E004980068039901F03F
:1045600005FD04980168086D40F00800086504988E
:104570000168086D20F0040008650398026904983A
:104580000168086D104308651DE0049800680399F0
:1045900001F056FD04980168086D40F4006008655C
:1045A00004980168086D20F480600865039802692A
:1045B00004980168086D40EA0220086503E00120C4
:1045C0008DF80700FFE7FFE70499002081F83C0021
:1045D000FFE79DF807008DF81700FFE79DF817002B
:1045E00006B080BD80B582B00090009820B9FFE78A
:1045F00001208DF8070045E0009890F83D0040B993
:10460000FFE70099002081F83C00009800F03EF898
:10461000FFE70099022081F83D00009951F8040B52
:1046200001F09CF80099012081F84800FFE700990B
:10463000012081F83E00009981F83F00009981F83F
:104640004000009981F84100009981F842000099EA
:1046500081F84300FFE7FFE70099012081F844005B
:10466000009981F84500009981F84600009981F889
:104670004700FFE70099012081F83D0000208DF8F8
:104680000700FFE79DF8070002B080BD81B00090F1
:1046900001B0704781B0009001B0704780B590B014
:1046A0000E900D910D9828B9FFE70E9890F83E00F6
:1046B0000B9034E00D98042805D1FFE70E9890F890
:1046C0003F000A9028E00D98082805D1FFE70E98D2
:1046D00090F8400009901CE00D980C2805D1FFE7E8
:1046E0000E9890F84100089010E00D98102805D120
:1046F000FFE70E9890F84200079004E00E9890F8BB
:1047000043000790FFE707980890FFE70898099093
:10471000FFE709980A90FFE70A980B90FFE70B98CC
:10472000012804D0FFE701208DF83F00E1E00D985B
:1047300028B9FFE70E99022081F83E0038E00D9875
:10474000042806D1FFE70E99022081F83F00069069
:104750002CE00D98082806D1FFE70E99022081F879
:10476000400005901FE00D980C2806D1FFE70E9938
:10477000022081F84100049012E00D98102806D123
:10478000FFE70E99022081F84200039005E00E99A0
:10479000022081F843000390FFE703980490FFE7AD
:1047A00004980590FFE705980690FFE70698FFE755
:1047B0000E9800680D990122019201F09BF8019872
:1047C0000E99096842F60042C4F201029142029039
:1047D0002DD0FFE70E980168012043F20042C4F299
:1047E00001029142029022D0FFE70E980168012059
:1047F00044F20002C4F201029142029017D0FFE796
:104800000E980168012044F20042C4F20102914274
:1048100002900CD0FFE70E9800684BF60001CBF633
:10482000FE710844B0FA80F040090290FFE7029858
:10483000C00738B1FFE70E980168486C40F40040AB
:104840004864FFE70E98006842F60041C4F2010197
:1048500088422AD0FFE70E980068B0F1804F24D03C
:10486000FFE70E98006840F20041C4F20001884260
:104870001BD0FFE70E98006840F60001C4F200016B
:10488000884212D0FFE70E98006843F20041C4F25C
:104890000101884209D0FFE70E98006844F2000148
:1048A000C4F20101884219D1FFE70E9800688068C0
:1048B0000721C0F2010108400C900C9806280CD08A
:1048C000FFE70C98B0F5803F07D0FFE70E9801682E
:1048D000086840F001000860FFE706E00E980168F4
:1048E000086840F001000860FFE700208DF83F00F5
:1048F000FFE79DF83F0010B080BD000081B0009040
:104900000098006842F60041C4F20101884201D1DA
:10491000FFE7FFE701B0704781B0009001B070473A
:1049200083B00190FFE7019890F88400012804D13A
:10493000FFE702208DF80B002CE00199012081F89F
:104940008400FFE7FFE701992420C1F8880001985F
:1049500000680068009001980168086820F0010074
:104960000860009820F000500090019900204866EF
:10497000009801990968086001992020C1F8880011
:10498000FFE70199002081F88400FFE700208DF8FF
:104990000B00FFE79DF80B0003B0704780B584B0B3
:1049A00002900191FFE7029890F88400012804D159
:1049B000FFE702208DF80F0032E00299012081F814
:1049C0008400FFE7FFE702992420C1F888000298DD
:1049D00000680068009002980168086820F00100F3
:1049E000086002980068806820F0606001990843C0
:1049F000029909688860029801F0DEFB009802992C
:104A00000968086002992020C1F88800FFE7029930
:104A1000002081F88400FFE700208DF80F00FFE7F9
:104A20009DF80F0004B080BD80B584B00290019164
:104A3000FFE7029890F88400012804D1FFE70220E4
:104A40008DF80F0032E00299012081F88400FFE721
:104A5000FFE702992420C1F88800029800680068E6
:104A6000009002980168086820F001000860029830
:104A70000068806820F06040019908430299096845
:104A80008860029801F098FB009802990968086014
:104A900002992020C1F88800FFE70299002081F8E0
:104AA0008400FFE700208DF80F00FFE79DF80F005E
:104AB00004B080BD80B582B00090009820B9FFE7B7
:104AC00001208DF8070046E00098806908B1FFE7F3
:104AD00000E0FFE70098D0F8880040B9FFE70099B0
:104AE000002081F88400009800F03AF8FFE7009970
:104AF0002420C1F8880000980168086820F00100AF
:104B000008600098806A20B1FFE7009801F098FBE8
:104B1000FFE7009801F02CFD012804D1FFE70120F8
:104B20008DF8070017E000980168486820F490406D
:104B3000486000980168886820F02A008860009822
:104B40000168086840F001000860009801F01CFC52
:104B50008DF80700FFE79DF8070002B080BD000058
:104B600080B59AB019900020189017901690159063
:104B7000149003A84421FBF783FB1998006843F6BF
:104B80000001C4F2010188423AD1FFE701200390FD
:104B90000020049003A8FDF733FE18B1FFE7FBF7F0
:104BA000F3FEFFE7FFE741F26000C4F20200016894
:104BB00041F480410160006800F480400290029856
:104BC000FFE7FFE741F24C00C4F20200016841F048
:104BD00001010160006800F0010001900198FFE709
:104BE0004FF4C0601490022015900020169017908A
:104BF000072018904FF0904014A9FDF7ABFAFFE79B
:104C00001AB080BD80B58AB008900791ADF81A201F
:104C100005930898D0F88800202840F08780FFE7A7
:104C2000079820B1FFE7BDF81A0020B9FFE701207F
:104C30008DF827007EE008990020C1F890000899BF
:104C40002120C1F88800FDF739FC0290BDF81A0058
:104C50000899A1F85400BDF81A000899A1F8560067
:104C600008988068B0F5805F09D1FFE7089800696F
:104C700028B9FFE7002004900798039004E0079804
:104C8000049000200390FFE7FFE70898B0F8560073
:104C900088B3FFE70898029B05996A461160802156
:104CA000002201F01DFF40B1FFE708992020C1F864
:104CB000880003208DF827003CE0049858B9FFE7EE
:104CC000039800886FF35F20089909688862039849
:104CD0000230039008E00498007808990968886217
:104CE000049801300490FFE70899B1F856000138A4
:104CF000A1F85600C9E70898029B05996A46116019
:104D00004021002201F0ECFE40B1FFE7089920208D
:104D1000C1F8880003208DF827000BE008992020B7
:104D2000C1F8880000208DF8270003E002208DF8EC
:104D30002700FFE79DF827000AB080BDFFE7FEE7E8
:104D400081B00090009880684FF6C071C7F6FF717F
:104D5000084002300099886001B0704781B000902F
:104D6000009988684FF6C072C5F6FF7210408860DF
:104D700001B0704781B00090009880684FF6C07114
:104D8000C7F6FF71084001300099886001B0704794
:104D900081B000900098806840F080504FF6C0715C
:104DA000C7F6FF7108400099886001B070470000A5
:104DB00081B000900098806800F0E07001B070470A
:104DC00081B000900098806800F0E07001B07047FA
:104DD00081B000900098806800F4604001B0704796
:104DE00081B000900098806800F01F0001B070470B
:104DF00081B000900098806800F01F0001B07047FB
:104E000083B0029001910298019900EB810060301B
:104E100000900098006800F0F84003B07047000070
:104E200081B000900098C06800F0007001B0704739
:104E300081B0009000988068C0F3C00001B0704756
:104E400081B0009000988068C0F3C00001B0704746
:104E500081B000900098C06C00F4C070B0FA80F08F
:104E6000400901B07047000081B000900098806850
:104E70004FF6C071C7F6FF7108400830009988608E
:104E800001B0704781B0009000988068C00F01B0F9
:104E90007047000081B0009000988068C0F34070B7
:104EA00001B0704781B0009000988068C0F3400066
:104EB00001B0704781B000900098806800F0010058
:104EC00001B0704781B000900098806800F0010048
:104ED00001B0704781B0009000988068C0F3007006
:104EE00001B0704781B0009000988068C0F38000E6
:104EF00001B0704781B0009000988068C0F38000D6
:104F000001B0704781B000900098C06800F4406024
:104F1000B0FA80F0400901B07047000084B00390FF
:104F2000029101920398029901F0007100EBD150B7
:104F300014300090009800680299C1F304520721D0
:104F4000914088430199914008430099086004B05A
:104F50007047000083B00290019100920298D0F84F
:104F6000B00001996FF3DF418843009A02F0180303
:104F70004FF6FF72C0F20702DA401140084302996F
:104F8000C1F8B00003B0704782B001900091019861
:104F9000806820F47C10009908430199886002B071
:104FA0007047000082B0019000910198806820F065
:104FB000E070009908430199886002B070470000D2
:104FC00085B004900391029201930498039900EB39
:104FD000810060300090009800684FF20001C0F23C
:104FE000FF310140029800F0F840019A1043084355
:104FF00040F000400099086005B0704784B003900D
:10500000029101920398029900EB810060300090B8
:105010000098006820F0007001990843009908602A
:1050200004B0704784B003900291019203980299F2
:1050300000EB8100603000900098006820F08070E4
:10504000019908430099086004B0704784B0039048
:10505000029101920398029900EB81006030009068
:105060000098006820F0004001990843009908600A
:1050700004B0704782B0019000910198406920F01F
:105080000040009908430199486102B07047000050
:1050900082B001900091019880684FF6C071C3F60C
:1050A000FF710140009800F08040084400F100408A
:1050B0000199886002B0704780B594B000200090DC
:1050C00013901290119002A83C21FBF7D9F8009997
:1050D00040F22800C2F2000001904FF0A0420260AE
:1050E0004FF4403242608160C1600161416104223D
:1050F0008261017741770122026280F8241080F8F2
:105100003810C16380F84010FCF73CFE18B1FFE78F
:10511000FBF73AFCFFE70020119040F22800C2F2B2
:10512000000011A9FCF714FB18B1FFE7FBF72CFCFA
:10513000FFE70220C0F230400290092003900020D7
:1051400004907F21059104210691079001210A9185
:105150008DF82C008DF82D008DF82E0084210C91F7
:1051600080210D918DF8380040F22800C2F2000035
:1051700002A9FBF785FC18B1FFE7FBF705FCFFE789
:1051800014B080BD84B0FFE741F24C00C4F20200CD
:10519000016841F020010160006800F020000390E8
:1051A0000398FFE7FFE741F24C00C4F202000168F8
:1051B00041F004010160006800F0040002900298D0
:1051C000FFE7FFE741F24C00C4F20200016841F042
:1051D00001010160006800F0010001900198FFE703
:1051E000FFE741F24C00C4F20200016841F0020105
:1051F0000160006800F0020000900098FFE704B032
:105200007047000080B59EB0002001901D901C905A
:105210001B901A9019901890179016901590149052
:10522000139012901190109003A83421FBF728F8E6
:10523000019940F29400C2F20000029042F600424E
:10524000C4F20102026001224260202383604FF415
:10525000FA63C360016142618161FEF737FD18B1F5
:10526000FFE7FBF791FBFFE74FF480501A9040F205
:105270009400C2F200001AA9FEF716FE18B1FFE76B
:10528000FBF782FBFFE740F29400C2F20000FFF759
:10529000A9F918B1FFE7FBF777FBFFE700201790AC
:1052A0004FF4E0011891199040F29400C2F200000E
:1052B00017A9FEF7A7FB18B1FFE7FBF765FBFFE7B0
:1052C000602010900020119002211291082113916A
:1052D00014901590169040F29400C2F2000010A9AC
:1052E0000422FFF7A7F818B1FFE7FBF74DFBFFE734
:1052F0007020109040F2C170119000201290139015
:1053000040F29400C2F2000010A90C22FFF792F8BC
:1053100018B1FFE7FBF738FBFFE700200090039090
:1053200004900590FF21069107904FF400510891D9
:1053300009900A900B904FF000710C910D900E9017
:105340000F9040F29400C2F2000003A9FEF7B6FAF3
:1053500018B1FFE7FBF718FBFFE740F29400C2F239
:105360000000FFF70FF81EB080BD000080B582B0CE
:1053700040F2E000C2F20000009043F60001C4F2E7
:10538000010101604FF4E131416000210191816030
:10539000C16001610C2242618161C16101624162AF
:1053A0008162FFF787FB18B1FFE7FBF7EDFAFFE734
:1053B00040F2E000C2F200000021FFF735FB18B117
:1053C000FFE7FBF7E1FAFFE740F2E000C2F200007E
:1053D0000021FFF7E3FA18B1FFE7FBF7D5FAFFE783
:1053E00040F2E000C2F20000FFF79AFA18B1FFE7BE
:1053F000FBF7CAFAFFE702B080BD0000FFE7FEE757
:10540000FFE7FEE788B0079006910592079800F045
:10541000070004900498C0F10700052803D3FFE7B4
:105420000420019004E00498C0F107000190FFE718
:105430000198039004980430062803D8FFE7002061
:10544000009003E0049803380090FFE70098029072
:1054500006980399012202FA01F101390840029BE2
:10546000984005999A40013A1140084308B07047A6
:1054700084B003908DF80B108DED010A039890ED28
:10548000040A9DF80B1001EE101AB8EEC11A20EEB6
:10549000010A80ED040A039890ED030A9DF80B10B1
:1054A00001EE101AB8EEC11A20EE010A80ED030ACF
:1054B000039890ED031A90ED040A30EE410A80ED56
:1054C000050A0398009090ED000A90ED014A90EDD6
:1054D000021A90ED052A90ED073A32EE435A20EE7B
:1054E000050A9DED015A24EE054A24EE024A30EEEB
:1054F000040A33EE033A32EE432A90ED063A32EED6
:10550000032A21EE021A30EE011A90ED080A30EE5D
:10551000010A80ED080A039890ED080A9DF80B1027
:1055200001EE101AB8EEC11A20EE010A80ED080A49
:105530000399C8698861039890ED031A90ED040AF5
:1055400030EE410A80ED070A039890ED080A90EDCD
:10555000091AB4EE410AF1EE10FA04DDFFE70399EF
:10556000486A0862FFE7039890ED080A90ED0A1A6E
:10557000B4EE410AF1EE10FA04DAFFE70399886A03
:105580000862FFE704B0704786B005908DED040A0D
:10559000CDED030A8DED021ACDED011A8DED002A35
:1055A0000498059908600398059948600298059940
:1055B000886001980599486200980599886206B04C
:1055C000704700007047000086B041F20C00C4F242
:1055D0000200016801F0030104910068C1B20120DA
:1055E00000EB1110029004980090022815D0FFE7FC
:1055F0000098032812D1FFE7029941F60030C0F26B
:10560000B700B0FBF1F041F20C01C4F202010968ED
:10561000C1F306214843059011E0FFE7029942F2E9
:105620000040C0F2F400B0FBF1F041F20C01C4F212
:1056300002010968C1F3062148430590FFE741F2E2
:105640000C00C4F20200006800F0C061022000EB10
:105650001160039005980399B0FBF1F00190019857
:1056600006B070477047000080B582B00090009887
:105670000138B0F1807F03D3FFE70120019019E0EA
:10568000009801384EF21401CEF2000108604FF08C
:10569000FF300F2101F0CCFA4EF21801CEF20001DA
:1056A000002008604EF21002CEF2000207211160C5
:1056B0000190FFE7019802B080BD000080B5FCF7C3
:1056C00003FF80BD80B594B006A800903821FAF79A
:1056D000D7FD002005900490039002900190FCF704
:1056E000ABFF0098012106914FF480310791022110
:1056F0000D9103220E920F9250221092119112914D
:105700001391FDF7EBFC18B1FFE7FBF73DF9FFE75D
:105710000F20019003200290002003900490059038
:1057200001A80421FDF79AFA18B1FFE7FBF72CF95D
:10573000FFE714B080BD00004EF68851CEF20001A4
:10574000086840F4700008607047000080B540F2BF
:105750009400C2F20000FEF795FC80BD83B0029079
:105760000191029800680090029842F60041C4F24C
:10577000010188421DD0FFE70298B0F1804F18D098
:10578000FFE7029840F20041C4F20001884210D0C5
:10579000FFE7029840F60001C4F20001884208D0F9
:1057A000FFE7029843F20041C4F2010188420AD1A6
:1057B000FFE7009820F07000009001984168009881
:1057C00008430090FFE7029842F60041C4F201014D
:1057D000884235D0FFE70298B0F1804F30D0FFE724
:1057E000029840F20041C4F20001884228D0FFE74D
:1057F000029840F60001C4F20001884220D0FFE781
:10580000029843F20041C4F20101884218D0FFE738
:10581000029844F20001C4F20101884210D0FFE76F
:10582000029844F20041C4F20101884208D0FFE727
:10583000029844F60001C4F2010188420AD1FFE750
:10584000009820F4407000900198C16800980843C7
:105850000090FFE7009820F0800001994969084313
:105860000090009802990860019880680299C862C7
:105870000198006802998862029842F60041C4F2D9
:105880000101884220D0FFE7029843F20041C4F2B0
:105890000101884218D0FFE7029844F20001C4F2E7
:1058A0000101884210D0FFE7029844F20041C4F29F
:1058B0000101884208D0FFE7029844F60001C4F2D3
:1058C0000101884205D1FFE7019800690299086348
:1058D000FFE702990120486102980069C00730B1D2
:1058E000FFE70299086920F001000861FFE703B0B3
:1058F0007047000084B0039002910192029800F07A
:105900001F01012088400090009A0399086A904383
:1059100008620198029901F01F0100FA01F203994F
:10592000086A1043086204B07047000084B0039016
:1059300002910192029800F00F010420884000902B
:10594000009A0399086A904308620198029901F04D
:105950000F0100FA01F20399086A1043086204B0CB
:105960007047000085B0049003910292019304985F
:1059700080680090009820F47F400090039802997E
:10598000019A41EA022101430098084300900098DF
:105990000499886005B0704783B002900191029825
:1059A0008068009000984FF68F71CFF6CF71084055
:1059B000009001980099084340F00700009000987B
:1059C0000299886003B0704785B0049003910498F1
:1059D000006A01900499086A20F0010008620498A6
:1059E0004068009004988069029002984FF68F7189
:1059F000CFF6FE7108400290029820F0030002905A
:105A000003980168029808430290019820F0020070
:105A1000019003988168019808430190049842F628
:105A20000041C4F20101884220D0FFE7049843F20C
:105A30000041C4F20101884218D0FFE7049844F203
:105A40000001C4F20101884210D0FFE7049844F23B
:105A50000041C4F20101884208D0FFE7049844F6EF
:105A60000001C4F2010188420ED1FFE7019820F045
:105A7000080001900398C1680198084301900198BB
:105A800020F004000190FFE7049842F60041C4F2C0
:105A90000101884220D0FFE7049843F20041C4F29C
:105AA0000101884218D0FFE7049844F20001C4F2D3
:105AB0000101884210D0FFE7049844F20041C4F28B
:105AC0000101884208D0FFE7049844F60001C4F2BF
:105AD0000101884213D1FFE7009820F48070009004
